{
  "_format": "hh-sol-artifact-1",
  "contractName": "DecentDisc",
  "sourceName": "contracts/DecentDisc.sol",
  "abi": [
    {
      "inputs": [
        {
          "internalType": "address",
          "name": "tokenAddress",
          "type": "address"
        },
        {
          "internalType": "string",
          "name": "name",
          "type": "string"
        },
        {
          "internalType": "string",
          "name": "symbol",
          "type": "string"
        }
      ],
      "stateMutability": "nonpayable",
      "type": "constructor"
    },
    {
      "anonymous": false,
      "inputs": [
        {
          "indexed": true,
          "internalType": "address",
          "name": "owner",
          "type": "address"
        },
        {
          "indexed": true,
          "internalType": "address",
          "name": "approved",
          "type": "address"
        },
        {
          "indexed": true,
          "internalType": "uint256",
          "name": "tokenId",
          "type": "uint256"
        }
      ],
      "name": "Approval",
      "type": "event"
    },
    {
      "anonymous": false,
      "inputs": [
        {
          "indexed": true,
          "internalType": "address",
          "name": "owner",
          "type": "address"
        },
        {
          "indexed": true,
          "internalType": "address",
          "name": "operator",
          "type": "address"
        },
        {
          "indexed": false,
          "internalType": "bool",
          "name": "approved",
          "type": "bool"
        }
      ],
      "name": "ApprovalForAll",
      "type": "event"
    },
    {
      "anonymous": false,
      "inputs": [
        {
          "indexed": true,
          "internalType": "address",
          "name": "from",
          "type": "address"
        },
        {
          "indexed": true,
          "internalType": "address",
          "name": "to",
          "type": "address"
        },
        {
          "indexed": true,
          "internalType": "uint256",
          "name": "tokenId",
          "type": "uint256"
        }
      ],
      "name": "Transfer",
      "type": "event"
    },
    {
      "inputs": [
        {
          "internalType": "address",
          "name": "to",
          "type": "address"
        },
        {
          "internalType": "uint256",
          "name": "tokenId",
          "type": "uint256"
        }
      ],
      "name": "approve",
      "outputs": [],
      "stateMutability": "nonpayable",
      "type": "function"
    },
    {
      "inputs": [
        {
          "internalType": "address",
          "name": "owner",
          "type": "address"
        }
      ],
      "name": "balanceOf",
      "outputs": [
        {
          "internalType": "uint256",
          "name": "",
          "type": "uint256"
        }
      ],
      "stateMutability": "view",
      "type": "function"
    },
    {
      "inputs": [],
      "name": "channelNo",
      "outputs": [
        {
          "internalType": "uint256",
          "name": "",
          "type": "uint256"
        }
      ],
      "stateMutability": "view",
      "type": "function"
    },
    {
      "inputs": [],
      "name": "channelNumbers",
      "outputs": [
        {
          "internalType": "uint256",
          "name": "",
          "type": "uint256"
        }
      ],
      "stateMutability": "view",
      "type": "function"
    },
    {
      "inputs": [
        {
          "internalType": "uint256",
          "name": "",
          "type": "uint256"
        }
      ],
      "name": "channels",
      "outputs": [
        {
          "internalType": "uint256",
          "name": "id",
          "type": "uint256"
        },
        {
          "internalType": "string",
          "name": "name",
          "type": "string"
        },
        {
          "internalType": "uint256",
          "name": "cost",
          "type": "uint256"
        }
      ],
      "stateMutability": "view",
      "type": "function"
    },
    {
      "inputs": [
        {
          "internalType": "string",
          "name": "name",
          "type": "string"
        },
        {
          "internalType": "uint256",
          "name": "cost",
          "type": "uint256"
        }
      ],
      "name": "createChannel",
      "outputs": [],
      "stateMutability": "nonpayable",
      "type": "function"
    },
    {
      "inputs": [
        {
          "internalType": "uint256",
          "name": "tokenId",
          "type": "uint256"
        }
      ],
      "name": "getApproved",
      "outputs": [
        {
          "internalType": "address",
          "name": "",
          "type": "address"
        }
      ],
      "stateMutability": "view",
      "type": "function"
    },
    {
      "inputs": [
        {
          "internalType": "uint256",
          "name": "id",
          "type": "uint256"
        }
      ],
      "name": "getChannel",
      "outputs": [
        {
          "components": [
            {
              "internalType": "uint256",
              "name": "id",
              "type": "uint256"
            },
            {
              "internalType": "string",
              "name": "name",
              "type": "string"
            },
            {
              "internalType": "uint256",
              "name": "cost",
              "type": "uint256"
            }
          ],
          "internalType": "struct DecentDisc.Channel",
          "name": "",
          "type": "tuple"
        }
      ],
      "stateMutability": "view",
      "type": "function"
    },
    {
      "inputs": [
        {
          "internalType": "address",
          "name": "owner",
          "type": "address"
        },
        {
          "internalType": "address",
          "name": "operator",
          "type": "address"
        }
      ],
      "name": "isApprovedForAll",
      "outputs": [
        {
          "internalType": "bool",
          "name": "",
          "type": "bool"
        }
      ],
      "stateMutability": "view",
      "type": "function"
    },
    {
      "inputs": [
        {
          "internalType": "uint256",
          "name": "",
          "type": "uint256"
        },
        {
          "internalType": "address",
          "name": "",
          "type": "address"
        }
      ],
      "name": "joinedChannel",
      "outputs": [
        {
          "internalType": "bool",
          "name": "",
          "type": "bool"
        }
      ],
      "stateMutability": "view",
      "type": "function"
    },
    {
      "inputs": [
        {
          "internalType": "uint256",
          "name": "id",
          "type": "uint256"
        }
      ],
      "name": "mint",
      "outputs": [],
      "stateMutability": "payable",
      "type": "function"
    },
    {
      "inputs": [],
      "name": "mintedNFTs",
      "outputs": [
        {
          "internalType": "uint256",
          "name": "",
          "type": "uint256"
        }
      ],
      "stateMutability": "view",
      "type": "function"
    },
    {
      "inputs": [],
      "name": "name",
      "outputs": [
        {
          "internalType": "string",
          "name": "",
          "type": "string"
        }
      ],
      "stateMutability": "view",
      "type": "function"
    },
    {
      "inputs": [],
      "name": "owner",
      "outputs": [
        {
          "internalType": "address",
          "name": "",
          "type": "address"
        }
      ],
      "stateMutability": "view",
      "type": "function"
    },
    {
      "inputs": [
        {
          "internalType": "uint256",
          "name": "tokenId",
          "type": "uint256"
        }
      ],
      "name": "ownerOf",
      "outputs": [
        {
          "internalType": "address",
          "name": "",
          "type": "address"
        }
      ],
      "stateMutability": "view",
      "type": "function"
    },
    {
      "inputs": [
        {
          "internalType": "address",
          "name": "from",
          "type": "address"
        },
        {
          "internalType": "address",
          "name": "to",
          "type": "address"
        },
        {
          "internalType": "uint256",
          "name": "tokenId",
          "type": "uint256"
        }
      ],
      "name": "safeTransferFrom",
      "outputs": [],
      "stateMutability": "nonpayable",
      "type": "function"
    },
    {
      "inputs": [
        {
          "internalType": "address",
          "name": "from",
          "type": "address"
        },
        {
          "internalType": "address",
          "name": "to",
          "type": "address"
        },
        {
          "internalType": "uint256",
          "name": "tokenId",
          "type": "uint256"
        },
        {
          "internalType": "bytes",
          "name": "data",
          "type": "bytes"
        }
      ],
      "name": "safeTransferFrom",
      "outputs": [],
      "stateMutability": "nonpayable",
      "type": "function"
    },
    {
      "inputs": [
        {
          "internalType": "address",
          "name": "recipient",
          "type": "address"
        },
        {
          "internalType": "uint256",
          "name": "amount",
          "type": "uint256"
        }
      ],
      "name": "sendTokens",
      "outputs": [],
      "stateMutability": "nonpayable",
      "type": "function"
    },
    {
      "inputs": [
        {
          "internalType": "address",
          "name": "operator",
          "type": "address"
        },
        {
          "internalType": "bool",
          "name": "approved",
          "type": "bool"
        }
      ],
      "name": "setApprovalForAll",
      "outputs": [],
      "stateMutability": "nonpayable",
      "type": "function"
    },
    {
      "inputs": [
        {
          "internalType": "bytes4",
          "name": "interfaceId",
          "type": "bytes4"
        }
      ],
      "name": "supportsInterface",
      "outputs": [
        {
          "internalType": "bool",
          "name": "",
          "type": "bool"
        }
      ],
      "stateMutability": "view",
      "type": "function"
    },
    {
      "inputs": [],
      "name": "symbol",
      "outputs": [
        {
          "internalType": "string",
          "name": "",
          "type": "string"
        }
      ],
      "stateMutability": "view",
      "type": "function"
    },
    {
      "inputs": [],
      "name": "token",
      "outputs": [
        {
          "internalType": "contract IDecentDiscToken",
          "name": "",
          "type": "address"
        }
      ],
      "stateMutability": "view",
      "type": "function"
    },
    {
      "inputs": [
        {
          "internalType": "uint256",
          "name": "tokenId",
          "type": "uint256"
        }
      ],
      "name": "tokenURI",
      "outputs": [
        {
          "internalType": "string",
          "name": "",
          "type": "string"
        }
      ],
      "stateMutability": "view",
      "type": "function"
    },
    {
      "inputs": [
        {
          "internalType": "address",
          "name": "from",
          "type": "address"
        },
        {
          "internalType": "address",
          "name": "to",
          "type": "address"
        },
        {
          "internalType": "uint256",
          "name": "tokenId",
          "type": "uint256"
        }
      ],
      "name": "transferFrom",
      "outputs": [],
      "stateMutability": "nonpayable",
      "type": "function"
    },
    {
      "inputs": [],
      "name": "withdraw",
      "outputs": [],
      "stateMutability": "nonpayable",
      "type": "function"
    }
  ],
  "bytecode": "0x60806040523480156200001157600080fd5b5060405162003f9438038062003f9483398181016040528101906200003791906200037f565b818181600090816200004a919062000664565b5080600190816200005c919062000664565b50505033600760006101000a81548173ffffffffffffffffffffffffffffffffffffffff021916908373ffffffffffffffffffffffffffffffffffffffff16021790555082600660006101000a81548173ffffffffffffffffffffffffffffffffffffffff021916908373ffffffffffffffffffffffffffffffffffffffff160217905550600660009054906101000a900473ffffffffffffffffffffffffffffffffffffffff1673ffffffffffffffffffffffffffffffffffffffff166340c10f193069021e19e0c9bab24000006040518363ffffffff1660e01b81526004016200014a9291906200079f565b600060405180830381600087803b1580156200016557600080fd5b505af11580156200017a573d6000803e3d6000fd5b50505050505050620007cc565b6000604051905090565b600080fd5b600080fd5b600073ffffffffffffffffffffffffffffffffffffffff82169050919050565b6000620001c8826200019b565b9050919050565b620001da81620001bb565b8114620001e657600080fd5b50565b600081519050620001fa81620001cf565b92915050565b600080fd5b600080fd5b6000601f19601f8301169050919050565b7f4e487b7100000000000000000000000000000000000000000000000000000000600052604160045260246000fd5b62000255826200020a565b810181811067ffffffffffffffff821117156200027757620002766200021b565b5b80604052505050565b60006200028c62000187565b90506200029a82826200024a565b919050565b600067ffffffffffffffff821115620002bd57620002bc6200021b565b5b620002c8826200020a565b9050602081019050919050565b60005b83811015620002f5578082015181840152602081019050620002d8565b60008484015250505050565b60006200031862000312846200029f565b62000280565b90508281526020810184848401111562000337576200033662000205565b5b62000344848285620002d5565b509392505050565b600082601f83011262000364576200036362000200565b5b81516200037684826020860162000301565b91505092915050565b6000806000606084860312156200039b576200039a62000191565b5b6000620003ab86828701620001e9565b935050602084015167ffffffffffffffff811115620003cf57620003ce62000196565b5b620003dd868287016200034c565b925050604084015167ffffffffffffffff81111562000401576200040062000196565b5b6200040f868287016200034c565b9150509250925092565b600081519050919050565b7f4e487b7100000000000000000000000000000000000000000000000000000000600052602260045260246000fd5b600060028204905060018216806200046c57607f821691505b60208210810362000482576200048162000424565b5b50919050565b60008190508160005260206000209050919050565b60006020601f8301049050919050565b600082821b905092915050565b600060088302620004ec7fffffffffffffffffffffffffffffffffffffffffffffffffffffffffffffffff82620004ad565b620004f88683620004ad565b95508019841693508086168417925050509392505050565b6000819050919050565b6000819050919050565b6000620005456200053f620005398462000510565b6200051a565b62000510565b9050919050565b6000819050919050565b620005618362000524565b6200057962000570826200054c565b848454620004ba565b825550505050565b600090565b6200059062000581565b6200059d81848462000556565b505050565b5b81811015620005c557620005b960008262000586565b600181019050620005a3565b5050565b601f8211156200061457620005de8162000488565b620005e9846200049d565b81016020851015620005f9578190505b6200061162000608856200049d565b830182620005a2565b50505b505050565b600082821c905092915050565b6000620006396000198460080262000619565b1980831691505092915050565b600062000654838362000626565b9150826002028217905092915050565b6200066f8262000419565b67ffffffffffffffff8111156200068b576200068a6200021b565b5b62000697825462000453565b620006a4828285620005c9565b600060209050601f831160018114620006dc5760008415620006c7578287015190505b620006d3858262000646565b86555062000743565b601f198416620006ec8662000488565b60005b828110156200071657848901518255600182019150602085019450602081019050620006ef565b8683101562000736578489015162000732601f89168262000626565b8355505b6001600288020188555050505b505050505050565b6200075681620001bb565b82525050565b6000819050919050565b600062000787620007816200077b846200075c565b6200051a565b62000510565b9050919050565b620007998162000766565b82525050565b6000604082019050620007b660008301856200074b565b620007c560208301846200078e565b9392505050565b6137b880620007dc6000396000f3fe6080604052600436106101665760003560e01c80638da5cb5b116100d1578063b9aca4a71161008a578063cb8cc58311610064578063cb8cc5831461053f578063e5949b5d1461056a578063e985e9c5146105a9578063fc0c546a146105e657610166565b8063b9aca4a71461049a578063bb6cfb52146104d7578063c87b56dd1461050257610166565b80638da5cb5b146103ad57806395d89b41146103d8578063a0712d6814610403578063a14865cd1461041f578063a22cb46514610448578063b88d4fde1461047157610166565b806310df54a01161012357806310df54a01461028d57806323b872dd146102ca5780633ccfd60b146102f357806342842e0e1461030a5780636352211e1461033357806370a082311461037057610166565b8063016776611461016b57806301ffc9a71461019657806305ab421d146101d357806306fdde03146101fc578063081812fc14610227578063095ea7b314610264575b600080fd5b34801561017757600080fd5b50610180610611565b60405161018d91906121ff565b60405180910390f35b3480156101a257600080fd5b506101bd60048036038101906101b89190612286565b610617565b6040516101ca91906122ce565b60405180910390f35b3480156101df57600080fd5b506101fa60048036038101906101f59190612373565b6106f9565b005b34801561020857600080fd5b506102116108c0565b60405161021e9190612443565b60405180910390f35b34801561023357600080fd5b5061024e60048036038101906102499190612465565b610952565b60405161025b91906124a1565b60405180910390f35b34801561027057600080fd5b5061028b60048036038101906102869190612373565b610998565b005b34801561029957600080fd5b506102b460048036038101906102af9190612465565b610aaf565b6040516102c19190612565565b60405180910390f35b3480156102d657600080fd5b506102f160048036038101906102ec9190612587565b610b82565b005b3480156102ff57600080fd5b50610308610be2565b005b34801561031657600080fd5b50610331600480360381019061032c9190612587565b610d0d565b005b34801561033f57600080fd5b5061035a60048036038101906103559190612465565b610d2d565b60405161036791906124a1565b60405180910390f35b34801561037c57600080fd5b50610397600480360381019061039291906125da565b610db3565b6040516103a491906121ff565b60405180910390f35b3480156103b957600080fd5b506103c2610e6a565b6040516103cf91906124a1565b60405180910390f35b3480156103e457600080fd5b506103ed610e90565b6040516103fa9190612443565b60405180910390f35b61041d60048036038101906104189190612465565b610f22565b005b34801561042b57600080fd5b506104466004803603810190610441919061273c565b61105f565b005b34801561045457600080fd5b5061046f600480360381019061046a91906127c4565b61116c565b005b34801561047d57600080fd5b50610498600480360381019061049391906128a5565b611182565b005b3480156104a657600080fd5b506104c160048036038101906104bc9190612928565b6111e4565b6040516104ce91906122ce565b60405180910390f35b3480156104e357600080fd5b506104ec611213565b6040516104f991906121ff565b60405180910390f35b34801561050e57600080fd5b5061052960048036038101906105249190612465565b61121d565b6040516105369190612443565b60405180910390f35b34801561054b57600080fd5b50610554611285565b60405161056191906121ff565b60405180910390f35b34801561057657600080fd5b50610591600480360381019061058c9190612465565b61128b565b6040516105a093929190612968565b60405180910390f35b3480156105b557600080fd5b506105d060048036038101906105cb91906129a6565b61133d565b6040516105dd91906122ce565b60405180910390f35b3480156105f257600080fd5b506105fb6113d1565b6040516106089190612a45565b60405180910390f35b60095481565b60007f80ac58cd000000000000000000000000000000000000000000000000000000007bffffffffffffffffffffffffffffffffffffffffffffffffffffffff1916827bffffffffffffffffffffffffffffffffffffffffffffffffffffffff191614806106e257507f5b5e139f000000000000000000000000000000000000000000000000000000007bffffffffffffffffffffffffffffffffffffffffffffffffffffffff1916827bffffffffffffffffffffffffffffffffffffffffffffffffffffffff1916145b806106f257506106f1826113f7565b5b9050919050565b80600660009054906101000a900473ffffffffffffffffffffffffffffffffffffffff1673ffffffffffffffffffffffffffffffffffffffff166370a08231306040518263ffffffff1660e01b815260040161075591906124a1565b602060405180830381865afa158015610772573d6000803e3d6000fd5b505050506040513d601f19601f820116820180604052508101906107969190612a75565b10156107d7576040517f08c379a00000000000000000000000000000000000000000000000000000000081526004016107ce90612b14565b60405180910390fd5b6000600660009054906101000a900473ffffffffffffffffffffffffffffffffffffffff1673ffffffffffffffffffffffffffffffffffffffff1663a9059cbb84846040518363ffffffff1660e01b8152600401610836929190612b34565b6020604051808303816000875af1158015610855573d6000803e3d6000fd5b505050506040513d601f19601f820116820180604052508101906108799190612b72565b9050806108bb576040517f08c379a00000000000000000000000000000000000000000000000000000000081526004016108b290612c11565b60405180910390fd5b505050565b6060600080546108cf90612c60565b80601f01602080910402602001604051908101604052809291908181526020018280546108fb90612c60565b80156109485780601f1061091d57610100808354040283529160200191610948565b820191906000526020600020905b81548152906001019060200180831161092b57829003601f168201915b5050505050905090565b600061095d82611461565b6004600083815260200190815260200160002060009054906101000a900473ffffffffffffffffffffffffffffffffffffffff169050919050565b60006109a382610d2d565b90508073ffffffffffffffffffffffffffffffffffffffff168373ffffffffffffffffffffffffffffffffffffffff1603610a13576040517f08c379a0000000000000000000000000000000000000000000000000000000008152600401610a0a90612d03565b60405180910390fd5b8073ffffffffffffffffffffffffffffffffffffffff16610a326114ac565b73ffffffffffffffffffffffffffffffffffffffff161480610a615750610a6081610a5b6114ac565b61133d565b5b610aa0576040517f08c379a0000000000000000000000000000000000000000000000000000000008152600401610a9790612d95565b60405180910390fd5b610aaa83836114b4565b505050565b610ab76121c5565b600a600083815260200190815260200160002060405180606001604052908160008201548152602001600182018054610aef90612c60565b80601f0160208091040260200160405190810160405280929190818152602001828054610b1b90612c60565b8015610b685780601f10610b3d57610100808354040283529160200191610b68565b820191906000526020600020905b815481529060010190602001808311610b4b57829003601f168201915b505050505081526020016002820154815250509050919050565b610b93610b8d6114ac565b8261156d565b610bd2576040517f08c379a0000000000000000000000000000000000000000000000000000000008152600401610bc990612e27565b60405180910390fd5b610bdd838383611602565b505050565b600760009054906101000a900473ffffffffffffffffffffffffffffffffffffffff1673ffffffffffffffffffffffffffffffffffffffff163373ffffffffffffffffffffffffffffffffffffffff1614610c72576040517f08c379a0000000000000000000000000000000000000000000000000000000008152600401610c6990612e93565b60405180910390fd5b6000600760009054906101000a900473ffffffffffffffffffffffffffffffffffffffff1673ffffffffffffffffffffffffffffffffffffffff1647604051610cba90612ee4565b60006040518083038185875af1925050503d8060008114610cf7576040519150601f19603f3d011682016040523d82523d6000602084013e610cfc565b606091505b5050905080610d0a57600080fd5b50565b610d2883838360405180602001604052806000815250611182565b505050565b600080610d39836118fb565b9050600073ffffffffffffffffffffffffffffffffffffffff168173ffffffffffffffffffffffffffffffffffffffff1603610daa576040517f08c379a0000000000000000000000000000000000000000000000000000000008152600401610da190612f45565b60405180910390fd5b80915050919050565b60008073ffffffffffffffffffffffffffffffffffffffff168273ffffffffffffffffffffffffffffffffffffffff1603610e23576040517f08c379a0000000000000000000000000000000000000000000000000000000008152600401610e1a90612fd7565b60405180910390fd5b600360008373ffffffffffffffffffffffffffffffffffffffff1673ffffffffffffffffffffffffffffffffffffffff168152602001908152602001600020549050919050565b600760009054906101000a900473ffffffffffffffffffffffffffffffffffffffff1681565b606060018054610e9f90612c60565b80601f0160208091040260200160405190810160405280929190818152602001828054610ecb90612c60565b8015610f185780601f10610eed57610100808354040283529160200191610f18565b820191906000526020600020905b815481529060010190602001808311610efb57829003601f168201915b5050505050905090565b60008103610f2f57600080fd5b600854811115610f3e57600080fd5b60001515600b600083815260200190815260200160002060003373ffffffffffffffffffffffffffffffffffffffff1673ffffffffffffffffffffffffffffffffffffffff16815260200190815260200160002060009054906101000a900460ff16151514610fac57600080fd5b600a600082815260200190815260200160002060020154341015610fcf57600080fd5b6001600b600083815260200190815260200160002060003373ffffffffffffffffffffffffffffffffffffffff1673ffffffffffffffffffffffffffffffffffffffff16815260200190815260200160002060006101000a81548160ff0219169083151502179055506009600081548092919061104b90613026565b919050555061105c33600954611938565b50565b600760009054906101000a900473ffffffffffffffffffffffffffffffffffffffff1673ffffffffffffffffffffffffffffffffffffffff163373ffffffffffffffffffffffffffffffffffffffff16146110ef576040517f08c379a00000000000000000000000000000000000000000000000000000000081526004016110e690612e93565b60405180910390fd5b600160086000828254611102919061306e565b925050819055506040518060600160405280600854815260200183815260200182815250600a6000600854815260200190815260200160002060008201518160000155602082015181600101908161115a9190613244565b50604082015181600201559050505050565b61117e6111776114ac565b8383611956565b5050565b61119361118d6114ac565b8361156d565b6111d2576040517f08c379a00000000000000000000000000000000000000000000000000000000081526004016111c990612e27565b60405180910390fd5b6111de84848484611ac2565b50505050565b600b6020528160005260406000206020528060005260406000206000915091509054906101000a900460ff1681565b6000600854905090565b606061122882611461565b6000611232611b1e565b90506000815111611252576040518060200160405280600081525061127d565b8061125c84611b35565b60405160200161126d929190613352565b6040516020818303038152906040525b915050919050565b60085481565b600a6020528060005260406000206000915090508060000154908060010180546112b490612c60565b80601f01602080910402602001604051908101604052809291908181526020018280546112e090612c60565b801561132d5780601f106113025761010080835404028352916020019161132d565b820191906000526020600020905b81548152906001019060200180831161131057829003601f168201915b5050505050908060020154905083565b6000600560008473ffffffffffffffffffffffffffffffffffffffff1673ffffffffffffffffffffffffffffffffffffffff16815260200190815260200160002060008373ffffffffffffffffffffffffffffffffffffffff1673ffffffffffffffffffffffffffffffffffffffff16815260200190815260200160002060009054906101000a900460ff16905092915050565b600660009054906101000a900473ffffffffffffffffffffffffffffffffffffffff1681565b60007f01ffc9a7000000000000000000000000000000000000000000000000000000007bffffffffffffffffffffffffffffffffffffffffffffffffffffffff1916827bffffffffffffffffffffffffffffffffffffffffffffffffffffffff1916149050919050565b61146a81611c03565b6114a9576040517f08c379a00000000000000000000000000000000000000000000000000000000081526004016114a090612f45565b60405180910390fd5b50565b600033905090565b816004600083815260200190815260200160002060006101000a81548173ffffffffffffffffffffffffffffffffffffffff021916908373ffffffffffffffffffffffffffffffffffffffff160217905550808273ffffffffffffffffffffffffffffffffffffffff1661152783610d2d565b73ffffffffffffffffffffffffffffffffffffffff167f8c5be1e5ebec7d5bd14f71427d1e84f3dd0314c0f7b2291e5b200ac8c7c3b92560405160405180910390a45050565b60008061157983610d2d565b90508073ffffffffffffffffffffffffffffffffffffffff168473ffffffffffffffffffffffffffffffffffffffff1614806115bb57506115ba818561133d565b5b806115f957508373ffffffffffffffffffffffffffffffffffffffff166115e184610952565b73ffffffffffffffffffffffffffffffffffffffff16145b91505092915050565b8273ffffffffffffffffffffffffffffffffffffffff1661162282610d2d565b73ffffffffffffffffffffffffffffffffffffffff1614611678576040517f08c379a000000000000000000000000000000000000000000000000000000000815260040161166f906133e8565b60405180910390fd5b600073ffffffffffffffffffffffffffffffffffffffff168273ffffffffffffffffffffffffffffffffffffffff16036116e7576040517f08c379a00000000000000000000000000000000000000000000000000000000081526004016116de9061347a565b60405180910390fd5b6116f48383836001611c44565b8273ffffffffffffffffffffffffffffffffffffffff1661171482610d2d565b73ffffffffffffffffffffffffffffffffffffffff161461176a576040517f08c379a0000000000000000000000000000000000000000000000000000000008152600401611761906133e8565b60405180910390fd5b6004600082815260200190815260200160002060006101000a81549073ffffffffffffffffffffffffffffffffffffffff02191690556001600360008573ffffffffffffffffffffffffffffffffffffffff1673ffffffffffffffffffffffffffffffffffffffff168152602001908152602001600020600082825403925050819055506001600360008473ffffffffffffffffffffffffffffffffffffffff1673ffffffffffffffffffffffffffffffffffffffff16815260200190815260200160002060008282540192505081905550816002600083815260200190815260200160002060006101000a81548173ffffffffffffffffffffffffffffffffffffffff021916908373ffffffffffffffffffffffffffffffffffffffff160217905550808273ffffffffffffffffffffffffffffffffffffffff168473ffffffffffffffffffffffffffffffffffffffff167fddf252ad1be2c89b69c2b068fc378daa952ba7f163c4a11628f55a4df523b3ef60405160405180910390a46118f68383836001611c4a565b505050565b60006002600083815260200190815260200160002060009054906101000a900473ffffffffffffffffffffffffffffffffffffffff169050919050565b611952828260405180602001604052806000815250611c50565b5050565b8173ffffffffffffffffffffffffffffffffffffffff168373ffffffffffffffffffffffffffffffffffffffff16036119c4576040517f08c379a00000000000000000000000000000000000000000000000000000000081526004016119bb906134e6565b60405180910390fd5b80600560008573ffffffffffffffffffffffffffffffffffffffff1673ffffffffffffffffffffffffffffffffffffffff16815260200190815260200160002060008473ffffffffffffffffffffffffffffffffffffffff1673ffffffffffffffffffffffffffffffffffffffff16815260200190815260200160002060006101000a81548160ff0219169083151502179055508173ffffffffffffffffffffffffffffffffffffffff168373ffffffffffffffffffffffffffffffffffffffff167f17307eab39ab6107e8899845ad3d59bd9653f200f220920489ca2b5937696c3183604051611ab591906122ce565b60405180910390a3505050565b611acd848484611602565b611ad984848484611cab565b611b18576040517f08c379a0000000000000000000000000000000000000000000000000000000008152600401611b0f90613578565b60405180910390fd5b50505050565b606060405180602001604052806000815250905090565b606060006001611b4484611e32565b01905060008167ffffffffffffffff811115611b6357611b62612611565b5b6040519080825280601f01601f191660200182016040528015611b955781602001600182028036833780820191505090505b509050600082602001820190505b600115611bf8578080600190039150507f3031323334353637383961626364656600000000000000000000000000000000600a86061a8153600a8581611bec57611beb613598565b5b04945060008503611ba3575b819350505050919050565b60008073ffffffffffffffffffffffffffffffffffffffff16611c25836118fb565b73ffffffffffffffffffffffffffffffffffffffff1614159050919050565b50505050565b50505050565b611c5a8383611f85565b611c676000848484611cab565b611ca6576040517f08c379a0000000000000000000000000000000000000000000000000000000008152600401611c9d90613578565b60405180910390fd5b505050565b6000611ccc8473ffffffffffffffffffffffffffffffffffffffff166121a2565b15611e25578373ffffffffffffffffffffffffffffffffffffffff1663150b7a02611cf56114ac565b8786866040518563ffffffff1660e01b8152600401611d17949392919061361c565b6020604051808303816000875af1925050508015611d5357506040513d601f19601f82011682018060405250810190611d50919061367d565b60015b611dd5573d8060008114611d83576040519150601f19603f3d011682016040523d82523d6000602084013e611d88565b606091505b506000815103611dcd576040517f08c379a0000000000000000000000000000000000000000000000000000000008152600401611dc490613578565b60405180910390fd5b805181602001fd5b63150b7a0260e01b7bffffffffffffffffffffffffffffffffffffffffffffffffffffffff1916817bffffffffffffffffffffffffffffffffffffffffffffffffffffffff191614915050611e2a565b600190505b949350505050565b600080600090507a184f03e93ff9f4daa797ed6e38ed64bf6a1f0100000000000000008310611e90577a184f03e93ff9f4daa797ed6e38ed64bf6a1f0100000000000000008381611e8657611e85613598565b5b0492506040810190505b6d04ee2d6d415b85acef81000000008310611ecd576d04ee2d6d415b85acef81000000008381611ec357611ec2613598565b5b0492506020810190505b662386f26fc100008310611efc57662386f26fc100008381611ef257611ef1613598565b5b0492506010810190505b6305f5e1008310611f25576305f5e1008381611f1b57611f1a613598565b5b0492506008810190505b6127108310611f4a576127108381611f4057611f3f613598565b5b0492506004810190505b60648310611f6d5760648381611f6357611f62613598565b5b0492506002810190505b600a8310611f7c576001810190505b80915050919050565b600073ffffffffffffffffffffffffffffffffffffffff168273ffffffffffffffffffffffffffffffffffffffff1603611ff4576040517f08c379a0000000000000000000000000000000000000000000000000000000008152600401611feb906136f6565b60405180910390fd5b611ffd81611c03565b1561203d576040517f08c379a000000000000000000000000000000000000000000000000000000000815260040161203490613762565b60405180910390fd5b61204b600083836001611c44565b61205481611c03565b15612094576040517f08c379a000000000000000000000000000000000000000000000000000000000815260040161208b90613762565b60405180910390fd5b6001600360008473ffffffffffffffffffffffffffffffffffffffff1673ffffffffffffffffffffffffffffffffffffffff16815260200190815260200160002060008282540192505081905550816002600083815260200190815260200160002060006101000a81548173ffffffffffffffffffffffffffffffffffffffff021916908373ffffffffffffffffffffffffffffffffffffffff160217905550808273ffffffffffffffffffffffffffffffffffffffff16600073ffffffffffffffffffffffffffffffffffffffff167fddf252ad1be2c89b69c2b068fc378daa952ba7f163c4a11628f55a4df523b3ef60405160405180910390a461219e600083836001611c4a565b5050565b6000808273ffffffffffffffffffffffffffffffffffffffff163b119050919050565b60405180606001604052806000815260200160608152602001600081525090565b6000819050919050565b6121f9816121e6565b82525050565b600060208201905061221460008301846121f0565b92915050565b6000604051905090565b600080fd5b600080fd5b60007fffffffff0000000000000000000000000000000000000000000000000000000082169050919050565b6122638161222e565b811461226e57600080fd5b50565b6000813590506122808161225a565b92915050565b60006020828403121561229c5761229b612224565b5b60006122aa84828501612271565b91505092915050565b60008115159050919050565b6122c8816122b3565b82525050565b60006020820190506122e360008301846122bf565b92915050565b600073ffffffffffffffffffffffffffffffffffffffff82169050919050565b6000612314826122e9565b9050919050565b61232481612309565b811461232f57600080fd5b50565b6000813590506123418161231b565b92915050565b612350816121e6565b811461235b57600080fd5b50565b60008135905061236d81612347565b92915050565b6000806040838503121561238a57612389612224565b5b600061239885828601612332565b92505060206123a98582860161235e565b9150509250929050565b600081519050919050565b600082825260208201905092915050565b60005b838110156123ed5780820151818401526020810190506123d2565b60008484015250505050565b6000601f19601f8301169050919050565b6000612415826123b3565b61241f81856123be565b935061242f8185602086016123cf565b612438816123f9565b840191505092915050565b6000602082019050818103600083015261245d818461240a565b905092915050565b60006020828403121561247b5761247a612224565b5b60006124898482850161235e565b91505092915050565b61249b81612309565b82525050565b60006020820190506124b66000830184612492565b92915050565b6124c5816121e6565b82525050565b600082825260208201905092915050565b60006124e7826123b3565b6124f181856124cb565b93506125018185602086016123cf565b61250a816123f9565b840191505092915050565b600060608301600083015161252d60008601826124bc565b506020830151848203602086015261254582826124dc565b915050604083015161255a60408601826124bc565b508091505092915050565b6000602082019050818103600083015261257f8184612515565b905092915050565b6000806000606084860312156125a05761259f612224565b5b60006125ae86828701612332565b93505060206125bf86828701612332565b92505060406125d08682870161235e565b9150509250925092565b6000602082840312156125f0576125ef612224565b5b60006125fe84828501612332565b91505092915050565b600080fd5b600080fd5b7f4e487b7100000000000000000000000000000000000000000000000000000000600052604160045260246000fd5b612649826123f9565b810181811067ffffffffffffffff8211171561266857612667612611565b5b80604052505050565b600061267b61221a565b90506126878282612640565b919050565b600067ffffffffffffffff8211156126a7576126a6612611565b5b6126b0826123f9565b9050602081019050919050565b82818337600083830152505050565b60006126df6126da8461268c565b612671565b9050828152602081018484840111156126fb576126fa61260c565b5b6127068482856126bd565b509392505050565b600082601f83011261272357612722612607565b5b81356127338482602086016126cc565b91505092915050565b6000806040838503121561275357612752612224565b5b600083013567ffffffffffffffff81111561277157612770612229565b5b61277d8582860161270e565b925050602061278e8582860161235e565b9150509250929050565b6127a1816122b3565b81146127ac57600080fd5b50565b6000813590506127be81612798565b92915050565b600080604083850312156127db576127da612224565b5b60006127e985828601612332565b92505060206127fa858286016127af565b9150509250929050565b600067ffffffffffffffff82111561281f5761281e612611565b5b612828826123f9565b9050602081019050919050565b600061284861284384612804565b612671565b9050828152602081018484840111156128645761286361260c565b5b61286f8482856126bd565b509392505050565b600082601f83011261288c5761288b612607565b5b813561289c848260208601612835565b91505092915050565b600080600080608085870312156128bf576128be612224565b5b60006128cd87828801612332565b94505060206128de87828801612332565b93505060406128ef8782880161235e565b925050606085013567ffffffffffffffff8111156129105761290f612229565b5b61291c87828801612877565b91505092959194509250565b6000806040838503121561293f5761293e612224565b5b600061294d8582860161235e565b925050602061295e85828601612332565b9150509250929050565b600060608201905061297d60008301866121f0565b818103602083015261298f818561240a565b905061299e60408301846121f0565b949350505050565b600080604083850312156129bd576129bc612224565b5b60006129cb85828601612332565b92505060206129dc85828601612332565b9150509250929050565b6000819050919050565b6000612a0b612a06612a01846122e9565b6129e6565b6122e9565b9050919050565b6000612a1d826129f0565b9050919050565b6000612a2f82612a12565b9050919050565b612a3f81612a24565b82525050565b6000602082019050612a5a6000830184612a36565b92915050565b600081519050612a6f81612347565b92915050565b600060208284031215612a8b57612a8a612224565b5b6000612a9984828501612a60565b91505092915050565b7f446563656e74446973633a204e6f7420656e6f75676820746f6b656e7320617660008201527f61696c61626c6500000000000000000000000000000000000000000000000000602082015250565b6000612afe6027836123be565b9150612b0982612aa2565b604082019050919050565b60006020820190508181036000830152612b2d81612af1565b9050919050565b6000604082019050612b496000830185612492565b612b5660208301846121f0565b9392505050565b600081519050612b6c81612798565b92915050565b600060208284031215612b8857612b87612224565b5b6000612b9684828501612b5d565b91505092915050565b7f446563656e74446973633a20546f6b656e207472616e73666572206661696c6560008201527f6400000000000000000000000000000000000000000000000000000000000000602082015250565b6000612bfb6021836123be565b9150612c0682612b9f565b604082019050919050565b60006020820190508181036000830152612c2a81612bee565b9050919050565b7f4e487b7100000000000000000000000000000000000000000000000000000000600052602260045260246000fd5b60006002820490506001821680612c7857607f821691505b602082108103612c8b57612c8a612c31565b5b50919050565b7f4552433732313a20617070726f76616c20746f2063757272656e74206f776e6560008201527f7200000000000000000000000000000000000000000000000000000000000000602082015250565b6000612ced6021836123be565b9150612cf882612c91565b604082019050919050565b60006020820190508181036000830152612d1c81612ce0565b9050919050565b7f4552433732313a20617070726f76652063616c6c6572206973206e6f7420746f60008201527f6b656e206f776e6572206f7220617070726f76656420666f7220616c6c000000602082015250565b6000612d7f603d836123be565b9150612d8a82612d23565b604082019050919050565b60006020820190508181036000830152612dae81612d72565b9050919050565b7f4552433732313a2063616c6c6572206973206e6f7420746f6b656e206f776e6560008201527f72206f7220617070726f76656400000000000000000000000000000000000000602082015250565b6000612e11602d836123be565b9150612e1c82612db5565b604082019050919050565b60006020820190508181036000830152612e4081612e04565b9050919050565b7f4552433732313a204e6f74206f776e6572206f66206368616e6e656c21000000600082015250565b6000612e7d601d836123be565b9150612e8882612e47565b602082019050919050565b60006020820190508181036000830152612eac81612e70565b9050919050565b600081905092915050565b50565b6000612ece600083612eb3565b9150612ed982612ebe565b600082019050919050565b6000612eef82612ec1565b9150819050919050565b7f4552433732313a20696e76616c696420746f6b656e2049440000000000000000600082015250565b6000612f2f6018836123be565b9150612f3a82612ef9565b602082019050919050565b60006020820190508181036000830152612f5e81612f22565b9050919050565b7f4552433732313a2061646472657373207a65726f206973206e6f74206120766160008201527f6c6964206f776e65720000000000000000000000000000000000000000000000602082015250565b6000612fc16029836123be565b9150612fcc82612f65565b604082019050919050565b60006020820190508181036000830152612ff081612fb4565b9050919050565b7f4e487b7100000000000000000000000000000000000000000000000000000000600052601160045260246000fd5b6000613031826121e6565b91507fffffffffffffffffffffffffffffffffffffffffffffffffffffffffffffffff820361306357613062612ff7565b5b600182019050919050565b6000613079826121e6565b9150613084836121e6565b925082820190508082111561309c5761309b612ff7565b5b92915050565b60008190508160005260206000209050919050565b60006020601f8301049050919050565b600082821b905092915050565b6000600883026131047fffffffffffffffffffffffffffffffffffffffffffffffffffffffffffffffff826130c7565b61310e86836130c7565b95508019841693508086168417925050509392505050565b600061314161313c613137846121e6565b6129e6565b6121e6565b9050919050565b6000819050919050565b61315b83613126565b61316f61316782613148565b8484546130d4565b825550505050565b600090565b613184613177565b61318f818484613152565b505050565b5b818110156131b3576131a860008261317c565b600181019050613195565b5050565b601f8211156131f8576131c9816130a2565b6131d2846130b7565b810160208510156131e1578190505b6131f56131ed856130b7565b830182613194565b50505b505050565b600082821c905092915050565b600061321b600019846008026131fd565b1980831691505092915050565b6000613234838361320a565b9150826002028217905092915050565b61324d826123b3565b67ffffffffffffffff81111561326657613265612611565b5b6132708254612c60565b61327b8282856131b7565b600060209050601f8311600181146132ae576000841561329c578287015190505b6132a68582613228565b86555061330e565b601f1984166132bc866130a2565b60005b828110156132e4578489015182556001820191506020850194506020810190506132bf565b8683101561330157848901516132fd601f89168261320a565b8355505b6001600288020188555050505b505050505050565b600081905092915050565b600061332c826123b3565b6133368185613316565b93506133468185602086016123cf565b80840191505092915050565b600061335e8285613321565b915061336a8284613321565b91508190509392505050565b7f4552433732313a207472616e736665722066726f6d20696e636f72726563742060008201527f6f776e6572000000000000000000000000000000000000000000000000000000602082015250565b60006133d26025836123be565b91506133dd82613376565b604082019050919050565b60006020820190508181036000830152613401816133c5565b9050919050565b7f4552433732313a207472616e7366657220746f20746865207a65726f2061646460008201527f7265737300000000000000000000000000000000000000000000000000000000602082015250565b60006134646024836123be565b915061346f82613408565b604082019050919050565b6000602082019050818103600083015261349381613457565b9050919050565b7f4552433732313a20617070726f766520746f2063616c6c657200000000000000600082015250565b60006134d06019836123be565b91506134db8261349a565b602082019050919050565b600060208201905081810360008301526134ff816134c3565b9050919050565b7f4552433732313a207472616e7366657220746f206e6f6e20455243373231526560008201527f63656976657220696d706c656d656e7465720000000000000000000000000000602082015250565b60006135626032836123be565b915061356d82613506565b604082019050919050565b6000602082019050818103600083015261359181613555565b9050919050565b7f4e487b7100000000000000000000000000000000000000000000000000000000600052601260045260246000fd5b600081519050919050565b600082825260208201905092915050565b60006135ee826135c7565b6135f881856135d2565b93506136088185602086016123cf565b613611816123f9565b840191505092915050565b60006080820190506136316000830187612492565b61363e6020830186612492565b61364b60408301856121f0565b818103606083015261365d81846135e3565b905095945050505050565b6000815190506136778161225a565b92915050565b60006020828403121561369357613692612224565b5b60006136a184828501613668565b91505092915050565b7f4552433732313a206d696e7420746f20746865207a65726f2061646472657373600082015250565b60006136e06020836123be565b91506136eb826136aa565b602082019050919050565b6000602082019050818103600083015261370f816136d3565b9050919050565b7f4552433732313a20746f6b656e20616c7265616479206d696e74656400000000600082015250565b600061374c601c836123be565b915061375782613716565b602082019050919050565b6000602082019050818103600083015261377b8161373f565b905091905056fea2646970667358221220488ae54094eb6a61a920db1f13cd4add325fb6c2f128be2ddf4fc5ba12d0be9564736f6c63430008120033",
  "linkReferences": {},
  "deployedLinkReferences": {}
}