{
    "_format": "hh-sol-artifact-1",
    "contractName": "DecentDisc",
    "sourceName": "contracts/DecentDisc.sol",
    "abi": [
        {
            "inputs": [
                {
                    "internalType": "string",
                    "name": "name",
                    "type": "string"
                },
                {
                    "internalType": "string",
                    "name": "symbol",
                    "type": "string"
                }
            ],
            "stateMutability": "nonpayable",
            "type": "constructor"
        },
        {
            "anonymous": false,
            "inputs": [
                {
                    "indexed": true,
                    "internalType": "address",
                    "name": "owner",
                    "type": "address"
                },
                {
                    "indexed": true,
                    "internalType": "address",
                    "name": "approved",
                    "type": "address"
                },
                {
                    "indexed": true,
                    "internalType": "uint256",
                    "name": "tokenId",
                    "type": "uint256"
                }
            ],
            "name": "Approval",
            "type": "event"
        },
        {
            "anonymous": false,
            "inputs": [
                {
                    "indexed": true,
                    "internalType": "address",
                    "name": "owner",
                    "type": "address"
                },
                {
                    "indexed": true,
                    "internalType": "address",
                    "name": "operator",
                    "type": "address"
                },
                {
                    "indexed": false,
                    "internalType": "bool",
                    "name": "approved",
                    "type": "bool"
                }
            ],
            "name": "ApprovalForAll",
            "type": "event"
        },
        {
            "anonymous": false,
            "inputs": [
                {
                    "indexed": true,
                    "internalType": "address",
                    "name": "from",
                    "type": "address"
                },
                {
                    "indexed": true,
                    "internalType": "address",
                    "name": "to",
                    "type": "address"
                },
                {
                    "indexed": true,
                    "internalType": "uint256",
                    "name": "tokenId",
                    "type": "uint256"
                }
            ],
            "name": "Transfer",
            "type": "event"
        },
        {
            "inputs": [
                {
                    "internalType": "address",
                    "name": "to",
                    "type": "address"
                },
                {
                    "internalType": "uint256",
                    "name": "tokenId",
                    "type": "uint256"
                }
            ],
            "name": "approve",
            "outputs": [],
            "stateMutability": "nonpayable",
            "type": "function"
        },
        {
            "inputs": [
                {
                    "internalType": "address",
                    "name": "owner",
                    "type": "address"
                }
            ],
            "name": "balanceOf",
            "outputs": [
                {
                    "internalType": "uint256",
                    "name": "",
                    "type": "uint256"
                }
            ],
            "stateMutability": "view",
            "type": "function"
        },
        {
            "inputs": [],
            "name": "channelNo",
            "outputs": [
                {
                    "internalType": "uint256",
                    "name": "",
                    "type": "uint256"
                }
            ],
            "stateMutability": "view",
            "type": "function"
        },
        {
            "inputs": [
                {
                    "internalType": "uint256",
                    "name": "",
                    "type": "uint256"
                }
            ],
            "name": "channels",
            "outputs": [
                {
                    "internalType": "uint256",
                    "name": "id",
                    "type": "uint256"
                },
                {
                    "internalType": "string",
                    "name": "name",
                    "type": "string"
                },
                {
                    "internalType": "uint256",
                    "name": "cost",
                    "type": "uint256"
                }
            ],
            "stateMutability": "view",
            "type": "function"
        },
        {
            "inputs": [
                {
                    "internalType": "string",
                    "name": "name",
                    "type": "string"
                },
                {
                    "internalType": "uint256",
                    "name": "cost",
                    "type": "uint256"
                }
            ],
            "name": "createChannel",
            "outputs": [],
            "stateMutability": "nonpayable",
            "type": "function"
        },
        {
            "inputs": [
                {
                    "internalType": "uint256",
                    "name": "tokenId",
                    "type": "uint256"
                }
            ],
            "name": "getApproved",
            "outputs": [
                {
                    "internalType": "address",
                    "name": "",
                    "type": "address"
                }
            ],
            "stateMutability": "view",
            "type": "function"
        },
        {
            "inputs": [
                {
                    "internalType": "uint256",
                    "name": "id",
                    "type": "uint256"
                }
            ],
            "name": "getChannel",
            "outputs": [
                {
                    "components": [
                        {
                            "internalType": "uint256",
                            "name": "id",
                            "type": "uint256"
                        },
                        {
                            "internalType": "string",
                            "name": "name",
                            "type": "string"
                        },
                        {
                            "internalType": "uint256",
                            "name": "cost",
                            "type": "uint256"
                        }
                    ],
                    "internalType": "struct DecentDisc.Channel",
                    "name": "",
                    "type": "tuple"
                }
            ],
            "stateMutability": "view",
            "type": "function"
        },
        {
            "inputs": [
                {
                    "internalType": "address",
                    "name": "owner",
                    "type": "address"
                },
                {
                    "internalType": "address",
                    "name": "operator",
                    "type": "address"
                }
            ],
            "name": "isApprovedForAll",
            "outputs": [
                {
                    "internalType": "bool",
                    "name": "",
                    "type": "bool"
                }
            ],
            "stateMutability": "view",
            "type": "function"
        },
        {
            "inputs": [
                {
                    "internalType": "uint256",
                    "name": "",
                    "type": "uint256"
                },
                {
                    "internalType": "address",
                    "name": "",
                    "type": "address"
                }
            ],
            "name": "joinedChannel",
            "outputs": [
                {
                    "internalType": "bool",
                    "name": "",
                    "type": "bool"
                }
            ],
            "stateMutability": "view",
            "type": "function"
        },
        {
            "inputs": [
                {
                    "internalType": "uint256",
                    "name": "id",
                    "type": "uint256"
                }
            ],
            "name": "mint",
            "outputs": [],
            "stateMutability": "payable",
            "type": "function"
        },
        {
            "inputs": [],
            "name": "mintedNFTs",
            "outputs": [
                {
                    "internalType": "uint256",
                    "name": "",
                    "type": "uint256"
                }
            ],
            "stateMutability": "view",
            "type": "function"
        },
        {
            "inputs": [],
            "name": "name",
            "outputs": [
                {
                    "internalType": "string",
                    "name": "",
                    "type": "string"
                }
            ],
            "stateMutability": "view",
            "type": "function"
        },
        {
            "inputs": [],
            "name": "owner",
            "outputs": [
                {
                    "internalType": "address",
                    "name": "",
                    "type": "address"
                }
            ],
            "stateMutability": "view",
            "type": "function"
        },
        {
            "inputs": [
                {
                    "internalType": "uint256",
                    "name": "tokenId",
                    "type": "uint256"
                }
            ],
            "name": "ownerOf",
            "outputs": [
                {
                    "internalType": "address",
                    "name": "",
                    "type": "address"
                }
            ],
            "stateMutability": "view",
            "type": "function"
        },
        {
            "inputs": [
                {
                    "internalType": "address",
                    "name": "from",
                    "type": "address"
                },
                {
                    "internalType": "address",
                    "name": "to",
                    "type": "address"
                },
                {
                    "internalType": "uint256",
                    "name": "tokenId",
                    "type": "uint256"
                }
            ],
            "name": "safeTransferFrom",
            "outputs": [],
            "stateMutability": "nonpayable",
            "type": "function"
        },
        {
            "inputs": [
                {
                    "internalType": "address",
                    "name": "from",
                    "type": "address"
                },
                {
                    "internalType": "address",
                    "name": "to",
                    "type": "address"
                },
                {
                    "internalType": "uint256",
                    "name": "tokenId",
                    "type": "uint256"
                },
                {
                    "internalType": "bytes",
                    "name": "data",
                    "type": "bytes"
                }
            ],
            "name": "safeTransferFrom",
            "outputs": [],
            "stateMutability": "nonpayable",
            "type": "function"
        },
        {
            "inputs": [
                {
                    "internalType": "address",
                    "name": "operator",
                    "type": "address"
                },
                {
                    "internalType": "bool",
                    "name": "approved",
                    "type": "bool"
                }
            ],
            "name": "setApprovalForAll",
            "outputs": [],
            "stateMutability": "nonpayable",
            "type": "function"
        },
        {
            "inputs": [
                {
                    "internalType": "bytes4",
                    "name": "interfaceId",
                    "type": "bytes4"
                }
            ],
            "name": "supportsInterface",
            "outputs": [
                {
                    "internalType": "bool",
                    "name": "",
                    "type": "bool"
                }
            ],
            "stateMutability": "view",
            "type": "function"
        },
        {
            "inputs": [],
            "name": "symbol",
            "outputs": [
                {
                    "internalType": "string",
                    "name": "",
                    "type": "string"
                }
            ],
            "stateMutability": "view",
            "type": "function"
        },
        {
            "inputs": [
                {
                    "internalType": "uint256",
                    "name": "tokenId",
                    "type": "uint256"
                }
            ],
            "name": "tokenURI",
            "outputs": [
                {
                    "internalType": "string",
                    "name": "",
                    "type": "string"
                }
            ],
            "stateMutability": "view",
            "type": "function"
        },
        {
            "inputs": [
                {
                    "internalType": "address",
                    "name": "from",
                    "type": "address"
                },
                {
                    "internalType": "address",
                    "name": "to",
                    "type": "address"
                },
                {
                    "internalType": "uint256",
                    "name": "tokenId",
                    "type": "uint256"
                }
            ],
            "name": "transferFrom",
            "outputs": [],
            "stateMutability": "nonpayable",
            "type": "function"
        },
        {
            "inputs": [],
            "name": "withdraw",
            "outputs": [],
            "stateMutability": "nonpayable",
            "type": "function"
        }
    ],
    "bytecode": "0x60806040523480156200001157600080fd5b50604051620038d2380380620038d283398181016040528101906200003791906200023b565b818181600090816200004a91906200050b565b5080600190816200005c91906200050b565b50505033600660006101000a81548173ffffffffffffffffffffffffffffffffffffffff021916908373ffffffffffffffffffffffffffffffffffffffff1602179055505050620005f2565b6000604051905090565b600080fd5b600080fd5b600080fd5b600080fd5b6000601f19601f8301169050919050565b7f4e487b7100000000000000000000000000000000000000000000000000000000600052604160045260246000fd5b6200011182620000c6565b810181811067ffffffffffffffff82111715620001335762000132620000d7565b5b80604052505050565b600062000148620000a8565b905062000156828262000106565b919050565b600067ffffffffffffffff821115620001795762000178620000d7565b5b6200018482620000c6565b9050602081019050919050565b60005b83811015620001b157808201518184015260208101905062000194565b60008484015250505050565b6000620001d4620001ce846200015b565b6200013c565b905082815260208101848484011115620001f357620001f2620000c1565b5b6200020084828562000191565b509392505050565b600082601f83011262000220576200021f620000bc565b5b815162000232848260208601620001bd565b91505092915050565b60008060408385031215620002555762000254620000b2565b5b600083015167ffffffffffffffff811115620002765762000275620000b7565b5b620002848582860162000208565b925050602083015167ffffffffffffffff811115620002a857620002a7620000b7565b5b620002b68582860162000208565b9150509250929050565b600081519050919050565b7f4e487b7100000000000000000000000000000000000000000000000000000000600052602260045260246000fd5b600060028204905060018216806200031357607f821691505b602082108103620003295762000328620002cb565b5b50919050565b60008190508160005260206000209050919050565b60006020601f8301049050919050565b600082821b905092915050565b600060088302620003937fffffffffffffffffffffffffffffffffffffffffffffffffffffffffffffffff8262000354565b6200039f868362000354565b95508019841693508086168417925050509392505050565b6000819050919050565b6000819050919050565b6000620003ec620003e6620003e084620003b7565b620003c1565b620003b7565b9050919050565b6000819050919050565b6200040883620003cb565b620004206200041782620003f3565b84845462000361565b825550505050565b600090565b6200043762000428565b62000444818484620003fd565b505050565b5b818110156200046c57620004606000826200042d565b6001810190506200044a565b5050565b601f821115620004bb5762000485816200032f565b620004908462000344565b81016020851015620004a0578190505b620004b8620004af8562000344565b83018262000449565b50505b505050565b600082821c905092915050565b6000620004e060001984600802620004c0565b1980831691505092915050565b6000620004fb8383620004cd565b9150826002028217905092915050565b6200051682620002c0565b67ffffffffffffffff811115620005325762000531620000d7565b5b6200053e8254620002fa565b6200054b82828562000470565b600060209050601f8311600181146200058357600084156200056e578287015190505b6200057a8582620004ed565b865550620005ea565b601f19841662000593866200032f565b60005b82811015620005bd5784890151825560018201915060208501945060208101905062000596565b86831015620005dd5784890151620005d9601f891682620004cd565b8355505b6001600288020188555050505b505050505050565b6132d080620006026000396000f3fe6080604052600436106101355760003560e01c80638da5cb5b116100ab578063b88d4fde1161006f578063b88d4fde14610417578063b9aca4a714610440578063c87b56dd1461047d578063cb8cc583146104ba578063e5949b5d146104e5578063e985e9c51461052457610135565b80638da5cb5b1461035357806395d89b411461037e578063a0712d68146103a9578063a14865cd146103c5578063a22cb465146103ee57610135565b806310df54a0116100fd57806310df54a01461023357806323b872dd146102705780633ccfd60b1461029957806342842e0e146102b05780636352211e146102d957806370a082311461031657610135565b8063016776611461013a57806301ffc9a71461016557806306fdde03146101a2578063081812fc146101cd578063095ea7b31461020a575b600080fd5b34801561014657600080fd5b5061014f610561565b60405161015c9190611f58565b60405180910390f35b34801561017157600080fd5b5061018c60048036038101906101879190611fdf565b610567565b6040516101999190612027565b60405180910390f35b3480156101ae57600080fd5b506101b7610649565b6040516101c491906120d2565b60405180910390f35b3480156101d957600080fd5b506101f460048036038101906101ef9190612120565b6106db565b604051610201919061218e565b60405180910390f35b34801561021657600080fd5b50610231600480360381019061022c91906121d5565b610721565b005b34801561023f57600080fd5b5061025a60048036038101906102559190612120565b610838565b60405161026791906122be565b60405180910390f35b34801561027c57600080fd5b50610297600480360381019061029291906122e0565b61090b565b005b3480156102a557600080fd5b506102ae61096b565b005b3480156102bc57600080fd5b506102d760048036038101906102d291906122e0565b610a96565b005b3480156102e557600080fd5b5061030060048036038101906102fb9190612120565b610ab6565b60405161030d919061218e565b60405180910390f35b34801561032257600080fd5b5061033d60048036038101906103389190612333565b610b3c565b60405161034a9190611f58565b60405180910390f35b34801561035f57600080fd5b50610368610bf3565b604051610375919061218e565b60405180910390f35b34801561038a57600080fd5b50610393610c19565b6040516103a091906120d2565b60405180910390f35b6103c360048036038101906103be9190612120565b610cab565b005b3480156103d157600080fd5b506103ec60048036038101906103e79190612495565b610de8565b005b3480156103fa57600080fd5b506104156004803603810190610410919061251d565b610ef5565b005b34801561042357600080fd5b5061043e600480360381019061043991906125fe565b610f0b565b005b34801561044c57600080fd5b5061046760048036038101906104629190612681565b610f6d565b6040516104749190612027565b60405180910390f35b34801561048957600080fd5b506104a4600480360381019061049f9190612120565b610f9c565b6040516104b191906120d2565b60405180910390f35b3480156104c657600080fd5b506104cf611004565b6040516104dc9190611f58565b60405180910390f35b3480156104f157600080fd5b5061050c60048036038101906105079190612120565b61100a565b60405161051b939291906126c1565b60405180910390f35b34801561053057600080fd5b5061054b600480360381019061054691906126ff565b6110bc565b6040516105589190612027565b60405180910390f35b60085481565b60007f80ac58cd000000000000000000000000000000000000000000000000000000007bffffffffffffffffffffffffffffffffffffffffffffffffffffffff1916827bffffffffffffffffffffffffffffffffffffffffffffffffffffffff1916148061063257507f5b5e139f000000000000000000000000000000000000000000000000000000007bffffffffffffffffffffffffffffffffffffffffffffffffffffffff1916827bffffffffffffffffffffffffffffffffffffffffffffffffffffffff1916145b80610642575061064182611150565b5b9050919050565b6060600080546106589061276e565b80601f01602080910402602001604051908101604052809291908181526020018280546106849061276e565b80156106d15780601f106106a6576101008083540402835291602001916106d1565b820191906000526020600020905b8154815290600101906020018083116106b457829003601f168201915b5050505050905090565b60006106e6826111ba565b6004600083815260200190815260200160002060009054906101000a900473ffffffffffffffffffffffffffffffffffffffff169050919050565b600061072c82610ab6565b90508073ffffffffffffffffffffffffffffffffffffffff168373ffffffffffffffffffffffffffffffffffffffff160361079c576040517f08c379a000000000000000000000000000000000000000000000000000000000815260040161079390612811565b60405180910390fd5b8073ffffffffffffffffffffffffffffffffffffffff166107bb611205565b73ffffffffffffffffffffffffffffffffffffffff1614806107ea57506107e9816107e4611205565b6110bc565b5b610829576040517f08c379a0000000000000000000000000000000000000000000000000000000008152600401610820906128a3565b60405180910390fd5b610833838361120d565b505050565b610840611f1e565b60096000838152602001908152602001600020604051806060016040529081600082015481526020016001820180546108789061276e565b80601f01602080910402602001604051908101604052809291908181526020018280546108a49061276e565b80156108f15780601f106108c6576101008083540402835291602001916108f1565b820191906000526020600020905b8154815290600101906020018083116108d457829003601f168201915b505050505081526020016002820154815250509050919050565b61091c610916611205565b826112c6565b61095b576040517f08c379a000000000000000000000000000000000000000000000000000000000815260040161095290612935565b60405180910390fd5b61096683838361135b565b505050565b600660009054906101000a900473ffffffffffffffffffffffffffffffffffffffff1673ffffffffffffffffffffffffffffffffffffffff163373ffffffffffffffffffffffffffffffffffffffff16146109fb576040517f08c379a00000000000000000000000000000000000000000000000000000000081526004016109f2906129a1565b60405180910390fd5b6000600660009054906101000a900473ffffffffffffffffffffffffffffffffffffffff1673ffffffffffffffffffffffffffffffffffffffff1647604051610a43906129f2565b60006040518083038185875af1925050503d8060008114610a80576040519150601f19603f3d011682016040523d82523d6000602084013e610a85565b606091505b5050905080610a9357600080fd5b50565b610ab183838360405180602001604052806000815250610f0b565b505050565b600080610ac283611654565b9050600073ffffffffffffffffffffffffffffffffffffffff168173ffffffffffffffffffffffffffffffffffffffff1603610b33576040517f08c379a0000000000000000000000000000000000000000000000000000000008152600401610b2a90612a53565b60405180910390fd5b80915050919050565b60008073ffffffffffffffffffffffffffffffffffffffff168273ffffffffffffffffffffffffffffffffffffffff1603610bac576040517f08c379a0000000000000000000000000000000000000000000000000000000008152600401610ba390612ae5565b60405180910390fd5b600360008373ffffffffffffffffffffffffffffffffffffffff1673ffffffffffffffffffffffffffffffffffffffff168152602001908152602001600020549050919050565b600660009054906101000a900473ffffffffffffffffffffffffffffffffffffffff1681565b606060018054610c289061276e565b80601f0160208091040260200160405190810160405280929190818152602001828054610c549061276e565b8015610ca15780601f10610c7657610100808354040283529160200191610ca1565b820191906000526020600020905b815481529060010190602001808311610c8457829003601f168201915b5050505050905090565b60008103610cb857600080fd5b600754811115610cc757600080fd5b60001515600a600083815260200190815260200160002060003373ffffffffffffffffffffffffffffffffffffffff1673ffffffffffffffffffffffffffffffffffffffff16815260200190815260200160002060009054906101000a900460ff16151514610d3557600080fd5b6009600082815260200190815260200160002060020154341015610d5857600080fd5b6001600a600083815260200190815260200160002060003373ffffffffffffffffffffffffffffffffffffffff1673ffffffffffffffffffffffffffffffffffffffff16815260200190815260200160002060006101000a81548160ff02191690831515021790555060086000815480929190610dd490612b34565b9190505550610de533600854611691565b50565b600660009054906101000a900473ffffffffffffffffffffffffffffffffffffffff1673ffffffffffffffffffffffffffffffffffffffff163373ffffffffffffffffffffffffffffffffffffffff1614610e78576040517f08c379a0000000000000000000000000000000000000000000000000000000008152600401610e6f906129a1565b60405180910390fd5b600160076000828254610e8b9190612b7c565b925050819055506040518060600160405280600754815260200183815260200182815250600960006007548152602001908152602001600020600082015181600001556020820151816001019081610ee39190612d5c565b50604082015181600201559050505050565b610f07610f00611205565b83836116af565b5050565b610f1c610f16611205565b836112c6565b610f5b576040517f08c379a0000000000000000000000000000000000000000000000000000000008152600401610f5290612935565b60405180910390fd5b610f678484848461181b565b50505050565b600a6020528160005260406000206020528060005260406000206000915091509054906101000a900460ff1681565b6060610fa7826111ba565b6000610fb1611877565b90506000815111610fd15760405180602001604052806000815250610ffc565b80610fdb8461188e565b604051602001610fec929190612e6a565b6040516020818303038152906040525b915050919050565b60075481565b60096020528060005260406000206000915090508060000154908060010180546110339061276e565b80601f016020809104026020016040519081016040528092919081815260200182805461105f9061276e565b80156110ac5780601f10611081576101008083540402835291602001916110ac565b820191906000526020600020905b81548152906001019060200180831161108f57829003601f168201915b5050505050908060020154905083565b6000600560008473ffffffffffffffffffffffffffffffffffffffff1673ffffffffffffffffffffffffffffffffffffffff16815260200190815260200160002060008373ffffffffffffffffffffffffffffffffffffffff1673ffffffffffffffffffffffffffffffffffffffff16815260200190815260200160002060009054906101000a900460ff16905092915050565b60007f01ffc9a7000000000000000000000000000000000000000000000000000000007bffffffffffffffffffffffffffffffffffffffffffffffffffffffff1916827bffffffffffffffffffffffffffffffffffffffffffffffffffffffff1916149050919050565b6111c38161195c565b611202576040517f08c379a00000000000000000000000000000000000000000000000000000000081526004016111f990612a53565b60405180910390fd5b50565b600033905090565b816004600083815260200190815260200160002060006101000a81548173ffffffffffffffffffffffffffffffffffffffff021916908373ffffffffffffffffffffffffffffffffffffffff160217905550808273ffffffffffffffffffffffffffffffffffffffff1661128083610ab6565b73ffffffffffffffffffffffffffffffffffffffff167f8c5be1e5ebec7d5bd14f71427d1e84f3dd0314c0f7b2291e5b200ac8c7c3b92560405160405180910390a45050565b6000806112d283610ab6565b90508073ffffffffffffffffffffffffffffffffffffffff168473ffffffffffffffffffffffffffffffffffffffff161480611314575061131381856110bc565b5b8061135257508373ffffffffffffffffffffffffffffffffffffffff1661133a846106db565b73ffffffffffffffffffffffffffffffffffffffff16145b91505092915050565b8273ffffffffffffffffffffffffffffffffffffffff1661137b82610ab6565b73ffffffffffffffffffffffffffffffffffffffff16146113d1576040517f08c379a00000000000000000000000000000000000000000000000000000000081526004016113c890612f00565b60405180910390fd5b600073ffffffffffffffffffffffffffffffffffffffff168273ffffffffffffffffffffffffffffffffffffffff1603611440576040517f08c379a000000000000000000000000000000000000000000000000000000000815260040161143790612f92565b60405180910390fd5b61144d838383600161199d565b8273ffffffffffffffffffffffffffffffffffffffff1661146d82610ab6565b73ffffffffffffffffffffffffffffffffffffffff16146114c3576040517f08c379a00000000000000000000000000000000000000000000000000000000081526004016114ba90612f00565b60405180910390fd5b6004600082815260200190815260200160002060006101000a81549073ffffffffffffffffffffffffffffffffffffffff02191690556001600360008573ffffffffffffffffffffffffffffffffffffffff1673ffffffffffffffffffffffffffffffffffffffff168152602001908152602001600020600082825403925050819055506001600360008473ffffffffffffffffffffffffffffffffffffffff1673ffffffffffffffffffffffffffffffffffffffff16815260200190815260200160002060008282540192505081905550816002600083815260200190815260200160002060006101000a81548173ffffffffffffffffffffffffffffffffffffffff021916908373ffffffffffffffffffffffffffffffffffffffff160217905550808273ffffffffffffffffffffffffffffffffffffffff168473ffffffffffffffffffffffffffffffffffffffff167fddf252ad1be2c89b69c2b068fc378daa952ba7f163c4a11628f55a4df523b3ef60405160405180910390a461164f83838360016119a3565b505050565b60006002600083815260200190815260200160002060009054906101000a900473ffffffffffffffffffffffffffffffffffffffff169050919050565b6116ab8282604051806020016040528060008152506119a9565b5050565b8173ffffffffffffffffffffffffffffffffffffffff168373ffffffffffffffffffffffffffffffffffffffff160361171d576040517f08c379a000000000000000000000000000000000000000000000000000000000815260040161171490612ffe565b60405180910390fd5b80600560008573ffffffffffffffffffffffffffffffffffffffff1673ffffffffffffffffffffffffffffffffffffffff16815260200190815260200160002060008473ffffffffffffffffffffffffffffffffffffffff1673ffffffffffffffffffffffffffffffffffffffff16815260200190815260200160002060006101000a81548160ff0219169083151502179055508173ffffffffffffffffffffffffffffffffffffffff168373ffffffffffffffffffffffffffffffffffffffff167f17307eab39ab6107e8899845ad3d59bd9653f200f220920489ca2b5937696c318360405161180e9190612027565b60405180910390a3505050565b61182684848461135b565b61183284848484611a04565b611871576040517f08c379a000000000000000000000000000000000000000000000000000000000815260040161186890613090565b60405180910390fd5b50505050565b606060405180602001604052806000815250905090565b60606000600161189d84611b8b565b01905060008167ffffffffffffffff8111156118bc576118bb61236a565b5b6040519080825280601f01601f1916602001820160405280156118ee5781602001600182028036833780820191505090505b509050600082602001820190505b600115611951578080600190039150507f3031323334353637383961626364656600000000000000000000000000000000600a86061a8153600a8581611945576119446130b0565b5b049450600085036118fc575b819350505050919050565b60008073ffffffffffffffffffffffffffffffffffffffff1661197e83611654565b73ffffffffffffffffffffffffffffffffffffffff1614159050919050565b50505050565b50505050565b6119b38383611cde565b6119c06000848484611a04565b6119ff576040517f08c379a00000000000000000000000000000000000000000000000000000000081526004016119f690613090565b60405180910390fd5b505050565b6000611a258473ffffffffffffffffffffffffffffffffffffffff16611efb565b15611b7e578373ffffffffffffffffffffffffffffffffffffffff1663150b7a02611a4e611205565b8786866040518563ffffffff1660e01b8152600401611a709493929190613134565b6020604051808303816000875af1925050508015611aac57506040513d601f19601f82011682018060405250810190611aa99190613195565b60015b611b2e573d8060008114611adc576040519150601f19603f3d011682016040523d82523d6000602084013e611ae1565b606091505b506000815103611b26576040517f08c379a0000000000000000000000000000000000000000000000000000000008152600401611b1d90613090565b60405180910390fd5b805181602001fd5b63150b7a0260e01b7bffffffffffffffffffffffffffffffffffffffffffffffffffffffff1916817bffffffffffffffffffffffffffffffffffffffffffffffffffffffff191614915050611b83565b600190505b949350505050565b600080600090507a184f03e93ff9f4daa797ed6e38ed64bf6a1f0100000000000000008310611be9577a184f03e93ff9f4daa797ed6e38ed64bf6a1f0100000000000000008381611bdf57611bde6130b0565b5b0492506040810190505b6d04ee2d6d415b85acef81000000008310611c26576d04ee2d6d415b85acef81000000008381611c1c57611c1b6130b0565b5b0492506020810190505b662386f26fc100008310611c5557662386f26fc100008381611c4b57611c4a6130b0565b5b0492506010810190505b6305f5e1008310611c7e576305f5e1008381611c7457611c736130b0565b5b0492506008810190505b6127108310611ca3576127108381611c9957611c986130b0565b5b0492506004810190505b60648310611cc65760648381611cbc57611cbb6130b0565b5b0492506002810190505b600a8310611cd5576001810190505b80915050919050565b600073ffffffffffffffffffffffffffffffffffffffff168273ffffffffffffffffffffffffffffffffffffffff1603611d4d576040517f08c379a0000000000000000000000000000000000000000000000000000000008152600401611d449061320e565b60405180910390fd5b611d568161195c565b15611d96576040517f08c379a0000000000000000000000000000000000000000000000000000000008152600401611d8d9061327a565b60405180910390fd5b611da460008383600161199d565b611dad8161195c565b15611ded576040517f08c379a0000000000000000000000000000000000000000000000000000000008152600401611de49061327a565b60405180910390fd5b6001600360008473ffffffffffffffffffffffffffffffffffffffff1673ffffffffffffffffffffffffffffffffffffffff16815260200190815260200160002060008282540192505081905550816002600083815260200190815260200160002060006101000a81548173ffffffffffffffffffffffffffffffffffffffff021916908373ffffffffffffffffffffffffffffffffffffffff160217905550808273ffffffffffffffffffffffffffffffffffffffff16600073ffffffffffffffffffffffffffffffffffffffff167fddf252ad1be2c89b69c2b068fc378daa952ba7f163c4a11628f55a4df523b3ef60405160405180910390a4611ef76000838360016119a3565b5050565b6000808273ffffffffffffffffffffffffffffffffffffffff163b119050919050565b60405180606001604052806000815260200160608152602001600081525090565b6000819050919050565b611f5281611f3f565b82525050565b6000602082019050611f6d6000830184611f49565b92915050565b6000604051905090565b600080fd5b600080fd5b60007fffffffff0000000000000000000000000000000000000000000000000000000082169050919050565b611fbc81611f87565b8114611fc757600080fd5b50565b600081359050611fd981611fb3565b92915050565b600060208284031215611ff557611ff4611f7d565b5b600061200384828501611fca565b91505092915050565b60008115159050919050565b6120218161200c565b82525050565b600060208201905061203c6000830184612018565b92915050565b600081519050919050565b600082825260208201905092915050565b60005b8381101561207c578082015181840152602081019050612061565b60008484015250505050565b6000601f19601f8301169050919050565b60006120a482612042565b6120ae818561204d565b93506120be81856020860161205e565b6120c781612088565b840191505092915050565b600060208201905081810360008301526120ec8184612099565b905092915050565b6120fd81611f3f565b811461210857600080fd5b50565b60008135905061211a816120f4565b92915050565b60006020828403121561213657612135611f7d565b5b60006121448482850161210b565b91505092915050565b600073ffffffffffffffffffffffffffffffffffffffff82169050919050565b60006121788261214d565b9050919050565b6121888161216d565b82525050565b60006020820190506121a3600083018461217f565b92915050565b6121b28161216d565b81146121bd57600080fd5b50565b6000813590506121cf816121a9565b92915050565b600080604083850312156121ec576121eb611f7d565b5b60006121fa858286016121c0565b925050602061220b8582860161210b565b9150509250929050565b61221e81611f3f565b82525050565b600082825260208201905092915050565b600061224082612042565b61224a8185612224565b935061225a81856020860161205e565b61226381612088565b840191505092915050565b60006060830160008301516122866000860182612215565b506020830151848203602086015261229e8282612235565b91505060408301516122b36040860182612215565b508091505092915050565b600060208201905081810360008301526122d8818461226e565b905092915050565b6000806000606084860312156122f9576122f8611f7d565b5b6000612307868287016121c0565b9350506020612318868287016121c0565b92505060406123298682870161210b565b9150509250925092565b60006020828403121561234957612348611f7d565b5b6000612357848285016121c0565b91505092915050565b600080fd5b600080fd5b7f4e487b7100000000000000000000000000000000000000000000000000000000600052604160045260246000fd5b6123a282612088565b810181811067ffffffffffffffff821117156123c1576123c061236a565b5b80604052505050565b60006123d4611f73565b90506123e08282612399565b919050565b600067ffffffffffffffff821115612400576123ff61236a565b5b61240982612088565b9050602081019050919050565b82818337600083830152505050565b6000612438612433846123e5565b6123ca565b90508281526020810184848401111561245457612453612365565b5b61245f848285612416565b509392505050565b600082601f83011261247c5761247b612360565b5b813561248c848260208601612425565b91505092915050565b600080604083850312156124ac576124ab611f7d565b5b600083013567ffffffffffffffff8111156124ca576124c9611f82565b5b6124d685828601612467565b92505060206124e78582860161210b565b9150509250929050565b6124fa8161200c565b811461250557600080fd5b50565b600081359050612517816124f1565b92915050565b6000806040838503121561253457612533611f7d565b5b6000612542858286016121c0565b925050602061255385828601612508565b9150509250929050565b600067ffffffffffffffff8211156125785761257761236a565b5b61258182612088565b9050602081019050919050565b60006125a161259c8461255d565b6123ca565b9050828152602081018484840111156125bd576125bc612365565b5b6125c8848285612416565b509392505050565b600082601f8301126125e5576125e4612360565b5b81356125f584826020860161258e565b91505092915050565b6000806000806080858703121561261857612617611f7d565b5b6000612626878288016121c0565b9450506020612637878288016121c0565b93505060406126488782880161210b565b925050606085013567ffffffffffffffff81111561266957612668611f82565b5b612675878288016125d0565b91505092959194509250565b6000806040838503121561269857612697611f7d565b5b60006126a68582860161210b565b92505060206126b7858286016121c0565b9150509250929050565b60006060820190506126d66000830186611f49565b81810360208301526126e88185612099565b90506126f76040830184611f49565b949350505050565b6000806040838503121561271657612715611f7d565b5b6000612724858286016121c0565b9250506020612735858286016121c0565b9150509250929050565b7f4e487b7100000000000000000000000000000000000000000000000000000000600052602260045260246000fd5b6000600282049050600182168061278657607f821691505b6020821081036127995761279861273f565b5b50919050565b7f4552433732313a20617070726f76616c20746f2063757272656e74206f776e6560008201527f7200000000000000000000000000000000000000000000000000000000000000602082015250565b60006127fb60218361204d565b91506128068261279f565b604082019050919050565b6000602082019050818103600083015261282a816127ee565b9050919050565b7f4552433732313a20617070726f76652063616c6c6572206973206e6f7420746f60008201527f6b656e206f776e6572206f7220617070726f76656420666f7220616c6c000000602082015250565b600061288d603d8361204d565b915061289882612831565b604082019050919050565b600060208201905081810360008301526128bc81612880565b9050919050565b7f4552433732313a2063616c6c6572206973206e6f7420746f6b656e206f776e6560008201527f72206f7220617070726f76656400000000000000000000000000000000000000602082015250565b600061291f602d8361204d565b915061292a826128c3565b604082019050919050565b6000602082019050818103600083015261294e81612912565b9050919050565b7f4552433732313a204e6f74206f776e6572206f66206368616e6e656c21000000600082015250565b600061298b601d8361204d565b915061299682612955565b602082019050919050565b600060208201905081810360008301526129ba8161297e565b9050919050565b600081905092915050565b50565b60006129dc6000836129c1565b91506129e7826129cc565b600082019050919050565b60006129fd826129cf565b9150819050919050565b7f4552433732313a20696e76616c696420746f6b656e2049440000000000000000600082015250565b6000612a3d60188361204d565b9150612a4882612a07565b602082019050919050565b60006020820190508181036000830152612a6c81612a30565b9050919050565b7f4552433732313a2061646472657373207a65726f206973206e6f74206120766160008201527f6c6964206f776e65720000000000000000000000000000000000000000000000602082015250565b6000612acf60298361204d565b9150612ada82612a73565b604082019050919050565b60006020820190508181036000830152612afe81612ac2565b9050919050565b7f4e487b7100000000000000000000000000000000000000000000000000000000600052601160045260246000fd5b6000612b3f82611f3f565b91507fffffffffffffffffffffffffffffffffffffffffffffffffffffffffffffffff8203612b7157612b70612b05565b5b600182019050919050565b6000612b8782611f3f565b9150612b9283611f3f565b9250828201905080821115612baa57612ba9612b05565b5b92915050565b60008190508160005260206000209050919050565b60006020601f8301049050919050565b600082821b905092915050565b600060088302612c127fffffffffffffffffffffffffffffffffffffffffffffffffffffffffffffffff82612bd5565b612c1c8683612bd5565b95508019841693508086168417925050509392505050565b6000819050919050565b6000612c59612c54612c4f84611f3f565b612c34565b611f3f565b9050919050565b6000819050919050565b612c7383612c3e565b612c87612c7f82612c60565b848454612be2565b825550505050565b600090565b612c9c612c8f565b612ca7818484612c6a565b505050565b5b81811015612ccb57612cc0600082612c94565b600181019050612cad565b5050565b601f821115612d1057612ce181612bb0565b612cea84612bc5565b81016020851015612cf9578190505b612d0d612d0585612bc5565b830182612cac565b50505b505050565b600082821c905092915050565b6000612d3360001984600802612d15565b1980831691505092915050565b6000612d4c8383612d22565b9150826002028217905092915050565b612d6582612042565b67ffffffffffffffff811115612d7e57612d7d61236a565b5b612d88825461276e565b612d93828285612ccf565b600060209050601f831160018114612dc65760008415612db4578287015190505b612dbe8582612d40565b865550612e26565b601f198416612dd486612bb0565b60005b82811015612dfc57848901518255600182019150602085019450602081019050612dd7565b86831015612e195784890151612e15601f891682612d22565b8355505b6001600288020188555050505b505050505050565b600081905092915050565b6000612e4482612042565b612e4e8185612e2e565b9350612e5e81856020860161205e565b80840191505092915050565b6000612e768285612e39565b9150612e828284612e39565b91508190509392505050565b7f4552433732313a207472616e736665722066726f6d20696e636f72726563742060008201527f6f776e6572000000000000000000000000000000000000000000000000000000602082015250565b6000612eea60258361204d565b9150612ef582612e8e565b604082019050919050565b60006020820190508181036000830152612f1981612edd565b9050919050565b7f4552433732313a207472616e7366657220746f20746865207a65726f2061646460008201527f7265737300000000000000000000000000000000000000000000000000000000602082015250565b6000612f7c60248361204d565b9150612f8782612f20565b604082019050919050565b60006020820190508181036000830152612fab81612f6f565b9050919050565b7f4552433732313a20617070726f766520746f2063616c6c657200000000000000600082015250565b6000612fe860198361204d565b9150612ff382612fb2565b602082019050919050565b6000602082019050818103600083015261301781612fdb565b9050919050565b7f4552433732313a207472616e7366657220746f206e6f6e20455243373231526560008201527f63656976657220696d706c656d656e7465720000000000000000000000000000602082015250565b600061307a60328361204d565b91506130858261301e565b604082019050919050565b600060208201905081810360008301526130a98161306d565b9050919050565b7f4e487b7100000000000000000000000000000000000000000000000000000000600052601260045260246000fd5b600081519050919050565b600082825260208201905092915050565b6000613106826130df565b61311081856130ea565b935061312081856020860161205e565b61312981612088565b840191505092915050565b6000608082019050613149600083018761217f565b613156602083018661217f565b6131636040830185611f49565b818103606083015261317581846130fb565b905095945050505050565b60008151905061318f81611fb3565b92915050565b6000602082840312156131ab576131aa611f7d565b5b60006131b984828501613180565b91505092915050565b7f4552433732313a206d696e7420746f20746865207a65726f2061646472657373600082015250565b60006131f860208361204d565b9150613203826131c2565b602082019050919050565b60006020820190508181036000830152613227816131eb565b9050919050565b7f4552433732313a20746f6b656e20616c7265616479206d696e74656400000000600082015250565b6000613264601c8361204d565b915061326f8261322e565b602082019050919050565b6000602082019050818103600083015261329381613257565b905091905056fea2646970667358221220cd33bd33fbbf97fbc18906ccd42413898f56194dd4ca7decbe50eab2f37f76bf64736f6c63430008120033",
    "linkReferences": {},
    "deployedLinkReferences": {}
}