{
  "_format": "hh-sol-artifact-1",
  "contractName": "DecentDisc",
  "sourceName": "contracts/DecentDisc.sol",
  "abi": [
    {
      "inputs": [
        {
          "internalType": "string",
          "name": "name",
          "type": "string"
        },
        {
          "internalType": "string",
          "name": "symbol",
          "type": "string"
        }
      ],
      "stateMutability": "nonpayable",
      "type": "constructor"
    },
    {
      "anonymous": false,
      "inputs": [
        {
          "indexed": true,
          "internalType": "address",
          "name": "owner",
          "type": "address"
        },
        {
          "indexed": true,
          "internalType": "address",
          "name": "approved",
          "type": "address"
        },
        {
          "indexed": true,
          "internalType": "uint256",
          "name": "tokenId",
          "type": "uint256"
        }
      ],
      "name": "Approval",
      "type": "event"
    },
    {
      "anonymous": false,
      "inputs": [
        {
          "indexed": true,
          "internalType": "address",
          "name": "owner",
          "type": "address"
        },
        {
          "indexed": true,
          "internalType": "address",
          "name": "operator",
          "type": "address"
        },
        {
          "indexed": false,
          "internalType": "bool",
          "name": "approved",
          "type": "bool"
        }
      ],
      "name": "ApprovalForAll",
      "type": "event"
    },
    {
      "anonymous": false,
      "inputs": [
        {
          "indexed": true,
          "internalType": "address",
          "name": "from",
          "type": "address"
        },
        {
          "indexed": true,
          "internalType": "address",
          "name": "to",
          "type": "address"
        },
        {
          "indexed": true,
          "internalType": "uint256",
          "name": "tokenId",
          "type": "uint256"
        }
      ],
      "name": "Transfer",
      "type": "event"
    },
    {
      "inputs": [
        {
          "internalType": "address",
          "name": "to",
          "type": "address"
        },
        {
          "internalType": "uint256",
          "name": "tokenId",
          "type": "uint256"
        }
      ],
      "name": "approve",
      "outputs": [],
      "stateMutability": "nonpayable",
      "type": "function"
    },
    {
      "inputs": [
        {
          "internalType": "address",
          "name": "owner",
          "type": "address"
        }
      ],
      "name": "balanceOf",
      "outputs": [
        {
          "internalType": "uint256",
          "name": "",
          "type": "uint256"
        }
      ],
      "stateMutability": "view",
      "type": "function"
    },
    {
      "inputs": [],
      "name": "channelNo",
      "outputs": [
        {
          "internalType": "uint256",
          "name": "",
          "type": "uint256"
        }
      ],
      "stateMutability": "view",
      "type": "function"
    },
    {
      "inputs": [
        {
          "internalType": "uint256",
          "name": "",
          "type": "uint256"
        }
      ],
      "name": "channels",
      "outputs": [
        {
          "internalType": "uint256",
          "name": "id",
          "type": "uint256"
        },
        {
          "internalType": "string",
          "name": "name",
          "type": "string"
        },
        {
          "internalType": "uint256",
          "name": "cost",
          "type": "uint256"
        }
      ],
      "stateMutability": "view",
      "type": "function"
    },
    {
      "inputs": [
        {
          "internalType": "string",
          "name": "name",
          "type": "string"
        },
        {
          "internalType": "uint256",
          "name": "cost",
          "type": "uint256"
        }
      ],
      "name": "createChannel",
      "outputs": [],
      "stateMutability": "nonpayable",
      "type": "function"
    },
    {
      "inputs": [
        {
          "internalType": "uint256",
          "name": "tokenId",
          "type": "uint256"
        }
      ],
      "name": "getApproved",
      "outputs": [
        {
          "internalType": "address",
          "name": "",
          "type": "address"
        }
      ],
      "stateMutability": "view",
      "type": "function"
    },
    {
      "inputs": [
        {
          "internalType": "uint256",
          "name": "id",
          "type": "uint256"
        }
      ],
      "name": "getChannel",
      "outputs": [
        {
          "components": [
            {
              "internalType": "uint256",
              "name": "id",
              "type": "uint256"
            },
            {
              "internalType": "string",
              "name": "name",
              "type": "string"
            },
            {
              "internalType": "uint256",
              "name": "cost",
              "type": "uint256"
            }
          ],
          "internalType": "struct DecentDisc.Channel",
          "name": "",
          "type": "tuple"
        }
      ],
      "stateMutability": "view",
      "type": "function"
    },
    {
      "inputs": [
        {
          "internalType": "address",
          "name": "owner",
          "type": "address"
        },
        {
          "internalType": "address",
          "name": "operator",
          "type": "address"
        }
      ],
      "name": "isApprovedForAll",
      "outputs": [
        {
          "internalType": "bool",
          "name": "",
          "type": "bool"
        }
      ],
      "stateMutability": "view",
      "type": "function"
    },
    {
      "inputs": [
        {
          "internalType": "uint256",
          "name": "",
          "type": "uint256"
        },
        {
          "internalType": "address",
          "name": "",
          "type": "address"
        }
      ],
      "name": "joinedChannel",
      "outputs": [
        {
          "internalType": "bool",
          "name": "",
          "type": "bool"
        }
      ],
      "stateMutability": "view",
      "type": "function"
    },
    {
      "inputs": [
        {
          "internalType": "uint256",
          "name": "id",
          "type": "uint256"
        }
      ],
      "name": "mint",
      "outputs": [],
      "stateMutability": "payable",
      "type": "function"
    },
    {
      "inputs": [],
      "name": "mintedNFTs",
      "outputs": [
        {
          "internalType": "uint256",
          "name": "",
          "type": "uint256"
        }
      ],
      "stateMutability": "view",
      "type": "function"
    },
    {
      "inputs": [],
      "name": "name",
      "outputs": [
        {
          "internalType": "string",
          "name": "",
          "type": "string"
        }
      ],
      "stateMutability": "view",
      "type": "function"
    },
    {
      "inputs": [],
      "name": "owner",
      "outputs": [
        {
          "internalType": "address",
          "name": "",
          "type": "address"
        }
      ],
      "stateMutability": "view",
      "type": "function"
    },
    {
      "inputs": [
        {
          "internalType": "uint256",
          "name": "tokenId",
          "type": "uint256"
        }
      ],
      "name": "ownerOf",
      "outputs": [
        {
          "internalType": "address",
          "name": "",
          "type": "address"
        }
      ],
      "stateMutability": "view",
      "type": "function"
    },
    {
      "inputs": [
        {
          "internalType": "address",
          "name": "from",
          "type": "address"
        },
        {
          "internalType": "address",
          "name": "to",
          "type": "address"
        },
        {
          "internalType": "uint256",
          "name": "tokenId",
          "type": "uint256"
        }
      ],
      "name": "safeTransferFrom",
      "outputs": [],
      "stateMutability": "nonpayable",
      "type": "function"
    },
    {
      "inputs": [
        {
          "internalType": "address",
          "name": "from",
          "type": "address"
        },
        {
          "internalType": "address",
          "name": "to",
          "type": "address"
        },
        {
          "internalType": "uint256",
          "name": "tokenId",
          "type": "uint256"
        },
        {
          "internalType": "bytes",
          "name": "data",
          "type": "bytes"
        }
      ],
      "name": "safeTransferFrom",
      "outputs": [],
      "stateMutability": "nonpayable",
      "type": "function"
    },
    {
      "inputs": [
        {
          "internalType": "address",
          "name": "recipient",
          "type": "address"
        },
        {
          "internalType": "uint256",
          "name": "amount",
          "type": "uint256"
        }
      ],
      "name": "sendTokens",
      "outputs": [],
      "stateMutability": "nonpayable",
      "type": "function"
    },
    {
      "inputs": [
        {
          "internalType": "address",
          "name": "operator",
          "type": "address"
        },
        {
          "internalType": "bool",
          "name": "approved",
          "type": "bool"
        }
      ],
      "name": "setApprovalForAll",
      "outputs": [],
      "stateMutability": "nonpayable",
      "type": "function"
    },
    {
      "inputs": [
        {
          "internalType": "bytes4",
          "name": "interfaceId",
          "type": "bytes4"
        }
      ],
      "name": "supportsInterface",
      "outputs": [
        {
          "internalType": "bool",
          "name": "",
          "type": "bool"
        }
      ],
      "stateMutability": "view",
      "type": "function"
    },
    {
      "inputs": [],
      "name": "symbol",
      "outputs": [
        {
          "internalType": "string",
          "name": "",
          "type": "string"
        }
      ],
      "stateMutability": "view",
      "type": "function"
    },
    {
      "inputs": [
        {
          "internalType": "uint256",
          "name": "tokenId",
          "type": "uint256"
        }
      ],
      "name": "tokenURI",
      "outputs": [
        {
          "internalType": "string",
          "name": "",
          "type": "string"
        }
      ],
      "stateMutability": "view",
      "type": "function"
    },
    {
      "inputs": [
        {
          "internalType": "address",
          "name": "from",
          "type": "address"
        },
        {
          "internalType": "address",
          "name": "to",
          "type": "address"
        },
        {
          "internalType": "uint256",
          "name": "tokenId",
          "type": "uint256"
        }
      ],
      "name": "transferFrom",
      "outputs": [],
      "stateMutability": "nonpayable",
      "type": "function"
    },
    {
      "inputs": [],
      "name": "withdraw",
      "outputs": [],
      "stateMutability": "nonpayable",
      "type": "function"
    }
  ],
  "bytecode": "0x60806040523480156200001157600080fd5b5060405162003e8438038062003e8483398181016040528101906200003791906200023b565b818181600090816200004a91906200050b565b5080600190816200005c91906200050b565b50505033600660006101000a81548173ffffffffffffffffffffffffffffffffffffffff021916908373ffffffffffffffffffffffffffffffffffffffff1602179055505050620005f2565b6000604051905090565b600080fd5b600080fd5b600080fd5b600080fd5b6000601f19601f8301169050919050565b7f4e487b7100000000000000000000000000000000000000000000000000000000600052604160045260246000fd5b6200011182620000c6565b810181811067ffffffffffffffff82111715620001335762000132620000d7565b5b80604052505050565b600062000148620000a8565b905062000156828262000106565b919050565b600067ffffffffffffffff821115620001795762000178620000d7565b5b6200018482620000c6565b9050602081019050919050565b60005b83811015620001b157808201518184015260208101905062000194565b60008484015250505050565b6000620001d4620001ce846200015b565b6200013c565b905082815260208101848484011115620001f357620001f2620000c1565b5b6200020084828562000191565b509392505050565b600082601f83011262000220576200021f620000bc565b5b815162000232848260208601620001bd565b91505092915050565b60008060408385031215620002555762000254620000b2565b5b600083015167ffffffffffffffff811115620002765762000275620000b7565b5b620002848582860162000208565b925050602083015167ffffffffffffffff811115620002a857620002a7620000b7565b5b620002b68582860162000208565b9150509250929050565b600081519050919050565b7f4e487b7100000000000000000000000000000000000000000000000000000000600052602260045260246000fd5b600060028204905060018216806200031357607f821691505b602082108103620003295762000328620002cb565b5b50919050565b60008190508160005260206000209050919050565b60006020601f8301049050919050565b600082821b905092915050565b600060088302620003937fffffffffffffffffffffffffffffffffffffffffffffffffffffffffffffffff8262000354565b6200039f868362000354565b95508019841693508086168417925050509392505050565b6000819050919050565b6000819050919050565b6000620003ec620003e6620003e084620003b7565b620003c1565b620003b7565b9050919050565b6000819050919050565b6200040883620003cb565b620004206200041782620003f3565b84845462000361565b825550505050565b600090565b6200043762000428565b62000444818484620003fd565b505050565b5b818110156200046c57620004606000826200042d565b6001810190506200044a565b5050565b601f821115620004bb5762000485816200032f565b620004908462000344565b81016020851015620004a0578190505b620004b8620004af8562000344565b83018262000449565b50505b505050565b600082821c905092915050565b6000620004e060001984600802620004c0565b1980831691505092915050565b6000620004fb8383620004cd565b9150826002028217905092915050565b6200051682620002c0565b67ffffffffffffffff811115620005325762000531620000d7565b5b6200053e8254620002fa565b6200054b82828562000470565b600060209050601f8311600181146200058357600084156200056e578287015190505b6200057a8582620004ed565b865550620005ea565b601f19841662000593866200032f565b60005b82811015620005bd5784890151825560018201915060208501945060208101905062000596565b86831015620005dd5784890151620005d9601f891682620004cd565b8355505b6001600288020188555050505b505050505050565b61388280620006026000396000f3fe6080604052600436106101405760003560e01c806370a08231116100b6578063b88d4fde1161006f578063b88d4fde1461044b578063b9aca4a714610474578063c87b56dd146104b1578063cb8cc583146104ee578063e5949b5d14610519578063e985e9c51461055857610140565b806370a082311461034a5780638da5cb5b1461038757806395d89b41146103b2578063a0712d68146103dd578063a14865cd146103f9578063a22cb4651461042257610140565b8063095ea7b311610108578063095ea7b31461023e57806310df54a01461026757806323b872dd146102a45780633ccfd60b146102cd57806342842e0e146102e45780636352211e1461030d57610140565b8063016776611461014557806301ffc9a71461017057806305ab421d146101ad57806306fdde03146101d6578063081812fc14610201575b600080fd5b34801561015157600080fd5b5061015a610595565b6040516101679190612355565b60405180910390f35b34801561017c57600080fd5b50610197600480360381019061019291906123dc565b61059b565b6040516101a49190612424565b60405180910390f35b3480156101b957600080fd5b506101d460048036038101906101cf91906124c9565b61067d565b005b3480156101e257600080fd5b506101eb610981565b6040516101f89190612599565b60405180910390f35b34801561020d57600080fd5b50610228600480360381019061022391906125bb565b610a13565b60405161023591906125f7565b60405180910390f35b34801561024a57600080fd5b50610265600480360381019061026091906124c9565b610a59565b005b34801561027357600080fd5b5061028e600480360381019061028991906125bb565b610b70565b60405161029b91906126bb565b60405180910390f35b3480156102b057600080fd5b506102cb60048036038101906102c691906126dd565b610c43565b005b3480156102d957600080fd5b506102e2610ca3565b005b3480156102f057600080fd5b5061030b600480360381019061030691906126dd565b610dce565b005b34801561031957600080fd5b50610334600480360381019061032f91906125bb565b610dee565b60405161034191906125f7565b60405180910390f35b34801561035657600080fd5b50610371600480360381019061036c9190612730565b610e74565b60405161037e9190612355565b60405180910390f35b34801561039357600080fd5b5061039c610f2b565b6040516103a991906125f7565b60405180910390f35b3480156103be57600080fd5b506103c7610f51565b6040516103d49190612599565b60405180910390f35b6103f760048036038101906103f291906125bb565b610fe3565b005b34801561040557600080fd5b50610420600480360381019061041b9190612892565b611120565b005b34801561042e57600080fd5b506104496004803603810190610444919061291a565b61122d565b005b34801561045757600080fd5b50610472600480360381019061046d91906129fb565b611243565b005b34801561048057600080fd5b5061049b60048036038101906104969190612a7e565b6112a5565b6040516104a89190612424565b60405180910390f35b3480156104bd57600080fd5b506104d860048036038101906104d391906125bb565b6112d4565b6040516104e59190612599565b60405180910390f35b3480156104fa57600080fd5b5061050361133c565b6040516105109190612355565b60405180910390f35b34801561052557600080fd5b50610540600480360381019061053b91906125bb565b611342565b60405161054f93929190612abe565b60405180910390f35b34801561056457600080fd5b5061057f600480360381019061057a9190612afc565b6113f4565b60405161058c9190612424565b60405180910390f35b60085481565b60007f80ac58cd000000000000000000000000000000000000000000000000000000007bffffffffffffffffffffffffffffffffffffffffffffffffffffffff1916827bffffffffffffffffffffffffffffffffffffffffffffffffffffffff1916148061066657507f5b5e139f000000000000000000000000000000000000000000000000000000007bffffffffffffffffffffffffffffffffffffffffffffffffffffffff1916827bffffffffffffffffffffffffffffffffffffffffffffffffffffffff1916145b80610676575061067582611488565b5b9050919050565b600660009054906101000a900473ffffffffffffffffffffffffffffffffffffffff1673ffffffffffffffffffffffffffffffffffffffff163373ffffffffffffffffffffffffffffffffffffffff161461070d576040517f08c379a000000000000000000000000000000000000000000000000000000000815260040161070490612b88565b60405180910390fd5b6107c56040518060400160405280601181526020017f416464726573732062616c616e63653a200000000000000000000000000000008152503073ffffffffffffffffffffffffffffffffffffffff166370a08231306040518263ffffffff1660e01b815260040161077f91906125f7565b602060405180830381865afa15801561079c573d6000803e3d6000fd5b505050506040513d601f19601f820116820180604052508101906107c09190612bbd565b6114f2565b6108046040518060400160405280601181526020017f416d6f756e7420746f2062652073656e74000000000000000000000000000000815250826114f2565b803073ffffffffffffffffffffffffffffffffffffffff166370a08231306040518263ffffffff1660e01b815260040161083e91906125f7565b602060405180830381865afa15801561085b573d6000803e3d6000fd5b505050506040513d601f19601f8201168201806040525081019061087f9190612bbd565b10156108c0576040517f08c379a00000000000000000000000000000000000000000000000000000000081526004016108b790612c36565b60405180910390fd5b3073ffffffffffffffffffffffffffffffffffffffff1663a9059cbb83836040518363ffffffff1660e01b81526004016108fb929190612c56565b6020604051808303816000875af115801561091a573d6000803e3d6000fd5b505050506040513d601f19601f8201168201806040525081019061093e9190612c94565b61097d576040517f08c379a000000000000000000000000000000000000000000000000000000000815260040161097490612d0d565b60405180910390fd5b5050565b60606000805461099090612d5c565b80601f01602080910402602001604051908101604052809291908181526020018280546109bc90612d5c565b8015610a095780601f106109de57610100808354040283529160200191610a09565b820191906000526020600020905b8154815290600101906020018083116109ec57829003601f168201915b5050505050905090565b6000610a1e8261158e565b6004600083815260200190815260200160002060009054906101000a900473ffffffffffffffffffffffffffffffffffffffff169050919050565b6000610a6482610dee565b90508073ffffffffffffffffffffffffffffffffffffffff168373ffffffffffffffffffffffffffffffffffffffff1603610ad4576040517f08c379a0000000000000000000000000000000000000000000000000000000008152600401610acb90612dff565b60405180910390fd5b8073ffffffffffffffffffffffffffffffffffffffff16610af36115d9565b73ffffffffffffffffffffffffffffffffffffffff161480610b225750610b2181610b1c6115d9565b6113f4565b5b610b61576040517f08c379a0000000000000000000000000000000000000000000000000000000008152600401610b5890612e91565b60405180910390fd5b610b6b83836115e1565b505050565b610b7861231b565b6009600083815260200190815260200160002060405180606001604052908160008201548152602001600182018054610bb090612d5c565b80601f0160208091040260200160405190810160405280929190818152602001828054610bdc90612d5c565b8015610c295780601f10610bfe57610100808354040283529160200191610c29565b820191906000526020600020905b815481529060010190602001808311610c0c57829003601f168201915b505050505081526020016002820154815250509050919050565b610c54610c4e6115d9565b8261169a565b610c93576040517f08c379a0000000000000000000000000000000000000000000000000000000008152600401610c8a90612f23565b60405180910390fd5b610c9e83838361172f565b505050565b600660009054906101000a900473ffffffffffffffffffffffffffffffffffffffff1673ffffffffffffffffffffffffffffffffffffffff163373ffffffffffffffffffffffffffffffffffffffff1614610d33576040517f08c379a0000000000000000000000000000000000000000000000000000000008152600401610d2a90612b88565b60405180910390fd5b6000600660009054906101000a900473ffffffffffffffffffffffffffffffffffffffff1673ffffffffffffffffffffffffffffffffffffffff1647604051610d7b90612f74565b60006040518083038185875af1925050503d8060008114610db8576040519150601f19603f3d011682016040523d82523d6000602084013e610dbd565b606091505b5050905080610dcb57600080fd5b50565b610de983838360405180602001604052806000815250611243565b505050565b600080610dfa83611a28565b9050600073ffffffffffffffffffffffffffffffffffffffff168173ffffffffffffffffffffffffffffffffffffffff1603610e6b576040517f08c379a0000000000000000000000000000000000000000000000000000000008152600401610e6290612fd5565b60405180910390fd5b80915050919050565b60008073ffffffffffffffffffffffffffffffffffffffff168273ffffffffffffffffffffffffffffffffffffffff1603610ee4576040517f08c379a0000000000000000000000000000000000000000000000000000000008152600401610edb90613067565b60405180910390fd5b600360008373ffffffffffffffffffffffffffffffffffffffff1673ffffffffffffffffffffffffffffffffffffffff168152602001908152602001600020549050919050565b600660009054906101000a900473ffffffffffffffffffffffffffffffffffffffff1681565b606060018054610f6090612d5c565b80601f0160208091040260200160405190810160405280929190818152602001828054610f8c90612d5c565b8015610fd95780601f10610fae57610100808354040283529160200191610fd9565b820191906000526020600020905b815481529060010190602001808311610fbc57829003601f168201915b5050505050905090565b60008103610ff057600080fd5b600754811115610fff57600080fd5b60001515600a600083815260200190815260200160002060003373ffffffffffffffffffffffffffffffffffffffff1673ffffffffffffffffffffffffffffffffffffffff16815260200190815260200160002060009054906101000a900460ff1615151461106d57600080fd5b600960008281526020019081526020016000206002015434101561109057600080fd5b6001600a600083815260200190815260200160002060003373ffffffffffffffffffffffffffffffffffffffff1673ffffffffffffffffffffffffffffffffffffffff16815260200190815260200160002060006101000a81548160ff0219169083151502179055506008600081548092919061110c906130b6565b919050555061111d33600854611a65565b50565b600660009054906101000a900473ffffffffffffffffffffffffffffffffffffffff1673ffffffffffffffffffffffffffffffffffffffff163373ffffffffffffffffffffffffffffffffffffffff16146111b0576040517f08c379a00000000000000000000000000000000000000000000000000000000081526004016111a790612b88565b60405180910390fd5b6001600760008282546111c391906130fe565b92505081905550604051806060016040528060075481526020018381526020018281525060096000600754815260200190815260200160002060008201518160000155602082015181600101908161121b91906132de565b50604082015181600201559050505050565b61123f6112386115d9565b8383611a83565b5050565b61125461124e6115d9565b8361169a565b611293576040517f08c379a000000000000000000000000000000000000000000000000000000000815260040161128a90612f23565b60405180910390fd5b61129f84848484611bef565b50505050565b600a6020528160005260406000206020528060005260406000206000915091509054906101000a900460ff1681565b60606112df8261158e565b60006112e9611c4b565b905060008151116113095760405180602001604052806000815250611334565b8061131384611c62565b6040516020016113249291906133ec565b6040516020818303038152906040525b915050919050565b60075481565b600960205280600052604060002060009150905080600001549080600101805461136b90612d5c565b80601f016020809104026020016040519081016040528092919081815260200182805461139790612d5c565b80156113e45780601f106113b9576101008083540402835291602001916113e4565b820191906000526020600020905b8154815290600101906020018083116113c757829003601f168201915b5050505050908060020154905083565b6000600560008473ffffffffffffffffffffffffffffffffffffffff1673ffffffffffffffffffffffffffffffffffffffff16815260200190815260200160002060008373ffffffffffffffffffffffffffffffffffffffff1673ffffffffffffffffffffffffffffffffffffffff16815260200190815260200160002060009054906101000a900460ff16905092915050565b60007f01ffc9a7000000000000000000000000000000000000000000000000000000007bffffffffffffffffffffffffffffffffffffffffffffffffffffffff1916827bffffffffffffffffffffffffffffffffffffffffffffffffffffffff1916149050919050565b61158a8282604051602401611508929190613410565b6040516020818303038152906040527fb60e72cc000000000000000000000000000000000000000000000000000000007bffffffffffffffffffffffffffffffffffffffffffffffffffffffff19166020820180517bffffffffffffffffffffffffffffffffffffffffffffffffffffffff8381831617835250505050611d30565b5050565b61159781611d59565b6115d6576040517f08c379a00000000000000000000000000000000000000000000000000000000081526004016115cd90612fd5565b60405180910390fd5b50565b600033905090565b816004600083815260200190815260200160002060006101000a81548173ffffffffffffffffffffffffffffffffffffffff021916908373ffffffffffffffffffffffffffffffffffffffff160217905550808273ffffffffffffffffffffffffffffffffffffffff1661165483610dee565b73ffffffffffffffffffffffffffffffffffffffff167f8c5be1e5ebec7d5bd14f71427d1e84f3dd0314c0f7b2291e5b200ac8c7c3b92560405160405180910390a45050565b6000806116a683610dee565b90508073ffffffffffffffffffffffffffffffffffffffff168473ffffffffffffffffffffffffffffffffffffffff1614806116e857506116e781856113f4565b5b8061172657508373ffffffffffffffffffffffffffffffffffffffff1661170e84610a13565b73ffffffffffffffffffffffffffffffffffffffff16145b91505092915050565b8273ffffffffffffffffffffffffffffffffffffffff1661174f82610dee565b73ffffffffffffffffffffffffffffffffffffffff16146117a5576040517f08c379a000000000000000000000000000000000000000000000000000000000815260040161179c906134b2565b60405180910390fd5b600073ffffffffffffffffffffffffffffffffffffffff168273ffffffffffffffffffffffffffffffffffffffff1603611814576040517f08c379a000000000000000000000000000000000000000000000000000000000815260040161180b90613544565b60405180910390fd5b6118218383836001611d9a565b8273ffffffffffffffffffffffffffffffffffffffff1661184182610dee565b73ffffffffffffffffffffffffffffffffffffffff1614611897576040517f08c379a000000000000000000000000000000000000000000000000000000000815260040161188e906134b2565b60405180910390fd5b6004600082815260200190815260200160002060006101000a81549073ffffffffffffffffffffffffffffffffffffffff02191690556001600360008573ffffffffffffffffffffffffffffffffffffffff1673ffffffffffffffffffffffffffffffffffffffff168152602001908152602001600020600082825403925050819055506001600360008473ffffffffffffffffffffffffffffffffffffffff1673ffffffffffffffffffffffffffffffffffffffff16815260200190815260200160002060008282540192505081905550816002600083815260200190815260200160002060006101000a81548173ffffffffffffffffffffffffffffffffffffffff021916908373ffffffffffffffffffffffffffffffffffffffff160217905550808273ffffffffffffffffffffffffffffffffffffffff168473ffffffffffffffffffffffffffffffffffffffff167fddf252ad1be2c89b69c2b068fc378daa952ba7f163c4a11628f55a4df523b3ef60405160405180910390a4611a238383836001611da0565b505050565b60006002600083815260200190815260200160002060009054906101000a900473ffffffffffffffffffffffffffffffffffffffff169050919050565b611a7f828260405180602001604052806000815250611da6565b5050565b8173ffffffffffffffffffffffffffffffffffffffff168373ffffffffffffffffffffffffffffffffffffffff1603611af1576040517f08c379a0000000000000000000000000000000000000000000000000000000008152600401611ae8906135b0565b60405180910390fd5b80600560008573ffffffffffffffffffffffffffffffffffffffff1673ffffffffffffffffffffffffffffffffffffffff16815260200190815260200160002060008473ffffffffffffffffffffffffffffffffffffffff1673ffffffffffffffffffffffffffffffffffffffff16815260200190815260200160002060006101000a81548160ff0219169083151502179055508173ffffffffffffffffffffffffffffffffffffffff168373ffffffffffffffffffffffffffffffffffffffff167f17307eab39ab6107e8899845ad3d59bd9653f200f220920489ca2b5937696c3183604051611be29190612424565b60405180910390a3505050565b611bfa84848461172f565b611c0684848484611e01565b611c45576040517f08c379a0000000000000000000000000000000000000000000000000000000008152600401611c3c90613642565b60405180910390fd5b50505050565b606060405180602001604052806000815250905090565b606060006001611c7184611f88565b01905060008167ffffffffffffffff811115611c9057611c8f612767565b5b6040519080825280601f01601f191660200182016040528015611cc25781602001600182028036833780820191505090505b509050600082602001820190505b600115611d25578080600190039150507f3031323334353637383961626364656600000000000000000000000000000000600a86061a8153600a8581611d1957611d18613662565b5b04945060008503611cd0575b819350505050919050565b60008151905060006a636f6e736f6c652e6c6f679050602083016000808483855afa5050505050565b60008073ffffffffffffffffffffffffffffffffffffffff16611d7b83611a28565b73ffffffffffffffffffffffffffffffffffffffff1614159050919050565b50505050565b50505050565b611db083836120db565b611dbd6000848484611e01565b611dfc576040517f08c379a0000000000000000000000000000000000000000000000000000000008152600401611df390613642565b60405180910390fd5b505050565b6000611e228473ffffffffffffffffffffffffffffffffffffffff166122f8565b15611f7b578373ffffffffffffffffffffffffffffffffffffffff1663150b7a02611e4b6115d9565b8786866040518563ffffffff1660e01b8152600401611e6d94939291906136e6565b6020604051808303816000875af1925050508015611ea957506040513d601f19601f82011682018060405250810190611ea69190613747565b60015b611f2b573d8060008114611ed9576040519150601f19603f3d011682016040523d82523d6000602084013e611ede565b606091505b506000815103611f23576040517f08c379a0000000000000000000000000000000000000000000000000000000008152600401611f1a90613642565b60405180910390fd5b805181602001fd5b63150b7a0260e01b7bffffffffffffffffffffffffffffffffffffffffffffffffffffffff1916817bffffffffffffffffffffffffffffffffffffffffffffffffffffffff191614915050611f80565b600190505b949350505050565b600080600090507a184f03e93ff9f4daa797ed6e38ed64bf6a1f0100000000000000008310611fe6577a184f03e93ff9f4daa797ed6e38ed64bf6a1f0100000000000000008381611fdc57611fdb613662565b5b0492506040810190505b6d04ee2d6d415b85acef81000000008310612023576d04ee2d6d415b85acef8100000000838161201957612018613662565b5b0492506020810190505b662386f26fc10000831061205257662386f26fc10000838161204857612047613662565b5b0492506010810190505b6305f5e100831061207b576305f5e100838161207157612070613662565b5b0492506008810190505b61271083106120a057612710838161209657612095613662565b5b0492506004810190505b606483106120c357606483816120b9576120b8613662565b5b0492506002810190505b600a83106120d2576001810190505b80915050919050565b600073ffffffffffffffffffffffffffffffffffffffff168273ffffffffffffffffffffffffffffffffffffffff160361214a576040517f08c379a0000000000000000000000000000000000000000000000000000000008152600401612141906137c0565b60405180910390fd5b61215381611d59565b15612193576040517f08c379a000000000000000000000000000000000000000000000000000000000815260040161218a9061382c565b60405180910390fd5b6121a1600083836001611d9a565b6121aa81611d59565b156121ea576040517f08c379a00000000000000000000000000000000000000000000000000000000081526004016121e19061382c565b60405180910390fd5b6001600360008473ffffffffffffffffffffffffffffffffffffffff1673ffffffffffffffffffffffffffffffffffffffff16815260200190815260200160002060008282540192505081905550816002600083815260200190815260200160002060006101000a81548173ffffffffffffffffffffffffffffffffffffffff021916908373ffffffffffffffffffffffffffffffffffffffff160217905550808273ffffffffffffffffffffffffffffffffffffffff16600073ffffffffffffffffffffffffffffffffffffffff167fddf252ad1be2c89b69c2b068fc378daa952ba7f163c4a11628f55a4df523b3ef60405160405180910390a46122f4600083836001611da0565b5050565b6000808273ffffffffffffffffffffffffffffffffffffffff163b119050919050565b60405180606001604052806000815260200160608152602001600081525090565b6000819050919050565b61234f8161233c565b82525050565b600060208201905061236a6000830184612346565b92915050565b6000604051905090565b600080fd5b600080fd5b60007fffffffff0000000000000000000000000000000000000000000000000000000082169050919050565b6123b981612384565b81146123c457600080fd5b50565b6000813590506123d6816123b0565b92915050565b6000602082840312156123f2576123f161237a565b5b6000612400848285016123c7565b91505092915050565b60008115159050919050565b61241e81612409565b82525050565b60006020820190506124396000830184612415565b92915050565b600073ffffffffffffffffffffffffffffffffffffffff82169050919050565b600061246a8261243f565b9050919050565b61247a8161245f565b811461248557600080fd5b50565b60008135905061249781612471565b92915050565b6124a68161233c565b81146124b157600080fd5b50565b6000813590506124c38161249d565b92915050565b600080604083850312156124e0576124df61237a565b5b60006124ee85828601612488565b92505060206124ff858286016124b4565b9150509250929050565b600081519050919050565b600082825260208201905092915050565b60005b83811015612543578082015181840152602081019050612528565b60008484015250505050565b6000601f19601f8301169050919050565b600061256b82612509565b6125758185612514565b9350612585818560208601612525565b61258e8161254f565b840191505092915050565b600060208201905081810360008301526125b38184612560565b905092915050565b6000602082840312156125d1576125d061237a565b5b60006125df848285016124b4565b91505092915050565b6125f18161245f565b82525050565b600060208201905061260c60008301846125e8565b92915050565b61261b8161233c565b82525050565b600082825260208201905092915050565b600061263d82612509565b6126478185612621565b9350612657818560208601612525565b6126608161254f565b840191505092915050565b60006060830160008301516126836000860182612612565b506020830151848203602086015261269b8282612632565b91505060408301516126b06040860182612612565b508091505092915050565b600060208201905081810360008301526126d5818461266b565b905092915050565b6000806000606084860312156126f6576126f561237a565b5b600061270486828701612488565b935050602061271586828701612488565b9250506040612726868287016124b4565b9150509250925092565b6000602082840312156127465761274561237a565b5b600061275484828501612488565b91505092915050565b600080fd5b600080fd5b7f4e487b7100000000000000000000000000000000000000000000000000000000600052604160045260246000fd5b61279f8261254f565b810181811067ffffffffffffffff821117156127be576127bd612767565b5b80604052505050565b60006127d1612370565b90506127dd8282612796565b919050565b600067ffffffffffffffff8211156127fd576127fc612767565b5b6128068261254f565b9050602081019050919050565b82818337600083830152505050565b6000612835612830846127e2565b6127c7565b90508281526020810184848401111561285157612850612762565b5b61285c848285612813565b509392505050565b600082601f8301126128795761287861275d565b5b8135612889848260208601612822565b91505092915050565b600080604083850312156128a9576128a861237a565b5b600083013567ffffffffffffffff8111156128c7576128c661237f565b5b6128d385828601612864565b92505060206128e4858286016124b4565b9150509250929050565b6128f781612409565b811461290257600080fd5b50565b600081359050612914816128ee565b92915050565b600080604083850312156129315761293061237a565b5b600061293f85828601612488565b925050602061295085828601612905565b9150509250929050565b600067ffffffffffffffff82111561297557612974612767565b5b61297e8261254f565b9050602081019050919050565b600061299e6129998461295a565b6127c7565b9050828152602081018484840111156129ba576129b9612762565b5b6129c5848285612813565b509392505050565b600082601f8301126129e2576129e161275d565b5b81356129f284826020860161298b565b91505092915050565b60008060008060808587031215612a1557612a1461237a565b5b6000612a2387828801612488565b9450506020612a3487828801612488565b9350506040612a45878288016124b4565b925050606085013567ffffffffffffffff811115612a6657612a6561237f565b5b612a72878288016129cd565b91505092959194509250565b60008060408385031215612a9557612a9461237a565b5b6000612aa3858286016124b4565b9250506020612ab485828601612488565b9150509250929050565b6000606082019050612ad36000830186612346565b8181036020830152612ae58185612560565b9050612af46040830184612346565b949350505050565b60008060408385031215612b1357612b1261237a565b5b6000612b2185828601612488565b9250506020612b3285828601612488565b9150509250929050565b7f4552433732313a204e6f74206f776e6572206f66206368616e6e656c21000000600082015250565b6000612b72601d83612514565b9150612b7d82612b3c565b602082019050919050565b60006020820190508181036000830152612ba181612b65565b9050919050565b600081519050612bb78161249d565b92915050565b600060208284031215612bd357612bd261237a565b5b6000612be184828501612ba8565b91505092915050565b7f496e73756666696369656e742062616c616e6365000000000000000000000000600082015250565b6000612c20601483612514565b9150612c2b82612bea565b602082019050919050565b60006020820190508181036000830152612c4f81612c13565b9050919050565b6000604082019050612c6b60008301856125e8565b612c786020830184612346565b9392505050565b600081519050612c8e816128ee565b92915050565b600060208284031215612caa57612ca961237a565b5b6000612cb884828501612c7f565b91505092915050565b7f5472616e73666572204661696c65642100000000000000000000000000000000600082015250565b6000612cf7601083612514565b9150612d0282612cc1565b602082019050919050565b60006020820190508181036000830152612d2681612cea565b9050919050565b7f4e487b7100000000000000000000000000000000000000000000000000000000600052602260045260246000fd5b60006002820490506001821680612d7457607f821691505b602082108103612d8757612d86612d2d565b5b50919050565b7f4552433732313a20617070726f76616c20746f2063757272656e74206f776e6560008201527f7200000000000000000000000000000000000000000000000000000000000000602082015250565b6000612de9602183612514565b9150612df482612d8d565b604082019050919050565b60006020820190508181036000830152612e1881612ddc565b9050919050565b7f4552433732313a20617070726f76652063616c6c6572206973206e6f7420746f60008201527f6b656e206f776e6572206f7220617070726f76656420666f7220616c6c000000602082015250565b6000612e7b603d83612514565b9150612e8682612e1f565b604082019050919050565b60006020820190508181036000830152612eaa81612e6e565b9050919050565b7f4552433732313a2063616c6c6572206973206e6f7420746f6b656e206f776e6560008201527f72206f7220617070726f76656400000000000000000000000000000000000000602082015250565b6000612f0d602d83612514565b9150612f1882612eb1565b604082019050919050565b60006020820190508181036000830152612f3c81612f00565b9050919050565b600081905092915050565b50565b6000612f5e600083612f43565b9150612f6982612f4e565b600082019050919050565b6000612f7f82612f51565b9150819050919050565b7f4552433732313a20696e76616c696420746f6b656e2049440000000000000000600082015250565b6000612fbf601883612514565b9150612fca82612f89565b602082019050919050565b60006020820190508181036000830152612fee81612fb2565b9050919050565b7f4552433732313a2061646472657373207a65726f206973206e6f74206120766160008201527f6c6964206f776e65720000000000000000000000000000000000000000000000602082015250565b6000613051602983612514565b915061305c82612ff5565b604082019050919050565b6000602082019050818103600083015261308081613044565b9050919050565b7f4e487b7100000000000000000000000000000000000000000000000000000000600052601160045260246000fd5b60006130c18261233c565b91507fffffffffffffffffffffffffffffffffffffffffffffffffffffffffffffffff82036130f3576130f2613087565b5b600182019050919050565b60006131098261233c565b91506131148361233c565b925082820190508082111561312c5761312b613087565b5b92915050565b60008190508160005260206000209050919050565b60006020601f8301049050919050565b600082821b905092915050565b6000600883026131947fffffffffffffffffffffffffffffffffffffffffffffffffffffffffffffffff82613157565b61319e8683613157565b95508019841693508086168417925050509392505050565b6000819050919050565b60006131db6131d66131d18461233c565b6131b6565b61233c565b9050919050565b6000819050919050565b6131f5836131c0565b613209613201826131e2565b848454613164565b825550505050565b600090565b61321e613211565b6132298184846131ec565b505050565b5b8181101561324d57613242600082613216565b60018101905061322f565b5050565b601f8211156132925761326381613132565b61326c84613147565b8101602085101561327b578190505b61328f61328785613147565b83018261322e565b50505b505050565b600082821c905092915050565b60006132b560001984600802613297565b1980831691505092915050565b60006132ce83836132a4565b9150826002028217905092915050565b6132e782612509565b67ffffffffffffffff811115613300576132ff612767565b5b61330a8254612d5c565b613315828285613251565b600060209050601f8311600181146133485760008415613336578287015190505b61334085826132c2565b8655506133a8565b601f19841661335686613132565b60005b8281101561337e57848901518255600182019150602085019450602081019050613359565b8683101561339b5784890151613397601f8916826132a4565b8355505b6001600288020188555050505b505050505050565b600081905092915050565b60006133c682612509565b6133d081856133b0565b93506133e0818560208601612525565b80840191505092915050565b60006133f882856133bb565b915061340482846133bb565b91508190509392505050565b6000604082019050818103600083015261342a8185612560565b90506134396020830184612346565b9392505050565b7f4552433732313a207472616e736665722066726f6d20696e636f72726563742060008201527f6f776e6572000000000000000000000000000000000000000000000000000000602082015250565b600061349c602583612514565b91506134a782613440565b604082019050919050565b600060208201905081810360008301526134cb8161348f565b9050919050565b7f4552433732313a207472616e7366657220746f20746865207a65726f2061646460008201527f7265737300000000000000000000000000000000000000000000000000000000602082015250565b600061352e602483612514565b9150613539826134d2565b604082019050919050565b6000602082019050818103600083015261355d81613521565b9050919050565b7f4552433732313a20617070726f766520746f2063616c6c657200000000000000600082015250565b600061359a601983612514565b91506135a582613564565b602082019050919050565b600060208201905081810360008301526135c98161358d565b9050919050565b7f4552433732313a207472616e7366657220746f206e6f6e20455243373231526560008201527f63656976657220696d706c656d656e7465720000000000000000000000000000602082015250565b600061362c603283612514565b9150613637826135d0565b604082019050919050565b6000602082019050818103600083015261365b8161361f565b9050919050565b7f4e487b7100000000000000000000000000000000000000000000000000000000600052601260045260246000fd5b600081519050919050565b600082825260208201905092915050565b60006136b882613691565b6136c2818561369c565b93506136d2818560208601612525565b6136db8161254f565b840191505092915050565b60006080820190506136fb60008301876125e8565b61370860208301866125e8565b6137156040830185612346565b818103606083015261372781846136ad565b905095945050505050565b600081519050613741816123b0565b92915050565b60006020828403121561375d5761375c61237a565b5b600061376b84828501613732565b91505092915050565b7f4552433732313a206d696e7420746f20746865207a65726f2061646472657373600082015250565b60006137aa602083612514565b91506137b582613774565b602082019050919050565b600060208201905081810360008301526137d98161379d565b9050919050565b7f4552433732313a20746f6b656e20616c7265616479206d696e74656400000000600082015250565b6000613816601c83612514565b9150613821826137e0565b602082019050919050565b6000602082019050818103600083015261384581613809565b905091905056fea2646970667358221220585189475e9ae65322ac54646bf1309435939986b9803185ea05ab3c39c1e0b264736f6c63430008120033",
  "linkReferences": {},
  "deployedLinkReferences": {}
}