{
  "_format": "hh-sol-artifact-1",
  "contractName": "DecentDisc",
  "sourceName": "contracts/DecentDisc.sol",
  "abi": [
    {
      "inputs": [
        {
          "internalType": "string",
          "name": "name",
          "type": "string"
        },
        {
          "internalType": "string",
          "name": "symbol",
          "type": "string"
        }
      ],
      "stateMutability": "nonpayable",
      "type": "constructor"
    },
    {
      "anonymous": false,
      "inputs": [
        {
          "indexed": true,
          "internalType": "address",
          "name": "owner",
          "type": "address"
        },
        {
          "indexed": true,
          "internalType": "address",
          "name": "approved",
          "type": "address"
        },
        {
          "indexed": true,
          "internalType": "uint256",
          "name": "tokenId",
          "type": "uint256"
        }
      ],
      "name": "Approval",
      "type": "event"
    },
    {
      "anonymous": false,
      "inputs": [
        {
          "indexed": true,
          "internalType": "address",
          "name": "owner",
          "type": "address"
        },
        {
          "indexed": true,
          "internalType": "address",
          "name": "operator",
          "type": "address"
        },
        {
          "indexed": false,
          "internalType": "bool",
          "name": "approved",
          "type": "bool"
        }
      ],
      "name": "ApprovalForAll",
      "type": "event"
    },
    {
      "anonymous": false,
      "inputs": [
        {
          "indexed": true,
          "internalType": "address",
          "name": "from",
          "type": "address"
        },
        {
          "indexed": true,
          "internalType": "address",
          "name": "to",
          "type": "address"
        },
        {
          "indexed": true,
          "internalType": "uint256",
          "name": "tokenId",
          "type": "uint256"
        }
      ],
      "name": "Transfer",
      "type": "event"
    },
    {
      "inputs": [
        {
          "internalType": "address",
          "name": "to",
          "type": "address"
        },
        {
          "internalType": "uint256",
          "name": "tokenId",
          "type": "uint256"
        }
      ],
      "name": "approve",
      "outputs": [],
      "stateMutability": "nonpayable",
      "type": "function"
    },
    {
      "inputs": [
        {
          "internalType": "address",
          "name": "owner",
          "type": "address"
        }
      ],
      "name": "balanceOf",
      "outputs": [
        {
          "internalType": "uint256",
          "name": "",
          "type": "uint256"
        }
      ],
      "stateMutability": "view",
      "type": "function"
    },
    {
      "inputs": [],
      "name": "channelNo",
      "outputs": [
        {
          "internalType": "uint256",
          "name": "",
          "type": "uint256"
        }
      ],
      "stateMutability": "view",
      "type": "function"
    },
    {
      "inputs": [
        {
          "internalType": "uint256",
          "name": "",
          "type": "uint256"
        }
      ],
      "name": "channels",
      "outputs": [
        {
          "internalType": "uint256",
          "name": "id",
          "type": "uint256"
        },
        {
          "internalType": "string",
          "name": "name",
          "type": "string"
        },
        {
          "internalType": "uint256",
          "name": "cost",
          "type": "uint256"
        }
      ],
      "stateMutability": "view",
      "type": "function"
    },
    {
      "inputs": [
        {
          "internalType": "string",
          "name": "name",
          "type": "string"
        },
        {
          "internalType": "uint256",
          "name": "cost",
          "type": "uint256"
        }
      ],
      "name": "createChannel",
      "outputs": [],
      "stateMutability": "nonpayable",
      "type": "function"
    },
    {
      "inputs": [
        {
          "internalType": "uint256",
          "name": "tokenId",
          "type": "uint256"
        }
      ],
      "name": "getApproved",
      "outputs": [
        {
          "internalType": "address",
          "name": "",
          "type": "address"
        }
      ],
      "stateMutability": "view",
      "type": "function"
    },
    {
      "inputs": [
        {
          "internalType": "uint256",
          "name": "id",
          "type": "uint256"
        }
      ],
      "name": "getChannel",
      "outputs": [
        {
          "components": [
            {
              "internalType": "uint256",
              "name": "id",
              "type": "uint256"
            },
            {
              "internalType": "string",
              "name": "name",
              "type": "string"
            },
            {
              "internalType": "uint256",
              "name": "cost",
              "type": "uint256"
            }
          ],
          "internalType": "struct DecentDisc.Channel",
          "name": "",
          "type": "tuple"
        }
      ],
      "stateMutability": "view",
      "type": "function"
    },
    {
      "inputs": [
        {
          "internalType": "address",
          "name": "owner",
          "type": "address"
        },
        {
          "internalType": "address",
          "name": "operator",
          "type": "address"
        }
      ],
      "name": "isApprovedForAll",
      "outputs": [
        {
          "internalType": "bool",
          "name": "",
          "type": "bool"
        }
      ],
      "stateMutability": "view",
      "type": "function"
    },
    {
      "inputs": [
        {
          "internalType": "uint256",
          "name": "",
          "type": "uint256"
        },
        {
          "internalType": "address",
          "name": "",
          "type": "address"
        }
      ],
      "name": "joinedChannel",
      "outputs": [
        {
          "internalType": "bool",
          "name": "",
          "type": "bool"
        }
      ],
      "stateMutability": "view",
      "type": "function"
    },
    {
      "inputs": [
        {
          "internalType": "uint256",
          "name": "id",
          "type": "uint256"
        }
      ],
      "name": "mint",
      "outputs": [],
      "stateMutability": "payable",
      "type": "function"
    },
    {
      "inputs": [],
      "name": "mintedNFTs",
      "outputs": [
        {
          "internalType": "uint256",
          "name": "",
          "type": "uint256"
        }
      ],
      "stateMutability": "view",
      "type": "function"
    },
    {
      "inputs": [],
      "name": "name",
      "outputs": [
        {
          "internalType": "string",
          "name": "",
          "type": "string"
        }
      ],
      "stateMutability": "view",
      "type": "function"
    },
    {
      "inputs": [],
      "name": "owner",
      "outputs": [
        {
          "internalType": "address",
          "name": "",
          "type": "address"
        }
      ],
      "stateMutability": "view",
      "type": "function"
    },
    {
      "inputs": [
        {
          "internalType": "uint256",
          "name": "tokenId",
          "type": "uint256"
        }
      ],
      "name": "ownerOf",
      "outputs": [
        {
          "internalType": "address",
          "name": "",
          "type": "address"
        }
      ],
      "stateMutability": "view",
      "type": "function"
    },
    {
      "inputs": [
        {
          "internalType": "address",
          "name": "from",
          "type": "address"
        },
        {
          "internalType": "address",
          "name": "to",
          "type": "address"
        },
        {
          "internalType": "uint256",
          "name": "tokenId",
          "type": "uint256"
        }
      ],
      "name": "safeTransferFrom",
      "outputs": [],
      "stateMutability": "nonpayable",
      "type": "function"
    },
    {
      "inputs": [
        {
          "internalType": "address",
          "name": "from",
          "type": "address"
        },
        {
          "internalType": "address",
          "name": "to",
          "type": "address"
        },
        {
          "internalType": "uint256",
          "name": "tokenId",
          "type": "uint256"
        },
        {
          "internalType": "bytes",
          "name": "data",
          "type": "bytes"
        }
      ],
      "name": "safeTransferFrom",
      "outputs": [],
      "stateMutability": "nonpayable",
      "type": "function"
    },
    {
      "inputs": [
        {
          "internalType": "address",
          "name": "recipient",
          "type": "address"
        },
        {
          "internalType": "uint256",
          "name": "amount",
          "type": "uint256"
        }
      ],
      "name": "sendTokens",
      "outputs": [],
      "stateMutability": "nonpayable",
      "type": "function"
    },
    {
      "inputs": [
        {
          "internalType": "address",
          "name": "operator",
          "type": "address"
        },
        {
          "internalType": "bool",
          "name": "approved",
          "type": "bool"
        }
      ],
      "name": "setApprovalForAll",
      "outputs": [],
      "stateMutability": "nonpayable",
      "type": "function"
    },
    {
      "inputs": [
        {
          "internalType": "bytes4",
          "name": "interfaceId",
          "type": "bytes4"
        }
      ],
      "name": "supportsInterface",
      "outputs": [
        {
          "internalType": "bool",
          "name": "",
          "type": "bool"
        }
      ],
      "stateMutability": "view",
      "type": "function"
    },
    {
      "inputs": [],
      "name": "symbol",
      "outputs": [
        {
          "internalType": "string",
          "name": "",
          "type": "string"
        }
      ],
      "stateMutability": "view",
      "type": "function"
    },
    {
      "inputs": [
        {
          "internalType": "uint256",
          "name": "tokenId",
          "type": "uint256"
        }
      ],
      "name": "tokenURI",
      "outputs": [
        {
          "internalType": "string",
          "name": "",
          "type": "string"
        }
      ],
      "stateMutability": "view",
      "type": "function"
    },
    {
      "inputs": [
        {
          "internalType": "address",
          "name": "from",
          "type": "address"
        },
        {
          "internalType": "address",
          "name": "to",
          "type": "address"
        },
        {
          "internalType": "uint256",
          "name": "tokenId",
          "type": "uint256"
        }
      ],
      "name": "transferFrom",
      "outputs": [],
      "stateMutability": "nonpayable",
      "type": "function"
    },
    {
      "inputs": [],
      "name": "withdraw",
      "outputs": [],
      "stateMutability": "nonpayable",
      "type": "function"
    }
  ],
  "bytecode": "0x60806040523480156200001157600080fd5b5060405162003a9e38038062003a9e83398181016040528101906200003791906200023b565b818181600090816200004a91906200050b565b5080600190816200005c91906200050b565b50505033600660006101000a81548173ffffffffffffffffffffffffffffffffffffffff021916908373ffffffffffffffffffffffffffffffffffffffff1602179055505050620005f2565b6000604051905090565b600080fd5b600080fd5b600080fd5b600080fd5b6000601f19601f8301169050919050565b7f4e487b7100000000000000000000000000000000000000000000000000000000600052604160045260246000fd5b6200011182620000c6565b810181811067ffffffffffffffff82111715620001335762000132620000d7565b5b80604052505050565b600062000148620000a8565b905062000156828262000106565b919050565b600067ffffffffffffffff821115620001795762000178620000d7565b5b6200018482620000c6565b9050602081019050919050565b60005b83811015620001b157808201518184015260208101905062000194565b60008484015250505050565b6000620001d4620001ce846200015b565b6200013c565b905082815260208101848484011115620001f357620001f2620000c1565b5b6200020084828562000191565b509392505050565b600082601f83011262000220576200021f620000bc565b5b815162000232848260208601620001bd565b91505092915050565b60008060408385031215620002555762000254620000b2565b5b600083015167ffffffffffffffff811115620002765762000275620000b7565b5b620002848582860162000208565b925050602083015167ffffffffffffffff811115620002a857620002a7620000b7565b5b620002b68582860162000208565b9150509250929050565b600081519050919050565b7f4e487b7100000000000000000000000000000000000000000000000000000000600052602260045260246000fd5b600060028204905060018216806200031357607f821691505b602082108103620003295762000328620002cb565b5b50919050565b60008190508160005260206000209050919050565b60006020601f8301049050919050565b600082821b905092915050565b600060088302620003937fffffffffffffffffffffffffffffffffffffffffffffffffffffffffffffffff8262000354565b6200039f868362000354565b95508019841693508086168417925050509392505050565b6000819050919050565b6000819050919050565b6000620003ec620003e6620003e084620003b7565b620003c1565b620003b7565b9050919050565b6000819050919050565b6200040883620003cb565b620004206200041782620003f3565b84845462000361565b825550505050565b600090565b6200043762000428565b62000444818484620003fd565b505050565b5b818110156200046c57620004606000826200042d565b6001810190506200044a565b5050565b601f821115620004bb5762000485816200032f565b620004908462000344565b81016020851015620004a0578190505b620004b8620004af8562000344565b83018262000449565b50505b505050565b600082821c905092915050565b6000620004e060001984600802620004c0565b1980831691505092915050565b6000620004fb8383620004cd565b9150826002028217905092915050565b6200051682620002c0565b67ffffffffffffffff811115620005325762000531620000d7565b5b6200053e8254620002fa565b6200054b82828562000470565b600060209050601f8311600181146200058357600084156200056e578287015190505b6200057a8582620004ed565b865550620005ea565b601f19841662000593866200032f565b60005b82811015620005bd5784890151825560018201915060208501945060208101905062000596565b86831015620005dd5784890151620005d9601f891682620004cd565b8355505b6001600288020188555050505b505050505050565b61349c80620006026000396000f3fe6080604052600436106101405760003560e01c806370a08231116100b6578063b88d4fde1161006f578063b88d4fde1461044b578063b9aca4a714610474578063c87b56dd146104b1578063cb8cc583146104ee578063e5949b5d14610519578063e985e9c51461055857610140565b806370a082311461034a5780638da5cb5b1461038757806395d89b41146103b2578063a0712d68146103dd578063a14865cd146103f9578063a22cb4651461042257610140565b8063095ea7b311610108578063095ea7b31461023e57806310df54a01461026757806323b872dd146102a45780633ccfd60b146102cd57806342842e0e146102e45780636352211e1461030d57610140565b8063016776611461014557806301ffc9a71461017057806305ab421d146101ad57806306fdde03146101d6578063081812fc14610201575b600080fd5b34801561015157600080fd5b5061015a610595565b604051610167919061204d565b60405180910390f35b34801561017c57600080fd5b50610197600480360381019061019291906120d4565b61059b565b6040516101a4919061211c565b60405180910390f35b3480156101b957600080fd5b506101d460048036038101906101cf91906121c1565b61067d565b005b3480156101e257600080fd5b506101eb61073e565b6040516101f89190612291565b60405180910390f35b34801561020d57600080fd5b50610228600480360381019061022391906122b3565b6107d0565b60405161023591906122ef565b60405180910390f35b34801561024a57600080fd5b50610265600480360381019061026091906121c1565b610816565b005b34801561027357600080fd5b5061028e600480360381019061028991906122b3565b61092d565b60405161029b91906123b3565b60405180910390f35b3480156102b057600080fd5b506102cb60048036038101906102c691906123d5565b610a00565b005b3480156102d957600080fd5b506102e2610a60565b005b3480156102f057600080fd5b5061030b600480360381019061030691906123d5565b610b8b565b005b34801561031957600080fd5b50610334600480360381019061032f91906122b3565b610bab565b60405161034191906122ef565b60405180910390f35b34801561035657600080fd5b50610371600480360381019061036c9190612428565b610c31565b60405161037e919061204d565b60405180910390f35b34801561039357600080fd5b5061039c610ce8565b6040516103a991906122ef565b60405180910390f35b3480156103be57600080fd5b506103c7610d0e565b6040516103d49190612291565b60405180910390f35b6103f760048036038101906103f291906122b3565b610da0565b005b34801561040557600080fd5b50610420600480360381019061041b919061258a565b610edd565b005b34801561042e57600080fd5b5061044960048036038101906104449190612612565b610fea565b005b34801561045757600080fd5b50610472600480360381019061046d91906126f3565b611000565b005b34801561048057600080fd5b5061049b60048036038101906104969190612776565b611062565b6040516104a8919061211c565b60405180910390f35b3480156104bd57600080fd5b506104d860048036038101906104d391906122b3565b611091565b6040516104e59190612291565b60405180910390f35b3480156104fa57600080fd5b506105036110f9565b604051610510919061204d565b60405180910390f35b34801561052557600080fd5b50610540600480360381019061053b91906122b3565b6110ff565b60405161054f939291906127b6565b60405180910390f35b34801561056457600080fd5b5061057f600480360381019061057a91906127f4565b6111b1565b60405161058c919061211c565b60405180910390f35b60085481565b60007f80ac58cd000000000000000000000000000000000000000000000000000000007bffffffffffffffffffffffffffffffffffffffffffffffffffffffff1916827bffffffffffffffffffffffffffffffffffffffffffffffffffffffff1916148061066657507f5b5e139f000000000000000000000000000000000000000000000000000000007bffffffffffffffffffffffffffffffffffffffffffffffffffffffff1916827bffffffffffffffffffffffffffffffffffffffffffffffffffffffff1916145b80610676575061067582611245565b5b9050919050565b3073ffffffffffffffffffffffffffffffffffffffff1663a9059cbb83836040518363ffffffff1660e01b81526004016106b8929190612834565b6020604051808303816000875af11580156106d7573d6000803e3d6000fd5b505050506040513d601f19601f820116820180604052508101906106fb9190612872565b61073a576040517f08c379a0000000000000000000000000000000000000000000000000000000008152600401610731906128eb565b60405180910390fd5b5050565b60606000805461074d9061293a565b80601f01602080910402602001604051908101604052809291908181526020018280546107799061293a565b80156107c65780601f1061079b576101008083540402835291602001916107c6565b820191906000526020600020905b8154815290600101906020018083116107a957829003601f168201915b5050505050905090565b60006107db826112af565b6004600083815260200190815260200160002060009054906101000a900473ffffffffffffffffffffffffffffffffffffffff169050919050565b600061082182610bab565b90508073ffffffffffffffffffffffffffffffffffffffff168373ffffffffffffffffffffffffffffffffffffffff1603610891576040517f08c379a0000000000000000000000000000000000000000000000000000000008152600401610888906129dd565b60405180910390fd5b8073ffffffffffffffffffffffffffffffffffffffff166108b06112fa565b73ffffffffffffffffffffffffffffffffffffffff1614806108df57506108de816108d96112fa565b6111b1565b5b61091e576040517f08c379a000000000000000000000000000000000000000000000000000000000815260040161091590612a6f565b60405180910390fd5b6109288383611302565b505050565b610935612013565b600960008381526020019081526020016000206040518060600160405290816000820154815260200160018201805461096d9061293a565b80601f01602080910402602001604051908101604052809291908181526020018280546109999061293a565b80156109e65780601f106109bb576101008083540402835291602001916109e6565b820191906000526020600020905b8154815290600101906020018083116109c957829003601f168201915b505050505081526020016002820154815250509050919050565b610a11610a0b6112fa565b826113bb565b610a50576040517f08c379a0000000000000000000000000000000000000000000000000000000008152600401610a4790612b01565b60405180910390fd5b610a5b838383611450565b505050565b600660009054906101000a900473ffffffffffffffffffffffffffffffffffffffff1673ffffffffffffffffffffffffffffffffffffffff163373ffffffffffffffffffffffffffffffffffffffff1614610af0576040517f08c379a0000000000000000000000000000000000000000000000000000000008152600401610ae790612b6d565b60405180910390fd5b6000600660009054906101000a900473ffffffffffffffffffffffffffffffffffffffff1673ffffffffffffffffffffffffffffffffffffffff1647604051610b3890612bbe565b60006040518083038185875af1925050503d8060008114610b75576040519150601f19603f3d011682016040523d82523d6000602084013e610b7a565b606091505b5050905080610b8857600080fd5b50565b610ba683838360405180602001604052806000815250611000565b505050565b600080610bb783611749565b9050600073ffffffffffffffffffffffffffffffffffffffff168173ffffffffffffffffffffffffffffffffffffffff1603610c28576040517f08c379a0000000000000000000000000000000000000000000000000000000008152600401610c1f90612c1f565b60405180910390fd5b80915050919050565b60008073ffffffffffffffffffffffffffffffffffffffff168273ffffffffffffffffffffffffffffffffffffffff1603610ca1576040517f08c379a0000000000000000000000000000000000000000000000000000000008152600401610c9890612cb1565b60405180910390fd5b600360008373ffffffffffffffffffffffffffffffffffffffff1673ffffffffffffffffffffffffffffffffffffffff168152602001908152602001600020549050919050565b600660009054906101000a900473ffffffffffffffffffffffffffffffffffffffff1681565b606060018054610d1d9061293a565b80601f0160208091040260200160405190810160405280929190818152602001828054610d499061293a565b8015610d965780601f10610d6b57610100808354040283529160200191610d96565b820191906000526020600020905b815481529060010190602001808311610d7957829003601f168201915b5050505050905090565b60008103610dad57600080fd5b600754811115610dbc57600080fd5b60001515600a600083815260200190815260200160002060003373ffffffffffffffffffffffffffffffffffffffff1673ffffffffffffffffffffffffffffffffffffffff16815260200190815260200160002060009054906101000a900460ff16151514610e2a57600080fd5b6009600082815260200190815260200160002060020154341015610e4d57600080fd5b6001600a600083815260200190815260200160002060003373ffffffffffffffffffffffffffffffffffffffff1673ffffffffffffffffffffffffffffffffffffffff16815260200190815260200160002060006101000a81548160ff02191690831515021790555060086000815480929190610ec990612d00565b9190505550610eda33600854611786565b50565b600660009054906101000a900473ffffffffffffffffffffffffffffffffffffffff1673ffffffffffffffffffffffffffffffffffffffff163373ffffffffffffffffffffffffffffffffffffffff1614610f6d576040517f08c379a0000000000000000000000000000000000000000000000000000000008152600401610f6490612b6d565b60405180910390fd5b600160076000828254610f809190612d48565b925050819055506040518060600160405280600754815260200183815260200182815250600960006007548152602001908152602001600020600082015181600001556020820151816001019081610fd89190612f28565b50604082015181600201559050505050565b610ffc610ff56112fa565b83836117a4565b5050565b61101161100b6112fa565b836113bb565b611050576040517f08c379a000000000000000000000000000000000000000000000000000000000815260040161104790612b01565b60405180910390fd5b61105c84848484611910565b50505050565b600a6020528160005260406000206020528060005260406000206000915091509054906101000a900460ff1681565b606061109c826112af565b60006110a661196c565b905060008151116110c657604051806020016040528060008152506110f1565b806110d084611983565b6040516020016110e1929190613036565b6040516020818303038152906040525b915050919050565b60075481565b60096020528060005260406000206000915090508060000154908060010180546111289061293a565b80601f01602080910402602001604051908101604052809291908181526020018280546111549061293a565b80156111a15780601f10611176576101008083540402835291602001916111a1565b820191906000526020600020905b81548152906001019060200180831161118457829003601f168201915b5050505050908060020154905083565b6000600560008473ffffffffffffffffffffffffffffffffffffffff1673ffffffffffffffffffffffffffffffffffffffff16815260200190815260200160002060008373ffffffffffffffffffffffffffffffffffffffff1673ffffffffffffffffffffffffffffffffffffffff16815260200190815260200160002060009054906101000a900460ff16905092915050565b60007f01ffc9a7000000000000000000000000000000000000000000000000000000007bffffffffffffffffffffffffffffffffffffffffffffffffffffffff1916827bffffffffffffffffffffffffffffffffffffffffffffffffffffffff1916149050919050565b6112b881611a51565b6112f7576040517f08c379a00000000000000000000000000000000000000000000000000000000081526004016112ee90612c1f565b60405180910390fd5b50565b600033905090565b816004600083815260200190815260200160002060006101000a81548173ffffffffffffffffffffffffffffffffffffffff021916908373ffffffffffffffffffffffffffffffffffffffff160217905550808273ffffffffffffffffffffffffffffffffffffffff1661137583610bab565b73ffffffffffffffffffffffffffffffffffffffff167f8c5be1e5ebec7d5bd14f71427d1e84f3dd0314c0f7b2291e5b200ac8c7c3b92560405160405180910390a45050565b6000806113c783610bab565b90508073ffffffffffffffffffffffffffffffffffffffff168473ffffffffffffffffffffffffffffffffffffffff161480611409575061140881856111b1565b5b8061144757508373ffffffffffffffffffffffffffffffffffffffff1661142f846107d0565b73ffffffffffffffffffffffffffffffffffffffff16145b91505092915050565b8273ffffffffffffffffffffffffffffffffffffffff1661147082610bab565b73ffffffffffffffffffffffffffffffffffffffff16146114c6576040517f08c379a00000000000000000000000000000000000000000000000000000000081526004016114bd906130cc565b60405180910390fd5b600073ffffffffffffffffffffffffffffffffffffffff168273ffffffffffffffffffffffffffffffffffffffff1603611535576040517f08c379a000000000000000000000000000000000000000000000000000000000815260040161152c9061315e565b60405180910390fd5b6115428383836001611a92565b8273ffffffffffffffffffffffffffffffffffffffff1661156282610bab565b73ffffffffffffffffffffffffffffffffffffffff16146115b8576040517f08c379a00000000000000000000000000000000000000000000000000000000081526004016115af906130cc565b60405180910390fd5b6004600082815260200190815260200160002060006101000a81549073ffffffffffffffffffffffffffffffffffffffff02191690556001600360008573ffffffffffffffffffffffffffffffffffffffff1673ffffffffffffffffffffffffffffffffffffffff168152602001908152602001600020600082825403925050819055506001600360008473ffffffffffffffffffffffffffffffffffffffff1673ffffffffffffffffffffffffffffffffffffffff16815260200190815260200160002060008282540192505081905550816002600083815260200190815260200160002060006101000a81548173ffffffffffffffffffffffffffffffffffffffff021916908373ffffffffffffffffffffffffffffffffffffffff160217905550808273ffffffffffffffffffffffffffffffffffffffff168473ffffffffffffffffffffffffffffffffffffffff167fddf252ad1be2c89b69c2b068fc378daa952ba7f163c4a11628f55a4df523b3ef60405160405180910390a46117448383836001611a98565b505050565b60006002600083815260200190815260200160002060009054906101000a900473ffffffffffffffffffffffffffffffffffffffff169050919050565b6117a0828260405180602001604052806000815250611a9e565b5050565b8173ffffffffffffffffffffffffffffffffffffffff168373ffffffffffffffffffffffffffffffffffffffff1603611812576040517f08c379a0000000000000000000000000000000000000000000000000000000008152600401611809906131ca565b60405180910390fd5b80600560008573ffffffffffffffffffffffffffffffffffffffff1673ffffffffffffffffffffffffffffffffffffffff16815260200190815260200160002060008473ffffffffffffffffffffffffffffffffffffffff1673ffffffffffffffffffffffffffffffffffffffff16815260200190815260200160002060006101000a81548160ff0219169083151502179055508173ffffffffffffffffffffffffffffffffffffffff168373ffffffffffffffffffffffffffffffffffffffff167f17307eab39ab6107e8899845ad3d59bd9653f200f220920489ca2b5937696c3183604051611903919061211c565b60405180910390a3505050565b61191b848484611450565b61192784848484611af9565b611966576040517f08c379a000000000000000000000000000000000000000000000000000000000815260040161195d9061325c565b60405180910390fd5b50505050565b606060405180602001604052806000815250905090565b60606000600161199284611c80565b01905060008167ffffffffffffffff8111156119b1576119b061245f565b5b6040519080825280601f01601f1916602001820160405280156119e35781602001600182028036833780820191505090505b509050600082602001820190505b600115611a46578080600190039150507f3031323334353637383961626364656600000000000000000000000000000000600a86061a8153600a8581611a3a57611a3961327c565b5b049450600085036119f1575b819350505050919050565b60008073ffffffffffffffffffffffffffffffffffffffff16611a7383611749565b73ffffffffffffffffffffffffffffffffffffffff1614159050919050565b50505050565b50505050565b611aa88383611dd3565b611ab56000848484611af9565b611af4576040517f08c379a0000000000000000000000000000000000000000000000000000000008152600401611aeb9061325c565b60405180910390fd5b505050565b6000611b1a8473ffffffffffffffffffffffffffffffffffffffff16611ff0565b15611c73578373ffffffffffffffffffffffffffffffffffffffff1663150b7a02611b436112fa565b8786866040518563ffffffff1660e01b8152600401611b659493929190613300565b6020604051808303816000875af1925050508015611ba157506040513d601f19601f82011682018060405250810190611b9e9190613361565b60015b611c23573d8060008114611bd1576040519150601f19603f3d011682016040523d82523d6000602084013e611bd6565b606091505b506000815103611c1b576040517f08c379a0000000000000000000000000000000000000000000000000000000008152600401611c129061325c565b60405180910390fd5b805181602001fd5b63150b7a0260e01b7bffffffffffffffffffffffffffffffffffffffffffffffffffffffff1916817bffffffffffffffffffffffffffffffffffffffffffffffffffffffff191614915050611c78565b600190505b949350505050565b600080600090507a184f03e93ff9f4daa797ed6e38ed64bf6a1f0100000000000000008310611cde577a184f03e93ff9f4daa797ed6e38ed64bf6a1f0100000000000000008381611cd457611cd361327c565b5b0492506040810190505b6d04ee2d6d415b85acef81000000008310611d1b576d04ee2d6d415b85acef81000000008381611d1157611d1061327c565b5b0492506020810190505b662386f26fc100008310611d4a57662386f26fc100008381611d4057611d3f61327c565b5b0492506010810190505b6305f5e1008310611d73576305f5e1008381611d6957611d6861327c565b5b0492506008810190505b6127108310611d98576127108381611d8e57611d8d61327c565b5b0492506004810190505b60648310611dbb5760648381611db157611db061327c565b5b0492506002810190505b600a8310611dca576001810190505b80915050919050565b600073ffffffffffffffffffffffffffffffffffffffff168273ffffffffffffffffffffffffffffffffffffffff1603611e42576040517f08c379a0000000000000000000000000000000000000000000000000000000008152600401611e39906133da565b60405180910390fd5b611e4b81611a51565b15611e8b576040517f08c379a0000000000000000000000000000000000000000000000000000000008152600401611e8290613446565b60405180910390fd5b611e99600083836001611a92565b611ea281611a51565b15611ee2576040517f08c379a0000000000000000000000000000000000000000000000000000000008152600401611ed990613446565b60405180910390fd5b6001600360008473ffffffffffffffffffffffffffffffffffffffff1673ffffffffffffffffffffffffffffffffffffffff16815260200190815260200160002060008282540192505081905550816002600083815260200190815260200160002060006101000a81548173ffffffffffffffffffffffffffffffffffffffff021916908373ffffffffffffffffffffffffffffffffffffffff160217905550808273ffffffffffffffffffffffffffffffffffffffff16600073ffffffffffffffffffffffffffffffffffffffff167fddf252ad1be2c89b69c2b068fc378daa952ba7f163c4a11628f55a4df523b3ef60405160405180910390a4611fec600083836001611a98565b5050565b6000808273ffffffffffffffffffffffffffffffffffffffff163b119050919050565b60405180606001604052806000815260200160608152602001600081525090565b6000819050919050565b61204781612034565b82525050565b6000602082019050612062600083018461203e565b92915050565b6000604051905090565b600080fd5b600080fd5b60007fffffffff0000000000000000000000000000000000000000000000000000000082169050919050565b6120b18161207c565b81146120bc57600080fd5b50565b6000813590506120ce816120a8565b92915050565b6000602082840312156120ea576120e9612072565b5b60006120f8848285016120bf565b91505092915050565b60008115159050919050565b61211681612101565b82525050565b6000602082019050612131600083018461210d565b92915050565b600073ffffffffffffffffffffffffffffffffffffffff82169050919050565b600061216282612137565b9050919050565b61217281612157565b811461217d57600080fd5b50565b60008135905061218f81612169565b92915050565b61219e81612034565b81146121a957600080fd5b50565b6000813590506121bb81612195565b92915050565b600080604083850312156121d8576121d7612072565b5b60006121e685828601612180565b92505060206121f7858286016121ac565b9150509250929050565b600081519050919050565b600082825260208201905092915050565b60005b8381101561223b578082015181840152602081019050612220565b60008484015250505050565b6000601f19601f8301169050919050565b600061226382612201565b61226d818561220c565b935061227d81856020860161221d565b61228681612247565b840191505092915050565b600060208201905081810360008301526122ab8184612258565b905092915050565b6000602082840312156122c9576122c8612072565b5b60006122d7848285016121ac565b91505092915050565b6122e981612157565b82525050565b600060208201905061230460008301846122e0565b92915050565b61231381612034565b82525050565b600082825260208201905092915050565b600061233582612201565b61233f8185612319565b935061234f81856020860161221d565b61235881612247565b840191505092915050565b600060608301600083015161237b600086018261230a565b5060208301518482036020860152612393828261232a565b91505060408301516123a8604086018261230a565b508091505092915050565b600060208201905081810360008301526123cd8184612363565b905092915050565b6000806000606084860312156123ee576123ed612072565b5b60006123fc86828701612180565b935050602061240d86828701612180565b925050604061241e868287016121ac565b9150509250925092565b60006020828403121561243e5761243d612072565b5b600061244c84828501612180565b91505092915050565b600080fd5b600080fd5b7f4e487b7100000000000000000000000000000000000000000000000000000000600052604160045260246000fd5b61249782612247565b810181811067ffffffffffffffff821117156124b6576124b561245f565b5b80604052505050565b60006124c9612068565b90506124d5828261248e565b919050565b600067ffffffffffffffff8211156124f5576124f461245f565b5b6124fe82612247565b9050602081019050919050565b82818337600083830152505050565b600061252d612528846124da565b6124bf565b9050828152602081018484840111156125495761254861245a565b5b61255484828561250b565b509392505050565b600082601f83011261257157612570612455565b5b813561258184826020860161251a565b91505092915050565b600080604083850312156125a1576125a0612072565b5b600083013567ffffffffffffffff8111156125bf576125be612077565b5b6125cb8582860161255c565b92505060206125dc858286016121ac565b9150509250929050565b6125ef81612101565b81146125fa57600080fd5b50565b60008135905061260c816125e6565b92915050565b6000806040838503121561262957612628612072565b5b600061263785828601612180565b9250506020612648858286016125fd565b9150509250929050565b600067ffffffffffffffff82111561266d5761266c61245f565b5b61267682612247565b9050602081019050919050565b600061269661269184612652565b6124bf565b9050828152602081018484840111156126b2576126b161245a565b5b6126bd84828561250b565b509392505050565b600082601f8301126126da576126d9612455565b5b81356126ea848260208601612683565b91505092915050565b6000806000806080858703121561270d5761270c612072565b5b600061271b87828801612180565b945050602061272c87828801612180565b935050604061273d878288016121ac565b925050606085013567ffffffffffffffff81111561275e5761275d612077565b5b61276a878288016126c5565b91505092959194509250565b6000806040838503121561278d5761278c612072565b5b600061279b858286016121ac565b92505060206127ac85828601612180565b9150509250929050565b60006060820190506127cb600083018661203e565b81810360208301526127dd8185612258565b90506127ec604083018461203e565b949350505050565b6000806040838503121561280b5761280a612072565b5b600061281985828601612180565b925050602061282a85828601612180565b9150509250929050565b600060408201905061284960008301856122e0565b612856602083018461203e565b9392505050565b60008151905061286c816125e6565b92915050565b60006020828403121561288857612887612072565b5b60006128968482850161285d565b91505092915050565b7f5472616e73666572204661696c65642100000000000000000000000000000000600082015250565b60006128d560108361220c565b91506128e08261289f565b602082019050919050565b60006020820190508181036000830152612904816128c8565b9050919050565b7f4e487b7100000000000000000000000000000000000000000000000000000000600052602260045260246000fd5b6000600282049050600182168061295257607f821691505b6020821081036129655761296461290b565b5b50919050565b7f4552433732313a20617070726f76616c20746f2063757272656e74206f776e6560008201527f7200000000000000000000000000000000000000000000000000000000000000602082015250565b60006129c760218361220c565b91506129d28261296b565b604082019050919050565b600060208201905081810360008301526129f6816129ba565b9050919050565b7f4552433732313a20617070726f76652063616c6c6572206973206e6f7420746f60008201527f6b656e206f776e6572206f7220617070726f76656420666f7220616c6c000000602082015250565b6000612a59603d8361220c565b9150612a64826129fd565b604082019050919050565b60006020820190508181036000830152612a8881612a4c565b9050919050565b7f4552433732313a2063616c6c6572206973206e6f7420746f6b656e206f776e6560008201527f72206f7220617070726f76656400000000000000000000000000000000000000602082015250565b6000612aeb602d8361220c565b9150612af682612a8f565b604082019050919050565b60006020820190508181036000830152612b1a81612ade565b9050919050565b7f4552433732313a204e6f74206f776e6572206f66206368616e6e656c21000000600082015250565b6000612b57601d8361220c565b9150612b6282612b21565b602082019050919050565b60006020820190508181036000830152612b8681612b4a565b9050919050565b600081905092915050565b50565b6000612ba8600083612b8d565b9150612bb382612b98565b600082019050919050565b6000612bc982612b9b565b9150819050919050565b7f4552433732313a20696e76616c696420746f6b656e2049440000000000000000600082015250565b6000612c0960188361220c565b9150612c1482612bd3565b602082019050919050565b60006020820190508181036000830152612c3881612bfc565b9050919050565b7f4552433732313a2061646472657373207a65726f206973206e6f74206120766160008201527f6c6964206f776e65720000000000000000000000000000000000000000000000602082015250565b6000612c9b60298361220c565b9150612ca682612c3f565b604082019050919050565b60006020820190508181036000830152612cca81612c8e565b9050919050565b7f4e487b7100000000000000000000000000000000000000000000000000000000600052601160045260246000fd5b6000612d0b82612034565b91507fffffffffffffffffffffffffffffffffffffffffffffffffffffffffffffffff8203612d3d57612d3c612cd1565b5b600182019050919050565b6000612d5382612034565b9150612d5e83612034565b9250828201905080821115612d7657612d75612cd1565b5b92915050565b60008190508160005260206000209050919050565b60006020601f8301049050919050565b600082821b905092915050565b600060088302612dde7fffffffffffffffffffffffffffffffffffffffffffffffffffffffffffffffff82612da1565b612de88683612da1565b95508019841693508086168417925050509392505050565b6000819050919050565b6000612e25612e20612e1b84612034565b612e00565b612034565b9050919050565b6000819050919050565b612e3f83612e0a565b612e53612e4b82612e2c565b848454612dae565b825550505050565b600090565b612e68612e5b565b612e73818484612e36565b505050565b5b81811015612e9757612e8c600082612e60565b600181019050612e79565b5050565b601f821115612edc57612ead81612d7c565b612eb684612d91565b81016020851015612ec5578190505b612ed9612ed185612d91565b830182612e78565b50505b505050565b600082821c905092915050565b6000612eff60001984600802612ee1565b1980831691505092915050565b6000612f188383612eee565b9150826002028217905092915050565b612f3182612201565b67ffffffffffffffff811115612f4a57612f4961245f565b5b612f54825461293a565b612f5f828285612e9b565b600060209050601f831160018114612f925760008415612f80578287015190505b612f8a8582612f0c565b865550612ff2565b601f198416612fa086612d7c565b60005b82811015612fc857848901518255600182019150602085019450602081019050612fa3565b86831015612fe55784890151612fe1601f891682612eee565b8355505b6001600288020188555050505b505050505050565b600081905092915050565b600061301082612201565b61301a8185612ffa565b935061302a81856020860161221d565b80840191505092915050565b60006130428285613005565b915061304e8284613005565b91508190509392505050565b7f4552433732313a207472616e736665722066726f6d20696e636f72726563742060008201527f6f776e6572000000000000000000000000000000000000000000000000000000602082015250565b60006130b660258361220c565b91506130c18261305a565b604082019050919050565b600060208201905081810360008301526130e5816130a9565b9050919050565b7f4552433732313a207472616e7366657220746f20746865207a65726f2061646460008201527f7265737300000000000000000000000000000000000000000000000000000000602082015250565b600061314860248361220c565b9150613153826130ec565b604082019050919050565b600060208201905081810360008301526131778161313b565b9050919050565b7f4552433732313a20617070726f766520746f2063616c6c657200000000000000600082015250565b60006131b460198361220c565b91506131bf8261317e565b602082019050919050565b600060208201905081810360008301526131e3816131a7565b9050919050565b7f4552433732313a207472616e7366657220746f206e6f6e20455243373231526560008201527f63656976657220696d706c656d656e7465720000000000000000000000000000602082015250565b600061324660328361220c565b9150613251826131ea565b604082019050919050565b6000602082019050818103600083015261327581613239565b9050919050565b7f4e487b7100000000000000000000000000000000000000000000000000000000600052601260045260246000fd5b600081519050919050565b600082825260208201905092915050565b60006132d2826132ab565b6132dc81856132b6565b93506132ec81856020860161221d565b6132f581612247565b840191505092915050565b600060808201905061331560008301876122e0565b61332260208301866122e0565b61332f604083018561203e565b818103606083015261334181846132c7565b905095945050505050565b60008151905061335b816120a8565b92915050565b60006020828403121561337757613376612072565b5b60006133858482850161334c565b91505092915050565b7f4552433732313a206d696e7420746f20746865207a65726f2061646472657373600082015250565b60006133c460208361220c565b91506133cf8261338e565b602082019050919050565b600060208201905081810360008301526133f3816133b7565b9050919050565b7f4552433732313a20746f6b656e20616c7265616479206d696e74656400000000600082015250565b6000613430601c8361220c565b915061343b826133fa565b602082019050919050565b6000602082019050818103600083015261345f81613423565b905091905056fea2646970667358221220bd7e7d6d23e894fc61cf64eea71f858d5ea15cb331cfe87347881b93d4d08ac164736f6c63430008120033",
  "linkReferences": {},
  "deployedLinkReferences": {}
}