{
  "_format": "hh-sol-artifact-1",
  "contractName": "DecentDisc",
  "sourceName": "contracts/DecentDisc.sol",
  "abi": [
    {
      "inputs": [
        {
          "internalType": "address",
          "name": "tokenAddress",
          "type": "address"
        },
        {
          "internalType": "string",
          "name": "name",
          "type": "string"
        },
        {
          "internalType": "string",
          "name": "symbol",
          "type": "string"
        }
      ],
      "stateMutability": "nonpayable",
      "type": "constructor"
    },
    {
      "anonymous": false,
      "inputs": [
        {
          "indexed": true,
          "internalType": "address",
          "name": "owner",
          "type": "address"
        },
        {
          "indexed": true,
          "internalType": "address",
          "name": "approved",
          "type": "address"
        },
        {
          "indexed": true,
          "internalType": "uint256",
          "name": "tokenId",
          "type": "uint256"
        }
      ],
      "name": "Approval",
      "type": "event"
    },
    {
      "anonymous": false,
      "inputs": [
        {
          "indexed": true,
          "internalType": "address",
          "name": "owner",
          "type": "address"
        },
        {
          "indexed": true,
          "internalType": "address",
          "name": "operator",
          "type": "address"
        },
        {
          "indexed": false,
          "internalType": "bool",
          "name": "approved",
          "type": "bool"
        }
      ],
      "name": "ApprovalForAll",
      "type": "event"
    },
    {
      "anonymous": false,
      "inputs": [
        {
          "indexed": true,
          "internalType": "address",
          "name": "from",
          "type": "address"
        },
        {
          "indexed": true,
          "internalType": "address",
          "name": "to",
          "type": "address"
        },
        {
          "indexed": true,
          "internalType": "uint256",
          "name": "tokenId",
          "type": "uint256"
        }
      ],
      "name": "Transfer",
      "type": "event"
    },
    {
      "inputs": [
        {
          "internalType": "address",
          "name": "to",
          "type": "address"
        },
        {
          "internalType": "uint256",
          "name": "tokenId",
          "type": "uint256"
        }
      ],
      "name": "approve",
      "outputs": [],
      "stateMutability": "nonpayable",
      "type": "function"
    },
    {
      "inputs": [
        {
          "internalType": "address",
          "name": "owner",
          "type": "address"
        }
      ],
      "name": "balanceOf",
      "outputs": [
        {
          "internalType": "uint256",
          "name": "",
          "type": "uint256"
        }
      ],
      "stateMutability": "view",
      "type": "function"
    },
    {
      "inputs": [],
      "name": "channelNo",
      "outputs": [
        {
          "internalType": "uint256",
          "name": "",
          "type": "uint256"
        }
      ],
      "stateMutability": "view",
      "type": "function"
    },
    {
      "inputs": [],
      "name": "channelNumbers",
      "outputs": [
        {
          "internalType": "uint256",
          "name": "",
          "type": "uint256"
        }
      ],
      "stateMutability": "view",
      "type": "function"
    },
    {
      "inputs": [
        {
          "internalType": "uint256",
          "name": "",
          "type": "uint256"
        }
      ],
      "name": "channels",
      "outputs": [
        {
          "internalType": "uint256",
          "name": "id",
          "type": "uint256"
        },
        {
          "internalType": "string",
          "name": "name",
          "type": "string"
        },
        {
          "internalType": "uint256",
          "name": "cost",
          "type": "uint256"
        }
      ],
      "stateMutability": "view",
      "type": "function"
    },
    {
      "inputs": [
        {
          "internalType": "string",
          "name": "name",
          "type": "string"
        },
        {
          "internalType": "uint256",
          "name": "cost",
          "type": "uint256"
        }
      ],
      "name": "createChannel",
      "outputs": [],
      "stateMutability": "nonpayable",
      "type": "function"
    },
    {
      "inputs": [
        {
          "internalType": "uint256",
          "name": "tokenId",
          "type": "uint256"
        }
      ],
      "name": "getApproved",
      "outputs": [
        {
          "internalType": "address",
          "name": "",
          "type": "address"
        }
      ],
      "stateMutability": "view",
      "type": "function"
    },
    {
      "inputs": [
        {
          "internalType": "uint256",
          "name": "id",
          "type": "uint256"
        }
      ],
      "name": "getChannel",
      "outputs": [
        {
          "components": [
            {
              "internalType": "uint256",
              "name": "id",
              "type": "uint256"
            },
            {
              "internalType": "string",
              "name": "name",
              "type": "string"
            },
            {
              "internalType": "uint256",
              "name": "cost",
              "type": "uint256"
            }
          ],
          "internalType": "struct DecentDisc.Channel",
          "name": "",
          "type": "tuple"
        }
      ],
      "stateMutability": "view",
      "type": "function"
    },
    {
      "inputs": [
        {
          "internalType": "address",
          "name": "owner",
          "type": "address"
        },
        {
          "internalType": "address",
          "name": "operator",
          "type": "address"
        }
      ],
      "name": "isApprovedForAll",
      "outputs": [
        {
          "internalType": "bool",
          "name": "",
          "type": "bool"
        }
      ],
      "stateMutability": "view",
      "type": "function"
    },
    {
      "inputs": [
        {
          "internalType": "uint256",
          "name": "",
          "type": "uint256"
        },
        {
          "internalType": "address",
          "name": "",
          "type": "address"
        }
      ],
      "name": "joinedChannel",
      "outputs": [
        {
          "internalType": "bool",
          "name": "",
          "type": "bool"
        }
      ],
      "stateMutability": "view",
      "type": "function"
    },
    {
      "inputs": [
        {
          "internalType": "uint256",
          "name": "id",
          "type": "uint256"
        },
        {
          "internalType": "address",
          "name": "msgSender",
          "type": "address"
        }
      ],
      "name": "mint",
      "outputs": [],
      "stateMutability": "payable",
      "type": "function"
    },
    {
      "inputs": [],
      "name": "mintedNFTs",
      "outputs": [
        {
          "internalType": "uint256",
          "name": "",
          "type": "uint256"
        }
      ],
      "stateMutability": "view",
      "type": "function"
    },
    {
      "inputs": [],
      "name": "name",
      "outputs": [
        {
          "internalType": "string",
          "name": "",
          "type": "string"
        }
      ],
      "stateMutability": "view",
      "type": "function"
    },
    {
      "inputs": [],
      "name": "owner",
      "outputs": [
        {
          "internalType": "address",
          "name": "",
          "type": "address"
        }
      ],
      "stateMutability": "view",
      "type": "function"
    },
    {
      "inputs": [
        {
          "internalType": "uint256",
          "name": "tokenId",
          "type": "uint256"
        }
      ],
      "name": "ownerOf",
      "outputs": [
        {
          "internalType": "address",
          "name": "",
          "type": "address"
        }
      ],
      "stateMutability": "view",
      "type": "function"
    },
    {
      "inputs": [
        {
          "internalType": "address",
          "name": "from",
          "type": "address"
        },
        {
          "internalType": "address",
          "name": "to",
          "type": "address"
        },
        {
          "internalType": "uint256",
          "name": "tokenId",
          "type": "uint256"
        }
      ],
      "name": "safeTransferFrom",
      "outputs": [],
      "stateMutability": "nonpayable",
      "type": "function"
    },
    {
      "inputs": [
        {
          "internalType": "address",
          "name": "from",
          "type": "address"
        },
        {
          "internalType": "address",
          "name": "to",
          "type": "address"
        },
        {
          "internalType": "uint256",
          "name": "tokenId",
          "type": "uint256"
        },
        {
          "internalType": "bytes",
          "name": "data",
          "type": "bytes"
        }
      ],
      "name": "safeTransferFrom",
      "outputs": [],
      "stateMutability": "nonpayable",
      "type": "function"
    },
    {
      "inputs": [
        {
          "internalType": "address",
          "name": "recipient",
          "type": "address"
        },
        {
          "internalType": "uint256",
          "name": "amount",
          "type": "uint256"
        }
      ],
      "name": "sendTokens",
      "outputs": [],
      "stateMutability": "nonpayable",
      "type": "function"
    },
    {
      "inputs": [
        {
          "internalType": "address",
          "name": "operator",
          "type": "address"
        },
        {
          "internalType": "bool",
          "name": "approved",
          "type": "bool"
        }
      ],
      "name": "setApprovalForAll",
      "outputs": [],
      "stateMutability": "nonpayable",
      "type": "function"
    },
    {
      "inputs": [
        {
          "internalType": "bytes4",
          "name": "interfaceId",
          "type": "bytes4"
        }
      ],
      "name": "supportsInterface",
      "outputs": [
        {
          "internalType": "bool",
          "name": "",
          "type": "bool"
        }
      ],
      "stateMutability": "view",
      "type": "function"
    },
    {
      "inputs": [],
      "name": "symbol",
      "outputs": [
        {
          "internalType": "string",
          "name": "",
          "type": "string"
        }
      ],
      "stateMutability": "view",
      "type": "function"
    },
    {
      "inputs": [],
      "name": "token",
      "outputs": [
        {
          "internalType": "contract IDecentDiscToken",
          "name": "",
          "type": "address"
        }
      ],
      "stateMutability": "view",
      "type": "function"
    },
    {
      "inputs": [
        {
          "internalType": "uint256",
          "name": "tokenId",
          "type": "uint256"
        }
      ],
      "name": "tokenURI",
      "outputs": [
        {
          "internalType": "string",
          "name": "",
          "type": "string"
        }
      ],
      "stateMutability": "view",
      "type": "function"
    },
    {
      "inputs": [
        {
          "internalType": "address",
          "name": "from",
          "type": "address"
        },
        {
          "internalType": "address",
          "name": "to",
          "type": "address"
        },
        {
          "internalType": "uint256",
          "name": "tokenId",
          "type": "uint256"
        }
      ],
      "name": "transferFrom",
      "outputs": [],
      "stateMutability": "nonpayable",
      "type": "function"
    },
    {
      "inputs": [],
      "name": "withdraw",
      "outputs": [],
      "stateMutability": "nonpayable",
      "type": "function"
    }
  ],
  "bytecode": "0x60806040523480156200001157600080fd5b5060405162003f9538038062003f9583398181016040528101906200003791906200037f565b818181600090816200004a919062000664565b5080600190816200005c919062000664565b50505033600760006101000a81548173ffffffffffffffffffffffffffffffffffffffff021916908373ffffffffffffffffffffffffffffffffffffffff16021790555082600660006101000a81548173ffffffffffffffffffffffffffffffffffffffff021916908373ffffffffffffffffffffffffffffffffffffffff160217905550600660009054906101000a900473ffffffffffffffffffffffffffffffffffffffff1673ffffffffffffffffffffffffffffffffffffffff166340c10f193069021e19e0c9bab24000006040518363ffffffff1660e01b81526004016200014a9291906200079f565b600060405180830381600087803b1580156200016557600080fd5b505af11580156200017a573d6000803e3d6000fd5b50505050505050620007cc565b6000604051905090565b600080fd5b600080fd5b600073ffffffffffffffffffffffffffffffffffffffff82169050919050565b6000620001c8826200019b565b9050919050565b620001da81620001bb565b8114620001e657600080fd5b50565b600081519050620001fa81620001cf565b92915050565b600080fd5b600080fd5b6000601f19601f8301169050919050565b7f4e487b7100000000000000000000000000000000000000000000000000000000600052604160045260246000fd5b62000255826200020a565b810181811067ffffffffffffffff821117156200027757620002766200021b565b5b80604052505050565b60006200028c62000187565b90506200029a82826200024a565b919050565b600067ffffffffffffffff821115620002bd57620002bc6200021b565b5b620002c8826200020a565b9050602081019050919050565b60005b83811015620002f5578082015181840152602081019050620002d8565b60008484015250505050565b60006200031862000312846200029f565b62000280565b90508281526020810184848401111562000337576200033662000205565b5b62000344848285620002d5565b509392505050565b600082601f83011262000364576200036362000200565b5b81516200037684826020860162000301565b91505092915050565b6000806000606084860312156200039b576200039a62000191565b5b6000620003ab86828701620001e9565b935050602084015167ffffffffffffffff811115620003cf57620003ce62000196565b5b620003dd868287016200034c565b925050604084015167ffffffffffffffff81111562000401576200040062000196565b5b6200040f868287016200034c565b9150509250925092565b600081519050919050565b7f4e487b7100000000000000000000000000000000000000000000000000000000600052602260045260246000fd5b600060028204905060018216806200046c57607f821691505b60208210810362000482576200048162000424565b5b50919050565b60008190508160005260206000209050919050565b60006020601f8301049050919050565b600082821b905092915050565b600060088302620004ec7fffffffffffffffffffffffffffffffffffffffffffffffffffffffffffffffff82620004ad565b620004f88683620004ad565b95508019841693508086168417925050509392505050565b6000819050919050565b6000819050919050565b6000620005456200053f620005398462000510565b6200051a565b62000510565b9050919050565b6000819050919050565b620005618362000524565b6200057962000570826200054c565b848454620004ba565b825550505050565b600090565b6200059062000581565b6200059d81848462000556565b505050565b5b81811015620005c557620005b960008262000586565b600181019050620005a3565b5050565b601f8211156200061457620005de8162000488565b620005e9846200049d565b81016020851015620005f9578190505b6200061162000608856200049d565b830182620005a2565b50505b505050565b600082821c905092915050565b6000620006396000198460080262000619565b1980831691505092915050565b600062000654838362000626565b9150826002028217905092915050565b6200066f8262000419565b67ffffffffffffffff8111156200068b576200068a6200021b565b5b62000697825462000453565b620006a4828285620005c9565b600060209050601f831160018114620006dc5760008415620006c7578287015190505b620006d3858262000646565b86555062000743565b601f198416620006ec8662000488565b60005b828110156200071657848901518255600182019150602085019450602081019050620006ef565b8683101562000736578489015162000732601f89168262000626565b8355505b6001600288020188555050505b505050505050565b6200075681620001bb565b82525050565b6000819050919050565b600062000787620007816200077b846200075c565b6200051a565b62000510565b9050919050565b620007998162000766565b82525050565b6000604082019050620007b660008301856200074b565b620007c560208301846200078e565b9392505050565b6137b980620007dc6000396000f3fe6080604052600436106101665760003560e01c80638da5cb5b116100d1578063b9aca4a71161008a578063cb8cc58311610064578063cb8cc5831461053f578063e5949b5d1461056a578063e985e9c5146105a9578063fc0c546a146105e657610166565b8063b9aca4a71461049a578063bb6cfb52146104d7578063c87b56dd1461050257610166565b80638da5cb5b146103ad57806394bf804d146103d857806395d89b41146103f4578063a14865cd1461041f578063a22cb46514610448578063b88d4fde1461047157610166565b806310df54a01161012357806310df54a01461028d57806323b872dd146102ca5780633ccfd60b146102f357806342842e0e1461030a5780636352211e1461033357806370a082311461037057610166565b8063016776611461016b57806301ffc9a71461019657806305ab421d146101d357806306fdde03146101fc578063081812fc14610227578063095ea7b314610264575b600080fd5b34801561017757600080fd5b50610180610611565b60405161018d9190612200565b60405180910390f35b3480156101a257600080fd5b506101bd60048036038101906101b89190612287565b610617565b6040516101ca91906122cf565b60405180910390f35b3480156101df57600080fd5b506101fa60048036038101906101f59190612374565b6106f9565b005b34801561020857600080fd5b506102116108c0565b60405161021e9190612444565b60405180910390f35b34801561023357600080fd5b5061024e60048036038101906102499190612466565b610952565b60405161025b91906124a2565b60405180910390f35b34801561027057600080fd5b5061028b60048036038101906102869190612374565b610998565b005b34801561029957600080fd5b506102b460048036038101906102af9190612466565b610aaf565b6040516102c19190612566565b60405180910390f35b3480156102d657600080fd5b506102f160048036038101906102ec9190612588565b610b82565b005b3480156102ff57600080fd5b50610308610be2565b005b34801561031657600080fd5b50610331600480360381019061032c9190612588565b610d0d565b005b34801561033f57600080fd5b5061035a60048036038101906103559190612466565b610d2d565b60405161036791906124a2565b60405180910390f35b34801561037c57600080fd5b50610397600480360381019061039291906125db565b610db3565b6040516103a49190612200565b60405180910390f35b3480156103b957600080fd5b506103c2610e6a565b6040516103cf91906124a2565b60405180910390f35b6103f260048036038101906103ed9190612608565b610e90565b005b34801561040057600080fd5b50610409610fce565b6040516104169190612444565b60405180910390f35b34801561042b57600080fd5b506104466004803603810190610441919061277d565b611060565b005b34801561045457600080fd5b5061046f600480360381019061046a9190612805565b61116d565b005b34801561047d57600080fd5b50610498600480360381019061049391906128e6565b611183565b005b3480156104a657600080fd5b506104c160048036038101906104bc9190612608565b6111e5565b6040516104ce91906122cf565b60405180910390f35b3480156104e357600080fd5b506104ec611214565b6040516104f99190612200565b60405180910390f35b34801561050e57600080fd5b5061052960048036038101906105249190612466565b61121e565b6040516105369190612444565b60405180910390f35b34801561054b57600080fd5b50610554611286565b6040516105619190612200565b60405180910390f35b34801561057657600080fd5b50610591600480360381019061058c9190612466565b61128c565b6040516105a093929190612969565b60405180910390f35b3480156105b557600080fd5b506105d060048036038101906105cb91906129a7565b61133e565b6040516105dd91906122cf565b60405180910390f35b3480156105f257600080fd5b506105fb6113d2565b6040516106089190612a46565b60405180910390f35b60095481565b60007f80ac58cd000000000000000000000000000000000000000000000000000000007bffffffffffffffffffffffffffffffffffffffffffffffffffffffff1916827bffffffffffffffffffffffffffffffffffffffffffffffffffffffff191614806106e257507f5b5e139f000000000000000000000000000000000000000000000000000000007bffffffffffffffffffffffffffffffffffffffffffffffffffffffff1916827bffffffffffffffffffffffffffffffffffffffffffffffffffffffff1916145b806106f257506106f1826113f8565b5b9050919050565b80600660009054906101000a900473ffffffffffffffffffffffffffffffffffffffff1673ffffffffffffffffffffffffffffffffffffffff166370a08231306040518263ffffffff1660e01b815260040161075591906124a2565b602060405180830381865afa158015610772573d6000803e3d6000fd5b505050506040513d601f19601f820116820180604052508101906107969190612a76565b10156107d7576040517f08c379a00000000000000000000000000000000000000000000000000000000081526004016107ce90612b15565b60405180910390fd5b6000600660009054906101000a900473ffffffffffffffffffffffffffffffffffffffff1673ffffffffffffffffffffffffffffffffffffffff1663a9059cbb84846040518363ffffffff1660e01b8152600401610836929190612b35565b6020604051808303816000875af1158015610855573d6000803e3d6000fd5b505050506040513d601f19601f820116820180604052508101906108799190612b73565b9050806108bb576040517f08c379a00000000000000000000000000000000000000000000000000000000081526004016108b290612c12565b60405180910390fd5b505050565b6060600080546108cf90612c61565b80601f01602080910402602001604051908101604052809291908181526020018280546108fb90612c61565b80156109485780601f1061091d57610100808354040283529160200191610948565b820191906000526020600020905b81548152906001019060200180831161092b57829003601f168201915b5050505050905090565b600061095d82611462565b6004600083815260200190815260200160002060009054906101000a900473ffffffffffffffffffffffffffffffffffffffff169050919050565b60006109a382610d2d565b90508073ffffffffffffffffffffffffffffffffffffffff168373ffffffffffffffffffffffffffffffffffffffff1603610a13576040517f08c379a0000000000000000000000000000000000000000000000000000000008152600401610a0a90612d04565b60405180910390fd5b8073ffffffffffffffffffffffffffffffffffffffff16610a326114ad565b73ffffffffffffffffffffffffffffffffffffffff161480610a615750610a6081610a5b6114ad565b61133e565b5b610aa0576040517f08c379a0000000000000000000000000000000000000000000000000000000008152600401610a9790612d96565b60405180910390fd5b610aaa83836114b5565b505050565b610ab76121c6565b600a600083815260200190815260200160002060405180606001604052908160008201548152602001600182018054610aef90612c61565b80601f0160208091040260200160405190810160405280929190818152602001828054610b1b90612c61565b8015610b685780601f10610b3d57610100808354040283529160200191610b68565b820191906000526020600020905b815481529060010190602001808311610b4b57829003601f168201915b505050505081526020016002820154815250509050919050565b610b93610b8d6114ad565b8261156e565b610bd2576040517f08c379a0000000000000000000000000000000000000000000000000000000008152600401610bc990612e28565b60405180910390fd5b610bdd838383611603565b505050565b600760009054906101000a900473ffffffffffffffffffffffffffffffffffffffff1673ffffffffffffffffffffffffffffffffffffffff163373ffffffffffffffffffffffffffffffffffffffff1614610c72576040517f08c379a0000000000000000000000000000000000000000000000000000000008152600401610c6990612e94565b60405180910390fd5b6000600760009054906101000a900473ffffffffffffffffffffffffffffffffffffffff1673ffffffffffffffffffffffffffffffffffffffff1647604051610cba90612ee5565b60006040518083038185875af1925050503d8060008114610cf7576040519150601f19603f3d011682016040523d82523d6000602084013e610cfc565b606091505b5050905080610d0a57600080fd5b50565b610d2883838360405180602001604052806000815250611183565b505050565b600080610d39836118fc565b9050600073ffffffffffffffffffffffffffffffffffffffff168173ffffffffffffffffffffffffffffffffffffffff1603610daa576040517f08c379a0000000000000000000000000000000000000000000000000000000008152600401610da190612f46565b60405180910390fd5b80915050919050565b60008073ffffffffffffffffffffffffffffffffffffffff168273ffffffffffffffffffffffffffffffffffffffff1603610e23576040517f08c379a0000000000000000000000000000000000000000000000000000000008152600401610e1a90612fd8565b60405180910390fd5b600360008373ffffffffffffffffffffffffffffffffffffffff1673ffffffffffffffffffffffffffffffffffffffff168152602001908152602001600020549050919050565b600760009054906101000a900473ffffffffffffffffffffffffffffffffffffffff1681565b60008203610e9d57600080fd5b600854821115610eac57600080fd5b60001515600b600084815260200190815260200160002060008373ffffffffffffffffffffffffffffffffffffffff1673ffffffffffffffffffffffffffffffffffffffff16815260200190815260200160002060009054906101000a900460ff16151514610f1a57600080fd5b600a600083815260200190815260200160002060020154341015610f3d57600080fd5b6001600b600084815260200190815260200160002060008373ffffffffffffffffffffffffffffffffffffffff1673ffffffffffffffffffffffffffffffffffffffff16815260200190815260200160002060006101000a81548160ff02191690831515021790555060096000815480929190610fb990613027565b9190505550610fca81600954611939565b5050565b606060018054610fdd90612c61565b80601f016020809104026020016040519081016040528092919081815260200182805461100990612c61565b80156110565780601f1061102b57610100808354040283529160200191611056565b820191906000526020600020905b81548152906001019060200180831161103957829003601f168201915b5050505050905090565b600760009054906101000a900473ffffffffffffffffffffffffffffffffffffffff1673ffffffffffffffffffffffffffffffffffffffff163373ffffffffffffffffffffffffffffffffffffffff16146110f0576040517f08c379a00000000000000000000000000000000000000000000000000000000081526004016110e790612e94565b60405180910390fd5b600160086000828254611103919061306f565b925050819055506040518060600160405280600854815260200183815260200182815250600a6000600854815260200190815260200160002060008201518160000155602082015181600101908161115b9190613245565b50604082015181600201559050505050565b61117f6111786114ad565b8383611957565b5050565b61119461118e6114ad565b8361156e565b6111d3576040517f08c379a00000000000000000000000000000000000000000000000000000000081526004016111ca90612e28565b60405180910390fd5b6111df84848484611ac3565b50505050565b600b6020528160005260406000206020528060005260406000206000915091509054906101000a900460ff1681565b6000600854905090565b606061122982611462565b6000611233611b1f565b90506000815111611253576040518060200160405280600081525061127e565b8061125d84611b36565b60405160200161126e929190613353565b6040516020818303038152906040525b915050919050565b60085481565b600a6020528060005260406000206000915090508060000154908060010180546112b590612c61565b80601f01602080910402602001604051908101604052809291908181526020018280546112e190612c61565b801561132e5780601f106113035761010080835404028352916020019161132e565b820191906000526020600020905b81548152906001019060200180831161131157829003601f168201915b5050505050908060020154905083565b6000600560008473ffffffffffffffffffffffffffffffffffffffff1673ffffffffffffffffffffffffffffffffffffffff16815260200190815260200160002060008373ffffffffffffffffffffffffffffffffffffffff1673ffffffffffffffffffffffffffffffffffffffff16815260200190815260200160002060009054906101000a900460ff16905092915050565b600660009054906101000a900473ffffffffffffffffffffffffffffffffffffffff1681565b60007f01ffc9a7000000000000000000000000000000000000000000000000000000007bffffffffffffffffffffffffffffffffffffffffffffffffffffffff1916827bffffffffffffffffffffffffffffffffffffffffffffffffffffffff1916149050919050565b61146b81611c04565b6114aa576040517f08c379a00000000000000000000000000000000000000000000000000000000081526004016114a190612f46565b60405180910390fd5b50565b600033905090565b816004600083815260200190815260200160002060006101000a81548173ffffffffffffffffffffffffffffffffffffffff021916908373ffffffffffffffffffffffffffffffffffffffff160217905550808273ffffffffffffffffffffffffffffffffffffffff1661152883610d2d565b73ffffffffffffffffffffffffffffffffffffffff167f8c5be1e5ebec7d5bd14f71427d1e84f3dd0314c0f7b2291e5b200ac8c7c3b92560405160405180910390a45050565b60008061157a83610d2d565b90508073ffffffffffffffffffffffffffffffffffffffff168473ffffffffffffffffffffffffffffffffffffffff1614806115bc57506115bb818561133e565b5b806115fa57508373ffffffffffffffffffffffffffffffffffffffff166115e284610952565b73ffffffffffffffffffffffffffffffffffffffff16145b91505092915050565b8273ffffffffffffffffffffffffffffffffffffffff1661162382610d2d565b73ffffffffffffffffffffffffffffffffffffffff1614611679576040517f08c379a0000000000000000000000000000000000000000000000000000000008152600401611670906133e9565b60405180910390fd5b600073ffffffffffffffffffffffffffffffffffffffff168273ffffffffffffffffffffffffffffffffffffffff16036116e8576040517f08c379a00000000000000000000000000000000000000000000000000000000081526004016116df9061347b565b60405180910390fd5b6116f58383836001611c45565b8273ffffffffffffffffffffffffffffffffffffffff1661171582610d2d565b73ffffffffffffffffffffffffffffffffffffffff161461176b576040517f08c379a0000000000000000000000000000000000000000000000000000000008152600401611762906133e9565b60405180910390fd5b6004600082815260200190815260200160002060006101000a81549073ffffffffffffffffffffffffffffffffffffffff02191690556001600360008573ffffffffffffffffffffffffffffffffffffffff1673ffffffffffffffffffffffffffffffffffffffff168152602001908152602001600020600082825403925050819055506001600360008473ffffffffffffffffffffffffffffffffffffffff1673ffffffffffffffffffffffffffffffffffffffff16815260200190815260200160002060008282540192505081905550816002600083815260200190815260200160002060006101000a81548173ffffffffffffffffffffffffffffffffffffffff021916908373ffffffffffffffffffffffffffffffffffffffff160217905550808273ffffffffffffffffffffffffffffffffffffffff168473ffffffffffffffffffffffffffffffffffffffff167fddf252ad1be2c89b69c2b068fc378daa952ba7f163c4a11628f55a4df523b3ef60405160405180910390a46118f78383836001611c4b565b505050565b60006002600083815260200190815260200160002060009054906101000a900473ffffffffffffffffffffffffffffffffffffffff169050919050565b611953828260405180602001604052806000815250611c51565b5050565b8173ffffffffffffffffffffffffffffffffffffffff168373ffffffffffffffffffffffffffffffffffffffff16036119c5576040517f08c379a00000000000000000000000000000000000000000000000000000000081526004016119bc906134e7565b60405180910390fd5b80600560008573ffffffffffffffffffffffffffffffffffffffff1673ffffffffffffffffffffffffffffffffffffffff16815260200190815260200160002060008473ffffffffffffffffffffffffffffffffffffffff1673ffffffffffffffffffffffffffffffffffffffff16815260200190815260200160002060006101000a81548160ff0219169083151502179055508173ffffffffffffffffffffffffffffffffffffffff168373ffffffffffffffffffffffffffffffffffffffff167f17307eab39ab6107e8899845ad3d59bd9653f200f220920489ca2b5937696c3183604051611ab691906122cf565b60405180910390a3505050565b611ace848484611603565b611ada84848484611cac565b611b19576040517f08c379a0000000000000000000000000000000000000000000000000000000008152600401611b1090613579565b60405180910390fd5b50505050565b606060405180602001604052806000815250905090565b606060006001611b4584611e33565b01905060008167ffffffffffffffff811115611b6457611b63612652565b5b6040519080825280601f01601f191660200182016040528015611b965781602001600182028036833780820191505090505b509050600082602001820190505b600115611bf9578080600190039150507f3031323334353637383961626364656600000000000000000000000000000000600a86061a8153600a8581611bed57611bec613599565b5b04945060008503611ba4575b819350505050919050565b60008073ffffffffffffffffffffffffffffffffffffffff16611c26836118fc565b73ffffffffffffffffffffffffffffffffffffffff1614159050919050565b50505050565b50505050565b611c5b8383611f86565b611c686000848484611cac565b611ca7576040517f08c379a0000000000000000000000000000000000000000000000000000000008152600401611c9e90613579565b60405180910390fd5b505050565b6000611ccd8473ffffffffffffffffffffffffffffffffffffffff166121a3565b15611e26578373ffffffffffffffffffffffffffffffffffffffff1663150b7a02611cf66114ad565b8786866040518563ffffffff1660e01b8152600401611d18949392919061361d565b6020604051808303816000875af1925050508015611d5457506040513d601f19601f82011682018060405250810190611d51919061367e565b60015b611dd6573d8060008114611d84576040519150601f19603f3d011682016040523d82523d6000602084013e611d89565b606091505b506000815103611dce576040517f08c379a0000000000000000000000000000000000000000000000000000000008152600401611dc590613579565b60405180910390fd5b805181602001fd5b63150b7a0260e01b7bffffffffffffffffffffffffffffffffffffffffffffffffffffffff1916817bffffffffffffffffffffffffffffffffffffffffffffffffffffffff191614915050611e2b565b600190505b949350505050565b600080600090507a184f03e93ff9f4daa797ed6e38ed64bf6a1f0100000000000000008310611e91577a184f03e93ff9f4daa797ed6e38ed64bf6a1f0100000000000000008381611e8757611e86613599565b5b0492506040810190505b6d04ee2d6d415b85acef81000000008310611ece576d04ee2d6d415b85acef81000000008381611ec457611ec3613599565b5b0492506020810190505b662386f26fc100008310611efd57662386f26fc100008381611ef357611ef2613599565b5b0492506010810190505b6305f5e1008310611f26576305f5e1008381611f1c57611f1b613599565b5b0492506008810190505b6127108310611f4b576127108381611f4157611f40613599565b5b0492506004810190505b60648310611f6e5760648381611f6457611f63613599565b5b0492506002810190505b600a8310611f7d576001810190505b80915050919050565b600073ffffffffffffffffffffffffffffffffffffffff168273ffffffffffffffffffffffffffffffffffffffff1603611ff5576040517f08c379a0000000000000000000000000000000000000000000000000000000008152600401611fec906136f7565b60405180910390fd5b611ffe81611c04565b1561203e576040517f08c379a000000000000000000000000000000000000000000000000000000000815260040161203590613763565b60405180910390fd5b61204c600083836001611c45565b61205581611c04565b15612095576040517f08c379a000000000000000000000000000000000000000000000000000000000815260040161208c90613763565b60405180910390fd5b6001600360008473ffffffffffffffffffffffffffffffffffffffff1673ffffffffffffffffffffffffffffffffffffffff16815260200190815260200160002060008282540192505081905550816002600083815260200190815260200160002060006101000a81548173ffffffffffffffffffffffffffffffffffffffff021916908373ffffffffffffffffffffffffffffffffffffffff160217905550808273ffffffffffffffffffffffffffffffffffffffff16600073ffffffffffffffffffffffffffffffffffffffff167fddf252ad1be2c89b69c2b068fc378daa952ba7f163c4a11628f55a4df523b3ef60405160405180910390a461219f600083836001611c4b565b5050565b6000808273ffffffffffffffffffffffffffffffffffffffff163b119050919050565b60405180606001604052806000815260200160608152602001600081525090565b6000819050919050565b6121fa816121e7565b82525050565b600060208201905061221560008301846121f1565b92915050565b6000604051905090565b600080fd5b600080fd5b60007fffffffff0000000000000000000000000000000000000000000000000000000082169050919050565b6122648161222f565b811461226f57600080fd5b50565b6000813590506122818161225b565b92915050565b60006020828403121561229d5761229c612225565b5b60006122ab84828501612272565b91505092915050565b60008115159050919050565b6122c9816122b4565b82525050565b60006020820190506122e460008301846122c0565b92915050565b600073ffffffffffffffffffffffffffffffffffffffff82169050919050565b6000612315826122ea565b9050919050565b6123258161230a565b811461233057600080fd5b50565b6000813590506123428161231c565b92915050565b612351816121e7565b811461235c57600080fd5b50565b60008135905061236e81612348565b92915050565b6000806040838503121561238b5761238a612225565b5b600061239985828601612333565b92505060206123aa8582860161235f565b9150509250929050565b600081519050919050565b600082825260208201905092915050565b60005b838110156123ee5780820151818401526020810190506123d3565b60008484015250505050565b6000601f19601f8301169050919050565b6000612416826123b4565b61242081856123bf565b93506124308185602086016123d0565b612439816123fa565b840191505092915050565b6000602082019050818103600083015261245e818461240b565b905092915050565b60006020828403121561247c5761247b612225565b5b600061248a8482850161235f565b91505092915050565b61249c8161230a565b82525050565b60006020820190506124b76000830184612493565b92915050565b6124c6816121e7565b82525050565b600082825260208201905092915050565b60006124e8826123b4565b6124f281856124cc565b93506125028185602086016123d0565b61250b816123fa565b840191505092915050565b600060608301600083015161252e60008601826124bd565b506020830151848203602086015261254682826124dd565b915050604083015161255b60408601826124bd565b508091505092915050565b600060208201905081810360008301526125808184612516565b905092915050565b6000806000606084860312156125a1576125a0612225565b5b60006125af86828701612333565b93505060206125c086828701612333565b92505060406125d18682870161235f565b9150509250925092565b6000602082840312156125f1576125f0612225565b5b60006125ff84828501612333565b91505092915050565b6000806040838503121561261f5761261e612225565b5b600061262d8582860161235f565b925050602061263e85828601612333565b9150509250929050565b600080fd5b600080fd5b7f4e487b7100000000000000000000000000000000000000000000000000000000600052604160045260246000fd5b61268a826123fa565b810181811067ffffffffffffffff821117156126a9576126a8612652565b5b80604052505050565b60006126bc61221b565b90506126c88282612681565b919050565b600067ffffffffffffffff8211156126e8576126e7612652565b5b6126f1826123fa565b9050602081019050919050565b82818337600083830152505050565b600061272061271b846126cd565b6126b2565b90508281526020810184848401111561273c5761273b61264d565b5b6127478482856126fe565b509392505050565b600082601f83011261276457612763612648565b5b813561277484826020860161270d565b91505092915050565b6000806040838503121561279457612793612225565b5b600083013567ffffffffffffffff8111156127b2576127b161222a565b5b6127be8582860161274f565b92505060206127cf8582860161235f565b9150509250929050565b6127e2816122b4565b81146127ed57600080fd5b50565b6000813590506127ff816127d9565b92915050565b6000806040838503121561281c5761281b612225565b5b600061282a85828601612333565b925050602061283b858286016127f0565b9150509250929050565b600067ffffffffffffffff8211156128605761285f612652565b5b612869826123fa565b9050602081019050919050565b600061288961288484612845565b6126b2565b9050828152602081018484840111156128a5576128a461264d565b5b6128b08482856126fe565b509392505050565b600082601f8301126128cd576128cc612648565b5b81356128dd848260208601612876565b91505092915050565b60008060008060808587031215612900576128ff612225565b5b600061290e87828801612333565b945050602061291f87828801612333565b93505060406129308782880161235f565b925050606085013567ffffffffffffffff8111156129515761295061222a565b5b61295d878288016128b8565b91505092959194509250565b600060608201905061297e60008301866121f1565b8181036020830152612990818561240b565b905061299f60408301846121f1565b949350505050565b600080604083850312156129be576129bd612225565b5b60006129cc85828601612333565b92505060206129dd85828601612333565b9150509250929050565b6000819050919050565b6000612a0c612a07612a02846122ea565b6129e7565b6122ea565b9050919050565b6000612a1e826129f1565b9050919050565b6000612a3082612a13565b9050919050565b612a4081612a25565b82525050565b6000602082019050612a5b6000830184612a37565b92915050565b600081519050612a7081612348565b92915050565b600060208284031215612a8c57612a8b612225565b5b6000612a9a84828501612a61565b91505092915050565b7f446563656e74446973633a204e6f7420656e6f75676820746f6b656e7320617660008201527f61696c61626c6500000000000000000000000000000000000000000000000000602082015250565b6000612aff6027836123bf565b9150612b0a82612aa3565b604082019050919050565b60006020820190508181036000830152612b2e81612af2565b9050919050565b6000604082019050612b4a6000830185612493565b612b5760208301846121f1565b9392505050565b600081519050612b6d816127d9565b92915050565b600060208284031215612b8957612b88612225565b5b6000612b9784828501612b5e565b91505092915050565b7f446563656e74446973633a20546f6b656e207472616e73666572206661696c6560008201527f6400000000000000000000000000000000000000000000000000000000000000602082015250565b6000612bfc6021836123bf565b9150612c0782612ba0565b604082019050919050565b60006020820190508181036000830152612c2b81612bef565b9050919050565b7f4e487b7100000000000000000000000000000000000000000000000000000000600052602260045260246000fd5b60006002820490506001821680612c7957607f821691505b602082108103612c8c57612c8b612c32565b5b50919050565b7f4552433732313a20617070726f76616c20746f2063757272656e74206f776e6560008201527f7200000000000000000000000000000000000000000000000000000000000000602082015250565b6000612cee6021836123bf565b9150612cf982612c92565b604082019050919050565b60006020820190508181036000830152612d1d81612ce1565b9050919050565b7f4552433732313a20617070726f76652063616c6c6572206973206e6f7420746f60008201527f6b656e206f776e6572206f7220617070726f76656420666f7220616c6c000000602082015250565b6000612d80603d836123bf565b9150612d8b82612d24565b604082019050919050565b60006020820190508181036000830152612daf81612d73565b9050919050565b7f4552433732313a2063616c6c6572206973206e6f7420746f6b656e206f776e6560008201527f72206f7220617070726f76656400000000000000000000000000000000000000602082015250565b6000612e12602d836123bf565b9150612e1d82612db6565b604082019050919050565b60006020820190508181036000830152612e4181612e05565b9050919050565b7f4552433732313a204e6f74206f776e6572206f66206368616e6e656c21000000600082015250565b6000612e7e601d836123bf565b9150612e8982612e48565b602082019050919050565b60006020820190508181036000830152612ead81612e71565b9050919050565b600081905092915050565b50565b6000612ecf600083612eb4565b9150612eda82612ebf565b600082019050919050565b6000612ef082612ec2565b9150819050919050565b7f4552433732313a20696e76616c696420746f6b656e2049440000000000000000600082015250565b6000612f306018836123bf565b9150612f3b82612efa565b602082019050919050565b60006020820190508181036000830152612f5f81612f23565b9050919050565b7f4552433732313a2061646472657373207a65726f206973206e6f74206120766160008201527f6c6964206f776e65720000000000000000000000000000000000000000000000602082015250565b6000612fc26029836123bf565b9150612fcd82612f66565b604082019050919050565b60006020820190508181036000830152612ff181612fb5565b9050919050565b7f4e487b7100000000000000000000000000000000000000000000000000000000600052601160045260246000fd5b6000613032826121e7565b91507fffffffffffffffffffffffffffffffffffffffffffffffffffffffffffffffff820361306457613063612ff8565b5b600182019050919050565b600061307a826121e7565b9150613085836121e7565b925082820190508082111561309d5761309c612ff8565b5b92915050565b60008190508160005260206000209050919050565b60006020601f8301049050919050565b600082821b905092915050565b6000600883026131057fffffffffffffffffffffffffffffffffffffffffffffffffffffffffffffffff826130c8565b61310f86836130c8565b95508019841693508086168417925050509392505050565b600061314261313d613138846121e7565b6129e7565b6121e7565b9050919050565b6000819050919050565b61315c83613127565b61317061316882613149565b8484546130d5565b825550505050565b600090565b613185613178565b613190818484613153565b505050565b5b818110156131b4576131a960008261317d565b600181019050613196565b5050565b601f8211156131f9576131ca816130a3565b6131d3846130b8565b810160208510156131e2578190505b6131f66131ee856130b8565b830182613195565b50505b505050565b600082821c905092915050565b600061321c600019846008026131fe565b1980831691505092915050565b6000613235838361320b565b9150826002028217905092915050565b61324e826123b4565b67ffffffffffffffff81111561326757613266612652565b5b6132718254612c61565b61327c8282856131b8565b600060209050601f8311600181146132af576000841561329d578287015190505b6132a78582613229565b86555061330f565b601f1984166132bd866130a3565b60005b828110156132e5578489015182556001820191506020850194506020810190506132c0565b8683101561330257848901516132fe601f89168261320b565b8355505b6001600288020188555050505b505050505050565b600081905092915050565b600061332d826123b4565b6133378185613317565b93506133478185602086016123d0565b80840191505092915050565b600061335f8285613322565b915061336b8284613322565b91508190509392505050565b7f4552433732313a207472616e736665722066726f6d20696e636f72726563742060008201527f6f776e6572000000000000000000000000000000000000000000000000000000602082015250565b60006133d36025836123bf565b91506133de82613377565b604082019050919050565b60006020820190508181036000830152613402816133c6565b9050919050565b7f4552433732313a207472616e7366657220746f20746865207a65726f2061646460008201527f7265737300000000000000000000000000000000000000000000000000000000602082015250565b60006134656024836123bf565b915061347082613409565b604082019050919050565b6000602082019050818103600083015261349481613458565b9050919050565b7f4552433732313a20617070726f766520746f2063616c6c657200000000000000600082015250565b60006134d16019836123bf565b91506134dc8261349b565b602082019050919050565b60006020820190508181036000830152613500816134c4565b9050919050565b7f4552433732313a207472616e7366657220746f206e6f6e20455243373231526560008201527f63656976657220696d706c656d656e7465720000000000000000000000000000602082015250565b60006135636032836123bf565b915061356e82613507565b604082019050919050565b6000602082019050818103600083015261359281613556565b9050919050565b7f4e487b7100000000000000000000000000000000000000000000000000000000600052601260045260246000fd5b600081519050919050565b600082825260208201905092915050565b60006135ef826135c8565b6135f981856135d3565b93506136098185602086016123d0565b613612816123fa565b840191505092915050565b60006080820190506136326000830187612493565b61363f6020830186612493565b61364c60408301856121f1565b818103606083015261365e81846135e4565b905095945050505050565b6000815190506136788161225b565b92915050565b60006020828403121561369457613693612225565b5b60006136a284828501613669565b91505092915050565b7f4552433732313a206d696e7420746f20746865207a65726f2061646472657373600082015250565b60006136e16020836123bf565b91506136ec826136ab565b602082019050919050565b60006020820190508181036000830152613710816136d4565b9050919050565b7f4552433732313a20746f6b656e20616c7265616479206d696e74656400000000600082015250565b600061374d601c836123bf565b915061375882613717565b602082019050919050565b6000602082019050818103600083015261377c81613740565b905091905056fea2646970667358221220855b309ce02be0a29c2abf58fa8c03e45578c1ee9f1c671997516b9a20a2e35564736f6c63430008120033",
  "linkReferences": {},
  "deployedLinkReferences": {}
}